:020000040000FA
:10000000A006002021030000290300002B030000AC
:100010002D0300002F03000031030000000000004A
:10002000000000000000000000000000330300009A
:10003000350300000000000037030000693B0000AA
:100040003B0300003D0300003F03000041030000AC
:1000500043030000F93F000047030000490300008C
:100060004B0300004D0300004F030000510300004C
:10007000530300005503000057030000590300001C
:100080005B0300005D0300005F03000061030000EC
:1000900063030000650300006703000069030000BC
:1000A0006B0300006D0300006F030000710300008C
:1000B000730300007503000077030000790300005C
:1000C0007B0300007D0300007F030000810300002C
:1000D00083030000850300008703000089030000FC
:1000E0008B0300008D0300008F03000091030000CC
:1000F000930300009503000097030000990300009C
:100100009B0300009D0300009F030000A10300006B
:10011000A3030000A5030000A7030000A90300003B
:10012000AB030000AD030000AF030000B10300000B
:10013000B3030000B5030000B7030000B9030000DB
:10014000BB030000BD030000BF030000D903000093
:100150000000000000000000DB030000DD030000E1
:10016000DF030000E103000000000000E3030000E3
:10017000E5030000E7030000E9030000EB030000D3
:10018000ED030000EF030000F1030000F3030000A3
:10019000F5030000F7030000F9030000FB03000073
:1001A000FD030000FF030000010400000304000041
:1001B0000504000007040000090400000B0400000F
:1001C0000D0400000F0400001104000013040000DF
:1001D0001504000017040000190400001B040000AF
:1001E0001D0400001F04000021040000230400007F
:1001F0002504000027040000290400002B0400004F
:1002000000F002F800F069F80AA090E8000C8244BF
:100210008344AAF10107DA4501D100F05EF8AFF29C
:10022000090EBAE80F0013F0010F18BFFB1A43F0D4
:10023000010318475050000070500000103A24BFCE
:1002400078C878C1FAD8520724BF30C830C144BF3B
:1002500004680C607047000000230024002500267D
:10026000103A28BF78C1FBD8520728BF30C148BF19
:100270000B607047662904F0D384692900F05C8123
:10028000642900F05981752900F056816F2900F02A
:10029000ED81782900F012820368DB0928BF41F064
:1002A0008001632900F08586E32900F0988600200C
:1002B00070471FB504F0AFFC00F06AFF0400002097
:1002C000002104F01BFC401C60600020002104F0B1
:1002D000FFFBE0601FBD10B510BD01F0B3F8114683
:1002E000FFF7E7FF03F0E4FF01F0D1F803B4FFF7F5
:1002F000F2FF03BC01F0D4F8EFF3108072B6704740
:10030000EFF310807047EFF3108062B6704730BF94
:10031000704780F311887047EFF311807047000039
:100320004548804745480047FEE7FEE7FEE7FEE711
:10033000FEE7FEE7FEE7FEE7FEE7FEE7FEE7FEE795
:10034000FEE7FEE7FEE7FEE7FEE7FEE7FEE7FEE785
:10035000FEE7FEE7FEE7FEE7FEE7FEE7FEE7FEE775
:10036000FEE7FEE7FEE7FEE7FEE7FEE7FEE7FEE765
:10037000FEE7FEE7FEE7FEE7FEE7FEE7FEE7FEE755
:10038000FEE7FEE7FEE7FEE7FEE7FEE7FEE7FEE745
:10039000FEE7FEE7FEE7FEE7FEE7FEE7FEE7FEE735
:1003A000FEE7FEE7FEE7FEE7FEE7FEE7FEE7FEE725
:1003B000FEE7FEE7FEE7FEE7FEE7FEE7FEE7FEE715
:1003C000FEE7FEE7FEE7FEE7FEE7FEE7FEE7FEE705
:1003D000FEE7FEE7FEE7FEE7FEE7FEE7FEE7FEE7F5
:1003E000FEE7FEE7FEE7FEE7FEE7FEE7FEE7FEE7E5
:1003F000FEE7FEE7FEE7FEE7FEE7FEE7FEE7FEE7D5
:10040000FEE7FEE7FEE7FEE7FEE7FEE7FEE7FEE7C4
:10041000FEE7FEE7FEE7FEE7FEE7FEE7FEE7FEE7B4
:10042000FEE7FEE7FEE7FEE7FEE7FEE704480549D4
:10043000034A054B70470000D93F0000010200004D
:10044000A0020020A0060020A00200200FB41CB5CE
:10045000074B06AA7B4469460090059800F087FD8B
:100460000020694600F096FD1CBC5DF814FB0000FE
:100470003D0B000070B5044685690068C10601D5D2
:10048000302600E02026C00707D070BDD4E9012146
:1004900030469047206A401C20626D1EF6D570BD24
:1004A00070B5044685690078C00707D170BDD4E9EE
:1004B000012120209047206A401C20626D1EF6D545
:1004C00070BD09684A0501D540B27047C905FCD521
:1004D00000B2704709684A0501D5C0B27047C90526
:1004E000FCD580B2704770B50C460546012A05D090
:1004F0002878800600D5EA69002302E0012305E0A0
:100500005B1C934202D2E05C0028F9D1A869E6188E
:10051000C01AA861286A184428622846FFF7AAFF73
:1005200004E0D5E9012114F8010B9047B442F8D357
:100530002846FFF7B5FF70BD2DE9F04106460024BF
:1005400010687529314616A510D0FFF7BAFF0028AC
:1005500002DA404213A507E031688A0701D512A5E7
:1005600002E0490704D511A5012401E0FFF7B2FF1D
:1005700000210A2206F1240709E0B0FBF2FCB0FBDF
:10058000F2F302FB1C00303078541846491C002856
:10059000F3D123462A463046BDE8F04100F079BA4F
:1005A000000000002D0000002B00000020000000D3
:1005B0002DE9FF5F15468A460446DFF8AC80F84413
:1005C0000027D8E900103E46CDE9001010E03AF8C7
:1005D00016106A4602A800F00EFD411C07D02178D3
:1005E000890603D5E269391891420DD80744761C73
:1005F0002078800602D5E069B84205DDAE42E6DB30
:100600003AF816000028E2D1A069C01BA06120467C
:10061000FFF730FFD8E90010CDE90010002017E007
:100620003AF818106A4602A800F0E5FCB0F1FF3F66
:1006300081460BD000250DF1080B05E0D4E901211E
:100640001BF8050090476D1C4D45F7D308F10100DC
:10065000B0428046E4DB206A384420622046FFF73F
:100660001FFFBDE8FF9F0000EA4B000070B5044685
:1006700021461068FFF72EFF002104F1240505E054
:1006800000F007023032C0086A54491C0028F7D134
:100690002068002307A2050707D5800600D421B1F2
:1006A000E069012304A2401EE0612046BDE87040DD
:1006B00000F0EFB9000000003000000070B5044603
:1006C0000D4621461068FFF705FF2188090502D570
:1006D0000F4A7A4402E00E4A7A440E32002104F1B5
:1006E000240305E000F00F060009965D5E54491CE6
:1006F0000028F7D120780023000704D5702D02D000
:1007000009B1022311322046BDE8704000F0C1B9A2
:10071000DE4A00002DE9F05F894604464FF0000AEA
:10072000DFF874B1FB44C0F820A02046E168884798
:10073000002874D0252806D0D4E901219047206AEA
:10074000401C2062F1E700265F462046E1688847AA
:100750002028054607DB312D05D2781910F8200C2A
:1007600008B10643F1E7B00701D526F00406C4F846
:100770001CA00027C4F818A02A2D09D0284603F091
:100780004DFD38B304EB8708303DC8F8185019E028
:1007900059F8041B204604EB87029161E168884701
:1007A000012F054618D1E069002820DA26F020063E
:1007B0001DE0D8F8180000EB800005EB4000303851
:1007C000C8F818002046E1688847054603F026FD72
:1007D0000028EED1012F0AD02E2D08D12046E16845
:1007E00088477F1C0546022F46F02006C4DBA0691F
:1007F000002803DA404246F00106A061F00701D06C
:1008000026F010066C2D0BD0682D09D04C2D39D058
:100810006A2D35D0742D35D07A2D33D016E038E0DE
:10082000E1682F4620468847B842054609D16C2F1B
:1008300026D04FF48060E16806432046884705468D
:1008400004E06C2F1AD04FF4807006430DB3A5F16D
:100850004100192802D8203546F400664A46294648
:10086000204626604E46FFF705FD80B101280BD0DB
:10087000F61D26F0070000F1080956E74020E4E7DE
:100880008020D8E70020D6E706F104094DE7284686
:1008900052E7206ABDE8F09FB44A000040EA010335
:1008A00070B59B072ED14FF00136042A2AD308C811
:1008B00010C99D1B9D43121F15EAC61517D0D8B24B
:1008C000E1B2401A50EA056110D198B2A1B2401AC3
:1008D00050EA05410AD123F07F4024F07F41401ABD
:1008E00050EA052102D1180EA0EB146070BDA3429E
:1008F000DBD018BA21BA884201D9012070BD4FF06F
:10090000FF3070BD0AB9002070BD10F8013B11F82E
:10091000014B63B1A3420AD1521E08D010F8013B2B
:1009200011F8014B1BB1A34201D1521EEDD1181B8E
:1009300070BD431A28BF9A4240F27D83032A1044B7
:10094000114440F2268010F0030F1EBF11F8013D44
:10095000521E00F8013D10F0030F7FF4F6AF11F0C6
:10096000030300F0C083083AC0F00B8051F8043D47
:10097000083A51F804CD40F8043D40F804CDFFF7A3
:10098000F3BF121D5CBF51F8043D40F8043DAFF3C6
:100990000080D20724BF11F8013D11F801CD48BFF6
:1009A00011F8012C24BF00F8013D00F801CD48BF2B
:1009B00000F8012C704710B5044610F0030F08BF73
:1009C00011F0030F40F015804FF0013E121FC0F2EE
:1009D0000E8051F8043BA3EB0E0C2CEA030C1CEA2E
:1009E000CE1C08BF40F8043BF0D0A1F1040102F195
:1009F0000402521E08DB11F8013B002B00F8013BFA
:100A0000F7D1114600F099FB204610BD4FF0013C94
:100A100050F8042B51F8043B9A4221D1A2EB0C036D
:100A2000934313EACC1317D150F8042B51F8043B2D
:100A30009A4215D1A2EB0C03934313EACC130BD1CA
:100A400050F8042B51F8043B9A4209D1A2EB0C0355
:100A5000934313EACC13DBD04FF00000704700BF84
:100A6000D01A01BAB1FA81F101F0180122FA01F0AD
:100A7000CB40C1F12001DBB2C0B2C01A2CFA01F3A5
:100A8000D11A914311EAC311E6D1704770477047FC
:100A900070472DE9F0470D4699469246044600F10D
:100AA00024080168880604D5E06921F0100121605E
:100AB00000E00120A84201DD471B00E00027A169FA
:100AC0007A1902EB0900081AA0612078C00602D446
:100AD0002046FFF7CFFC002608E0D4E901211AF8F0
:100AE00006009047206A401C761C20624E45F4DBCD
:100AF0002078C0060AD52046FFF7BCFC06E0D4E902
:100B0000012130209047206A401C2062381EA7F146
:100B10000107F4DC07E0D4E9012118F8050090474B
:100B2000206A401C2062281EA5F10105F3DC204646
:100B3000FFF7B6FC2078000602D50220BDE8F0875A
:100B40000120FBE770472DE9FF4F0C461E464FF092
:100B5000FF378BB0D2E90001DDF860800A908A4649
:100B6000C1F30A5505B93D46002108464FF0000083
:100B7000BAF1000F00F4400005DA00EB80004FF4FA
:100B8000400101EA50004FEA9059B9F1010F00DD30
:100B9000B9460A9850EA4A000ED044F61050A5F221
:100BA000FF3545432F14B8F1000F1ED07542291EA2
:100BB0001EDDC9F100021CE0B8F1010F4FF000008A
:100BC00001D0302103E0F24305E02154401CB04243
:100BD000FBDB30460022002121540B99C1F808802C
:100BE000C1E900200FB0BDE8F08FBD1B6D1CDEE732
:100BF0004A4600DA694206A800F054FB06AB93E8C7
:100C0000070003AB83E8070050460A9900F04FFC49
:100C10008DE80700A0F500501F3800900398002DC4
:100C20000ADD42F21F014A460844002303A903904B
:100C3000684600F0B8FE09E0A0F500504A461F38AB
:100C4000002303A90390684600F0C2FE8DE8070068
:100C50000004000C03D04FF0FF30410800E01046C4
:100C6000B8F1000F03D00022009215461EE0751E59
:100C700005D400F091FA303262556D1EF9D5B346B5
:100C80000122084302D000227F1C04E02078302893
:100C900001D100227F1E002A099784D01DE0112D6A
:100CA00007DA00F079FA303262556D1C50EA010221
:100CB000F5D1084302D00098C8B10EE00021681EAB
:100CC00005E0235C625C63542254401E491C81424F
:100CD000F7DBAB46A81B401E0990002004F80B0070
:100CE0000B98099AC0F80880C0E9002B7AE7112612
:100CF0004FF0000857E72DE9F04F88460446D21D13
:100D000022F0070191B0D1E90001CDE90A0103F019
:100D10006DFA02460B98C00F01D02D2007E0206825
:100D2000810701D52B2002E0202101EAC000032A1F
:100D3000099001D0072A05DB03464146204600F012
:100D400071FA0BE12078800601D5E06900E0062009
:100D5000B8F1650F814606D0B8F1660F18D0B8F12A
:100D6000670F70D131E00020B9F1110F009001DB65
:100D7000112301E009F101030AAA01A90CA8FFF758
:100D8000E2FEDDE90C70002609F10105834647E02B
:100D900001204B4600904FF000470AAA01A90CA879
:100DA000FFF7D1FEDDE90DB00C995D46002610B9C4
:100DB00009F101000D18B9EB050003D4C0F1FF36AD
:100DC00009F10105A5EB09002BE0B9F1010F01DAEA
:100DD0004FF001090020B9F1110F0090484601DDE4
:100DE000112300E003460AAA01A90CA8FFF7ABFEF5
:100DF000DDE90C704D4600268346207800070AD4B2
:100E0000AB4500DA5D4601A8012D04DD411911F85A
:100E1000011C302907D04F4502DA17F1040F04DA1C
:100E2000012082460FE06D1EEEE7002F02DCED1B75
:100E30003E4403E0781CA84200DD7D1CB81B00F195
:100E4000010A4FF000472078000703D4AA4501DBD0
:100E50004FF0FF3A0021B7F1004F0DF143088DF834
:100E6000431024D002202B23002F01DA7F422D23B0
:100E70000A21021EA0F1010000DC5FB197FBF1FC2A
:100E800097FBF1F201FB1C7C17460CF1300C08F8C3
:100E900001CDEEE7A8F1010003702188090501D515
:100EA000452100E06521A0F1010800F8011C099826
:100EB0000FA9A1EB0807FF1D00B10120411901EBAB
:100EC000EA70A1693844081A401EA0612078C00663
:100ED00002D42046FFF7CEFA099828B1D4E90121BF
:100EE0009047206A401C20622078C00622D5204608
:100EF000FFF7C0FA1EE0002E04DBB34502DD01A8B7
:100F0000805D00E03020D4E901219047206A401C38
:100F10002062761CAAF101005FEA000A0AD100F003
:100F200037F9C0680168405CD4E901219047206A24
:100F3000401C2062281EA5F10105DCDC07E0D4E995
:100F4000012118F8010B9047206A401C2062381ECE
:100F5000A7F10107F3DC2046FFF7A2FA032011B046
:100F600041E6000001694A1C02610878704700B53B
:100F70008FB0CDE901310021059105497944CDE9D2
:100F8000031011466846FFF7C5FB0FB000BD000017
:100F9000E5FFFFFF0A6802F8010B0A60704710B511
:100FA000436913B1AFF3008001E0FFF79CFA012021
:100FB00010BD127800F124010A7000224A7001224B
:100FC000EDE711684FF0FF32E9E710B5436913B15F
:100FD000AFF3008001E0FFF7EBFA012010BD1288AB
:100FE00000F1240182840022C2840122EDE711680D
:100FF0004FF0FF32E9E770B516460C46054600F0A3
:10100000BFF8036893F80101012806D0FF2C0FD820
:10101000185D68B101202C7070BDD3F8070132460D
:10102000214603F2071303442846BDE870401847E1
:101030004FF0FF3070BD032A40F2308010F0030CF7
:1010400000F0158011F8013BBCF1020F624498BF1B
:1010500011F801CB00F8013B38BF11F8013BA2F1B8
:10106000040298BF00F801CB38BF00F8013B11F033
:10107000030300F08981083AC0F0088051F8043B6E
:10108000083A51F804CBA0E80810F5E7121D5CBF40
:1010900051F8043B40F8043BAFF30080D20724BF73
:1010A00011F8013B11F801CB48BF11F8012B24BF07
:1010B00000F8013B00F801CB48BF00F8012B704756
:1010C000431A28BF9A4240F25F81104410F0030F88
:1010D00011441EBF11F8013D521E00F8013D10F0F1
:1010E000030F7FF4F6AF103AC0F00A8010B531E973
:1010F0001850103A20E91850BFF4F9AFBDE810407D
:10110000530724BF31E9081020E9081044BF51F803
:10111000043D40F8043D12F0030F08BF7047D207AA
:1011200028BF31F8023D48BF11F8012C28BF20F834
:10113000023D48BF00F8012C70474FF0000204291F
:10114000C0F0128010F0030C00F05281CCF1040CBE
:10115000BCF1020F18BF00F8012BA8BF20F8022B2A
:10116000A1EB0C0100F044B95FEAC17C24BF00F898
:10117000012B00F8012B48BF00F8012B704700003D
:1011800010B500F005F8001D10BD00BF713900005A
:10119000004870475C02002030B5B0F10A024FEA07
:1011A000900E71F100034EEA817EB0EB0E0061EB10
:1011B00091014FEA101E4EEA017E10EB0E0041EB4A
:1011C00011114FEA102E4EEA016E10EB0E0041EBAA
:1011D00011214FEA104E4EEA014E10EB0E0041EB8A
:1011E0001141401841F100014FEAD00040EA41703E
:1011F0004FEAD10110EB80054FEA810444EA907474
:1012000044EB01046D1944EB0404521BA3414FF05D
:10121000000348BF0A3200D530BD401C41F1000137
:1012200030BD00002DE9F0411F4604460326016849
:10123000072A01F4006004DB08B116A505E016A535
:1012400003E008B115A500E015A521F0100020600D
:10125000A069C01EA0610FB1401EA0612046FFF72B
:1012600009F94FB1D4E9012138469047206A401C62
:101270002062C01C206206E0206AFAE7D4E901215E
:1012800015F8010B9047761EF8D22046FFF708F9B3
:10129000BDE8F0814E414E006E616E00494E460041
:1012A000696E66002DE9F047814616468AB03548DA
:1012B00078440DC88DE80D0032487844801C03AC9A
:1012C0000DC884E80D0041F69B300844372190FB9F
:1012D000F1F290FBF1F5A5F1800501FB12041B3C36
:1012E00002D56442012000E00020DFF898A080468B
:1012F0000027FA44AAF1BE0A0EE0E0070AD03246FF
:10130000684607EB470101230AEB810100F060FB0F
:101310008DE8070064107F1C002CEED1194F7F442C
:10132000AE3F19E0E80715D007EB04100DF1180ADD
:1013300090E80E008AE80E00C068F04201D19819CA
:1013400008903246012306A903A800F041FB03AB35
:1013500083E807006D10641C002DE3D14FF00103FA
:1013600032466946B8F1000F03A802D000F01BFB1B
:1013700001E000F02DFBC9E90001C9F808200AB01E
:10138000BDE8F087B83F000010B5203AC0F00B80F0
:10139000B1E81850203AA0E81850B1E81850A0E879
:1013A0001850BFF4F5AF5FEA027C24BFB1E81850D3
:1013B000A0E8185044BF18C918C0BDE810405FEA43
:1013C000827C24BF51F8043B40F8043B08BF7047BF
:1013D000D20728BF31F8023B48BF11F8012B28BFC4
:1013E00020F8023B48BF00F8012B70474FF0000285
:1013F00000B5134694469646203922BFA0E80C500B
:10140000A0E80C50B1F12001BFF4F7AF090728BFE5
:10141000A0E80C5048BF0CC05DF804EB890028BF61
:1014200040F8042B08BF704748BF20F8022B11F08A
:10143000804F18BF00F8012B70470000004870472C
:101440003C0200207546FFF7F9FFAE4605006946ED
:10145000534620F00700854618B020B5FEF7E6FF9A
:10146000BDE820404FF000064FF000074FF00008A5
:101470004FF0000B21F00701AC46ACE8C009ACE826
:10148000C009ACE8C009ACE8C0098D46704710B58A
:101490000446AFF300802046BDE81040FEF726BFAB
:1014A00001491820ABBEFEE72600020070475FEA44
:1014B000400C08BF91F0000F4FEA8C234FEAC12285
:1014C00043EA51514FEA1C5018BF00F5F0404FEA73
:1014D000300018BF41F000415FEA6C5C00F02980E9
:1014E000BCF1FF3F08BF40F080407047130C06BFBF
:1014F00012044FF0100C4FF0000C130E04BF120238
:101500000CF1080C130F04BF12010CF1040C930F23
:1015100004BF92000CF1020CD30F04BF52000CF177
:10152000010C11464FF00002A0F11F00A0EB0C00CF
:10153000704711F0004F08BF704731F000413FF491
:10154000D5AF0B0C06BF09044FF0100C4FF0000C88
:101550000B0E04BF09020CF1080C0B0F04BF0901AC
:101560000CF1040C8B0F04BF89000CF1020CCB0FA3
:1015700004BF49000CF1010CCCF12003A0EB0C00DE
:1015800022FA03F302FA0CF241EA030100F101002E
:10159000704720F07F4C80EA030023F07F47ACEBDC
:1015A000070303F57C5300F0004003F1FF032DE92E
:1015B00080494FEA154B09B44FEA144325EA0B4E14
:1015C00024EA03480FF2042606EB132749083E7865
:1015D0005FEA320203FB0667C7F5000707FB06F662
:1015E0004FEA54374FEAD64606F1020607FB066C6F
:1015F000CCF1005C4FEA1C472CEA074C07FB06F4D1
:101600000CFB06F504EB15464FEA961634BF002096
:101610004FF000404FEAD13706FB07FC4FEA1C4C65
:101620000CFB0BF7D21B03FB0CF761EB07010CFB68
:101630000EF7B0EB074072EB17420CFB08F734BF14
:10164000A2EB0742B2EB074261EB17414FEA0C44B1
:101650004FEA910706FB07FC4FEA1C4C0CFB0BF70B
:10166000B0EBC74072EB573203FB0CF734BFA2EB71
:10167000C742B2EBC74261EB57310CFB0EF7B0EB40
:10168000C70072EB57720CFB08F734BFA2EBC7021E
:10169000B2EBC70261EB5771039F4FEA816141EAE8
:1016A000921104EBCC044FEAD1374FEA826206FB79
:1016B00007FC42EA90124FEA80604FEA1C4C0CFB98
:1016C0000BF7D21B03FB0CF761EB07010CFB0EF7CA
:1016D000B0EB074072EB17420CFB08F734BFA2EBEC
:1016E0000742B2EB074261EB17414FEA8C554FEAD4
:1016F000910704EB9C2406FB07FC4FEA1C4C0CFBF7
:101700000BF7B0EBC74072EB573203FB0CF734BF5B
:10171000A2EBC742B2EBC74261EB57310CFB0EF7AD
:10172000B0EBC70072EB57720CFB08F734BFA2EBAB
:10173000C702B2EBC70261EB577115EB4C254FEABC
:10174000816141EA92114FEA82624FEAD13742EA5F
:10175000901206FB07FC44F100044FEA80604FEA58
:101760001C4C0CFB0BF7D21B03FB0CF761EB0701C6
:101770000CFB0EF7B0EB074072EB17420CFB08F7BF
:1017800034BFA2EB0742B2EB074261EB174115EB06
:101790001C154FEA813141EA92414FEA823242EA16
:1017A00090424FEA80304FEA0C7644F1000448EA58
:1017B00003434EEA0B484FF0000EB2EB080C71EBFE
:1017C000030724BF624639464EEB0E0E4FF0000B66
:1017D0000018524149414BEB0B0BB2EB080C71EB7B
:1017E00003077BF1000B24BF624639464EEB0E0E19
:1017F0004FF0000B0018524149414BEB0B0BB2EB81
:10180000080C71EB03077BF1000B24BF62463946DD
:101810004EEB0E0E51EA020718BF46F0010616EB1A
:101820000E7655F1000254F1000103D5BDE889019F
:10183000BDE80088BDE88901BDE80048B6195241FD
:1018400041EB0101A3F10103704780807F7E7D7C25
:101850007B7A7978777676757473727171706F6E42
:101860006E6D6C6C6B6A6A696868676666656464ED
:10187000636362616160605F5F5E5E5D5D5C5C5B77
:101880005B5A5A59595858575756565555555454E6
:10189000535352525251515050504F4F4F4E4E4D44
:1018A0004D4D4C4C4C4B4B4B4A4A4A494949484890
:1018B00048474747474646464545454444444443D0
:1018C00043434342424242414141002B9C4630D473
:1018D00077002BD01CB54FEA370703B44FF0100048
:1018E0004FF01001BAF1000F06D0BCF1000FDCBFC1
:1018F00040F0080040F008014FF000000FBCBDE8C8
:1019000010400BF1010BBBF1010F08BF5FEA170795
:1019100022BF12F1010211F101014FF0004143F128
:10192000000300F0004043EA00007047F9D3570875
:10193000D0E746EA064613F1400F4FEA16461FDD90
:1019400013F1200FDFBF16430A46002120335B420C
:10195000BED0C3F1200746EA064602FA07F74FEA6F
:10196000164646EA0706C3F1200722FA03F201FAF7
:1019700007F721FA03F14FF0000342EA0702A7E755
:1019800046EA020646EA06464FEA164646EA0106D7
:10199000BCBF46EA0646360C4FF000034FF000028B
:1019A0004FF0000194E72DE9804C9A46934670B4BD
:1019B00091E8380007C831EA400C48BF34EA430CCC
:1019C00003D5FFF7E6FDFFF780FFF0BCBDE8008C14
:1019D0002DE9804C9A46934670B491E8380007C8C8
:1019E00010F0804F08BF13F0804F03D100F005F8CE
:1019F000FFF76BFFF0BCBDE8008C20F07F4780EA6A
:101A0000030023F07F4C07EB0C03A3F57C5300F09D
:101A10000040A3F1FE0392F0000F00F0B38095F0B8
:101A2000000F00F077802DE901494FEA11404FEA9D
:101A3000144621EA004800FB06FC24EA064708FB9E
:101A400006F607FB08F800FB07F718EB06484CEB17
:101A5000164C4FEA124B18EB07484FEA15464CEB71
:101A6000174022EA0B4E0BFB06FC25EA06470EFB4D
:101A700006F607FB0EFE0BFB07F71EEB064E4CEBC4
:101A8000164C4FF000061EEB074E4CEB174B18EBB5
:101A90000B0840F1000018EB0E0B58EB000840F16A
:101AA00000008F1A4FF000013CBFC943661B14BFF2
:101AB000B5EB040C00213CBFC943F61B4FEA1744A9
:101AC0004EEA8E0E27EA04454FEA1C4704FB0762E4
:101AD0002CEA074C05FB07F70CFB05F604FB0CFC96
:101AE00016EB074642EB174216EB0C4642EB1C4244
:101AF0001BEB060658EB0202414146EA9E0601D561
:101B0000BDE80189B619524141EB0101A3F101037E
:101B1000BDE801894FEA14454FEA114724EA05461A
:101B200021EA074C05FB07F406FB07F70CFB06F15F
:101B300005FB0CFC11EB074144EB17444FEA12473D
:101B400011EB0C4144EB1C4422EA074C05FB07F265
:101B500006FB07F70CFB06F605FB0CFC16EB07462D
:101B600042EB174216EB0C4642EB1C456A1854F147
:101B7000000148BF7047B619524141EB0101A3F182
:101B80000103704795F0000F37D04FEA11424FEA3A
:101B9000144721EA024624EA074C02FB07F106FB40
:101BA00007F70CFB06F402FB0CFC14EB074441EBBB
:101BB00017414FEA154714EB0C4441EB1C4125EA51
:101BC000074C02FB07F506FB07F70CFB06F602FBCA
:101BD0000CFC16EB074645EB174516EB0C4645EBA0
:101BE0001C42121951F1000148BF7047B619524109
:101BF00041EB0101A3F1010370474FEA14454FEA9D
:101C0000114724EA054621EA074C05FB07F106FBCC
:101C100007F70CFB06F24FF0000605FB0CFC12EB7D
:101C2000074241EB174112EB0C4251EB1C4148BFFC
:101C30007047921841EB0101A3F1010370470122A3
:101C400002FA01F1C160704732B1C0684FF0011271
:101C500002FA01F108407047406801228A4042F4CC
:101C60008032104010F4803F08BF704740F470206D
:101C70004FF4803202FA01F1884370470A4601F0BE
:101C80000F0101236FF30F0203FA01F11143826A7E
:101C900011438162704730B4446989004FF00F0CE2
:101CA0000CFA01FC02F00F0524EA0C048D402C43D1
:101CB0004461046A03F0030324EA0C0C03FA01F103
:101CC0004CEA0101016202F00F018B1F032B84BF5C
:101CD00030BC7047C900C3694FF0300C30390CFA82
:101CE00001FC02F0300223EA0C0302FA01F119436D
:101CF000C16130BC704700EB411000F14001002091
:101D000003E08B6842F8043B401CCB6813F4807FEF
:101D100018BF70470828F4D370470268012303FAFC
:101D200001F111430160704710B400EB41109100C4
:101D300050F840CF0F228A4003F00F042CEA020C27
:101D40008C404CEA040CC0F800C0D0F818C0C3F3B3
:101D500003242CEA020C8C404CEA040CC0F818C096
:101D6000D0F804C0C3F303142CEA020C8C404CEAF4
:101D7000040CC0F804C0D0F81CC0C3F303542CEA10
:101D8000020C8C404CEA040CC0F81CC013F4702FF9
:101D90004FF001040DD0D0F814C0C3F302432CEA75
:101DA00002028B401A434261026904FA01F11143B5
:101DB00004E0026904FA01F122EA0101016110BCA8
:101DC0007047000010B50F4801F096FE00BF0D48A7
:101DD00001F0A6FE0028FAD000231A4603210A4883
:101DE000FFF759FF6023002203210748FFF79CFFFC
:101DF00004200549BC31086003210348FFF78DFF2B
:101E000010BD0000003800F00080034070B501F004
:101E1000C9FD054640F20B20B5FBF0F0441E124808
:101E200001F06AFE114801F067FE2021104800F021
:101E3000D3F9104800F076F900224FF480710E4873
:101E400000F0E8FB22464FF480710B4800F0FAFBEB
:101E5000620840F20711084800F005FC4FF4807159
:101E6000054800F0EAFB70BD004000F0090800F0F2
:101E700000100640061409000080024010B500243E
:101E800010E00120A040C2B20621222000F000FA9A
:101E90000649087000220521222000F0F9F90349C3
:101EA0000870641C082CECDB10BD00000000002052
:101EB00010B500228021034800F0CDFB002002492C
:101EC000087010BD008002408E00002010B5012275
:101ED0008021024800F0BFFB10BD000000800240DE
:101EE00070B504460D4604F0010040B9234800785F
:101EF00000F0010018B1FFF7DBFF002070BD04F017
:101F0000020040B91D48007800F0020018B1FFF748
:101F1000CFFF0120F2E704F0800040B917480078B5
:101F200000F0800018B1FFF7C3FF0220E6E704F0DD
:101F3000400040B91148007800F0400018B1FFF7A8
:101F4000B7FF0320DAE704F0200040B90B4800781F
:101F500000F0200018B1FFF7ABFF0420CEE704F03B
:101F6000100040B90548007800F0100018B1FFF7E4
:101F70009FFF2846C2E72846C0E700004A0000202D
:101F8000002100E0491C8142FCD3704710B52DEDC3
:101F9000048BB0EE408A18EE100A02F0CBFD41EC43
:101FA000190B53EC192B04A10548FEF74FFA04480E
:101FB000BDEC048B10BD0000252E3466000000002F
:101FC000BC010020D0F8003412F0010F14BF0B4305
:101FD0008B43C0F8003412F0020FD0F8202414BF55
:101FE000114322EA0101C0F8201470472DE9F003E3
:101FF00001264FF0000C0325C2F3411706FA0CF43A
:102000000C4211D0D0F8C48F4FEA4C0405FA04F901
:1020100028EA0908C0F8C48FD0F8C48F07FA04F47E
:1020200048EA0404C0F8C44F0CF1010C0CF0FF0C9A
:10203000BCF1080FE2D3D0F800C512F0010F14BFB5
:102040004CEA010C2CEA010CC0F800C5D0F804C51C
:1020500012F0020F14BF4CEA010C2CEA010CC0F87C
:1020600004C5D0F808C512F0040F14BF4CEA010CE7
:102070002CEA010CC0F808C5D0F818C512F0080FFA
:1020800014BF4CEA010C2CEA010CC0F818C512F080
:10209000100FD0F83C2514BF0A438A43C0F83C25F2
:1020A000D0F80C2513F0010F14BF0A438A43C0F87F
:1020B0000C25D0F8102513F0020F14BF0A438A43F1
:1020C000C0F81025D0F8142513F0040F14BF0A43EC
:1020D0008A43C0F81425D0F81C2513F0080F14BF4C
:1020E0000A438A43C0F81C25D0F8442513F4007F26
:1020F00014BF0A438A43C0F84425D0F8402513F49E
:10210000407F14BF0A438A43C0F84025D0F82825F1
:10211000002B0CBF114322EA0101C0F82815BDE8CD
:10212000F00370470E4AC0F30741D26E01238B4083
:102130001A420C4A1ABF02EBC101496852F8311029
:10214000020AD1F82C354FF00F0C0CFA02FC00F00B
:102150000F0023EA0C0390401843C1F82C05704788
:1021600000E00F40BC4D000030B50C460546002293
:10217000FFF728FF21462846BDE83040082301220A
:10218000FFF734BF30B50C46054608230122FFF7A0
:102190002DFF21462846BDE830400122FFF712BF3F
:1021A00030B50C4605460222FFF70CFF21462846B3
:1021B000BDE8304009230122FFF718BF30B50C46B7
:1021C00005460222FFF7FEFE21462846BDE83040C4
:1021D00008230122FFF70ABF30B50C46054602224C
:1021E000FFF7F0FE21462846BDE8304008230122D3
:1021F000FFF7FCBE30B50C4605460222FFF7E2FEB3
:1022000021462846BDE8304008230122FFF7EEBEF4
:102210002DE9F04104460E4600BF1C4800F078F856
:102220000028FAD100222146184800F0B9F83146BA
:10223000164800F077F80721144800F06FF800BF47
:10224000124800F05FF80028FAD1104800F071F849
:10225000C7B26420FFF794FE012221460B4800F02C
:102260009FF80721094800F059F800BF074800F01F
:1022700049F80028FAD1054800F052F8C5B26420A8
:10228000FFF77EFE2846BDE8F08100000000024016
:102290002DE9F04104460F46154600BF184800F0EE
:1022A00037F80028FAD100222146154800F078F8C6
:1022B0003946134800F036F80321114800F02EF893
:1022C00000BF0F4800F024F80028FAD10C4800F0B5
:1022D00030F8C6B229460A4800F024F8052108481B
:1022E00000F01CF800BF064800F012F80028FAD1F0
:1022F000034800F01EF8C6B23046BDE8F081000089
:1023000000000240406810F0400018BF01207047F4
:10231000406810F0010018BF01207047416070470D
:102320008068704781607047016A41F01001016266
:102330007047406810F0010F05D110F0120F1CBF5C
:1023400000F01C007047002070470000036A43F053
:1023500010030362002A14BF0E4A0F4A02EB8203E5
:1023600001EB830302EB820292005B1EB3FBF2F2ED
:10237000521EC260D0F8C02F12F0010F08BF704784
:10238000064A1144521CB1FBF2F1491E41F0800192
:10239000C1607047801A0600A08601007F473701A0
:1023A00042EA4101016070471649042804BF0868E9
:1023B00040F4803018D0052804BF086840F400308D
:1023C00012D0062812D00F2815D0102838BF704719
:1023D000103800F01F01012202FA01F142090A48F7
:1023E00050F822000160704708607047086840F4A8
:1023F0008020086070474FF0E020016941F0020141
:102400000161704724ED00E0084F000010B5FDF7B2
:1024100073FF002818BF012010BD10B5FDF773FF32
:10242000002818BF012010BD054A20F003015158B3
:1024300009688007C00E21FA00F0C0B270470000A2
:102440006C4E000006480068064A00F4E061002077
:1024500052F820308B421CBF401C0828F8D370472C
:102460000CED00E04C4E0000044951F820000449F6
:1024700040F0FD7040F08060086070474C4E0000F6
:102480000CED00E0FDF748BF084A20F00303D258E6
:1024900013688007C00E4FF0FF0C0CFA00FC23EA13
:1024A0000C0301FA00F01843106070476C4E0000F6
:1024B00033B5BDF804202A4B1B7843BB03210AE047
:1024C0000A2392FBF3F403FB142343540A2392FBE5
:1024D000F3F39AB2491E0029F2DA9DF806300A2475
:1024E00093FBF4F303719DF8063093FBF4F504FBC2
:1024F000153343719DF8073093FBF4F383719DF816
:10250000073093FBF4F504FB1533C37127E0042176
:102510000AE00A2392FBF3F403FB142343540A2337
:1025200092FBF3F39AB2491C0729F2DD9DF80630BD
:102530000A2493FBF4F383709DF8063093FBF4F5C3
:1025400004FB1533C3709DF8073093FBF4F303705D
:102550009DF8073093FBF4F504FB153343703CBD45
:102560008F00002003B52A49097841BB9DF804106B
:102570000A2291FBF2F101709DF8041091FBF2F335
:1025800002FB131141709DF8051091FBF2F181706F
:102590009DF8051091FBF2F302FB1311C1709DF839
:1025A000061091FBF2F101719DF8061091FBF2F318
:1025B00002FB131141712421C171817127E09DF843
:1025C00004100A2291FBF2F1C1719DF8041091FBF5
:1025D000F2F302FB131181719DF8051091FBF2F1EA
:1025E00041719DF8051091FBF2F302FB131101718B
:1025F0009DF8061091FBF2F1C1709DF8061091FB59
:10260000F2F302FB131181702421417001700CBDA3
:102610008F000020084401686FF3520111430160EC
:1026200012F0020F14BFB0218C21016214BF4FF4CD
:10263000306140F60C0141627047425842F001029D
:10264000425070470844016811F0020F14BF51084E
:10265000511E01617047002A826814BF114322EAAB
:1026600001018160704721F03F031844036813F0B3
:10267000020F18BF520803699A1A11F0010F14BF14
:10268000C2618261704700007FB522A103C9CDE914
:10269000020122A103C9CDE90001002404E0214880
:1026A000005D21490855641C082CF8DB00241BE060
:1026B000002201211820FFF7EBFD1C4908700025BE
:1026C00003E002A800F022FF6D1C142DF9DBFF22AD
:1026D00001211820FFF7DCFD14490870FFF7CEFB3D
:1026E0001348FFF74DFC641C032CE1DB00240DE0D4
:1026F000002503E0684600F009FF6D1C142DF9DB8E
:10270000FFF7BCFB0A48FFF73BFC641C032CEFDB24
:102710007FBD0000040209010000010620231124EE
:10272000242424246E0000204B0000200000002000
:1027300000350C0070B50446204601F031FDFDA0C7
:1027400001F02EFD0522FCA12046FEF7A7F8002887
:1027500078D10422FAA1601DFEF7A0F8002872D1FA
:10276000F9A104F10900FEF751F940B9F8490888C8
:10277000F8A101F023FD054601F012FD94E2F7A156
:1027800004F10900FEF742F940B9F1498878F1A156
:1027900001F020FD054601F003FDEFE7E8A104F19B
:1027A0000900FEF733F940B9E949C878E9A101F019
:1027B00011FD054601F0F4FCE0E7EAA104F109008F
:1027C000FEF724F980B9E2490888E9A101F0F6FC96
:1027D000054601F0E5FCDE498878DEA101F0FAFC4F
:1027E000054601F0DDFCC9E7E2A104F10900FEF7AE
:1027F0000DF980B9D6498878DDA101F0EBFC0546DA
:1028000001F0CEFCD249C878D2A101F0E3FC054624
:1028100001F0C6FCB2E7DAA104F10900FEF7F6F810
:1028200090B9CB490888D2A101F0C8FC054601F057
:10283000B7FCC749C878C7A101F0CCFC054601F038
:10284000AFFC9BE741E11FE0D0A104F10900FEF7D6
:10285000DDF8002892D1BE490888C5A101F0AEFC80
:10286000054601F09DFCBA498878C1A101F0B2FC8F
:10287000054601F095FCB649C878B6A101F0AAFC5E
:10288000054601F08DFC79E70422C4A1601DFEF726
:1028900005F800287ED10A22C2A104F10900FDF743
:1028A000FDFF30B11022C2A104F10900FDF7F6FFCF
:1028B000C0B9C4490878AEA101F08CFC054601F00E
:1028C0006FFCC0494878AAA101F084FC054601F0DC
:1028D00067FCBC4988789FA101F07CFC054601F0AB
:1028E0005FFC4BE70722B8A104F10900FDF7D6FF12
:1028F00030B10A22B6A104F10900FDF7CFFF80B97B
:10290000B04908789AA101F065FC054601F048FC41
:10291000AC4948788FA101F05DFC054601F040FC10
:102920002CE70622A0A104F10900FDF7B7FF30B1A2
:102930000922AAA104F10900FDF7B0FF80B9A1495D
:1029400048788BA101F046FC054601F029FC9D4921
:10295000887880A101F03EFC054601F021FC0DE7DE
:102960000722A1A104F10900FDF798FF30B10A2266
:102970009FA104F10900FDF791FF90B991490878F2
:102980007BA101F027FC054601F00AFC8D498878FF
:1029900070A100E043E001F01DFC054601F000FCE1
:1029A000ECE696A104F10900FEF730F840B985493C
:1029B000087868A101F00EFC054601F0F1FBDDE6A8
:1029C000032282A104F10900FDF768FF30B106225D
:1029D00080A104F10900FDF761FF40B97949487809
:1029E0005CA101F0F7FB054601F0DAFBC6E6032225
:1029F0007EA104F10900FDF751FF38B106227DA147
:102A000004F10900FDF74AFF002889D16D49887853
:102A100050A101F0DFFB054601F0C2FBAEE6052246
:102A200078A1601DFDF73AFFC0B97849087850A138
:102A300001F0D0FB054601F0B3FB744948784CA186
:102A400001F0C8FB054601F0ABFB7049887841A155
:102A500001F0C0FB054601F0A3FB8FE607226CA145
:102A6000601DFDF71BFF50B96B48007818B16BA0D3
:102A700001F096FB82E66BA001F092FB7EE6062257
:102A80006AA1601DFDF70AFF50B96A48007818B1C5
:102A900069A001F085FB71E66DA001F081FB03E107
:102AA000042271A1601DFDF7F9FE002887D101F015
:102AB000BDFB6F4890ED000AFFF768FA054601F08C
:102AC0006FFB6CA001F06CFBEEE005226BA12046D1
:102AD000FDF7E4FE00282CD107224DA1601DFDF773
:102AE000DDFEA0B967A104F10C00FDF78FFF18B956
:102AF000002049490870D7E063A104F10C00FDF7FC
:102B000085FF00288AD1012043490870CCE00622C5
:102B100046A1601DFDF7C2FE48B95CA104F10B009F
:102B2000FDF774FF20B9002042490870F9E3BCE0CA
:102B3000B0E0D3E30D0A00002A4745543A000000F4
:102B40004441544500000000594541520000000036
:102B50005A00002025750D0A000000004D4F4E540C
:102B600048000000594541524D4F4E544800000066
:102B7000257520004D4F4E544844415445000000F7
:102B800059454152444154450000000059454152C5
:102B90004D4F4E54484441544500000054494D4562
:102BA00000000000484F55524D494E534543000028
:102BB000484F55524D494E5554455345434F4E4449
:102BC0000000000053000020484F55524D494E0070
:102BD000484F55524D494E55544500004D494E53AE
:102BE00045434F4E44000000484F55525345430063
:102BF000484F55525345434F4E440000484F55529D
:102C000000000000414C41524D00000068000020CF
:102C1000444953504C415900900000204F46460D06
:102C20000A0000004F4E0D0A00000000464F524DB2
:102C3000415400008F00002046524F4D205249471A
:102C4000485420544F204C4546540D0A00000000C3
:102C500046524F4D204C45465420544F2052494730
:102C600048540D0A0000000054454D50000000007B
:102C70009C00002020430D0A000000002A53455408
:102C80003A0000004F4E00004F4646004C45465467
:102C900000000000FAA104F10B00FDF7B7FE0028C8
:102CA00002D10120F84908703BE3F8480078012878
:102CB00003D0F7A001F074FA33E30422AFF28011DD
:102CC000601DFDF7EBFD00287DD1FE48007818B1AE
:102CD000FDA001F065FA24E30422AFF2941104F19F
:102CE0000900FDF7DBFDC8B9607B30384FF47A711D
:102CF00010FB01F1A07B303800EBC00202EB0010AA
:102D000001EB8001E07B303800EB800001EB4001FB
:102D1000207C30380844F949088024E00522AFF2CD
:102D2000C41104F10900FDF7B9FD50B9E07B30385A
:102D3000A17B303901EB810100EB4100EF49887044
:102D400011E00422AFF2082104F10900FDF7A6FD0D
:102D500048B9A07B3038617B303901EB810100EB51
:102D60004100E649C8700922AFF2082104F10900C8
:102D7000FDF794FD40BBA07C30384FF47A7110FB16
:102D800001F1E07C303800EBC00202EB001001EBF7
:102D90008001207D303800EB800001EB4001607D38
:102DA00030380844D54908800888AFF2582101F02E
:102DB00005FA054601F0F4F9E07D3038A17D30399F
:102DC00001EB810101E084E004E000EB4100CB492C
:102DD000887047E00922AFF2642104F10900FDF791
:102DE0005DFDA0B9E07C3038A17C303901EB810178
:102DF00000EB4100C1498870607D3038217D303959
:102E000001EB810100EB4100BC49C8702AE00822B7
:102E1000AFF2942104F10900FDF740FD10BB607C86
:102E200030384FF47A7110FB01F1A07C303800EBA0
:102E3000C00202EB001001EB8001E07C303800EBB7
:102E4000800001EB4001207D30380844AB49088008
:102E5000A07D3038617D303901EB810100EB41000C
:102E6000A649C8700D22AFF2DC2104F10900FDF77C
:102E700015FD00282CD1A07D30384FF47A7110FB5D
:102E800001F1E07D303800EBC00202EB001001EBF5
:102E90008001207E303800EB800001EB4001607E35
:102EA0003038084495490880E07E3038A17E3039BA
:102EB00001EB810100EB410090498870607F303860
:102EC000217F303901EB810100EB41008B49C87053
:102ED00027E20422AFF23C31601DFDF7DFFC002841
:102EE00079D178480078012803D085A001F058F9FD
:102EF00017E20422AFF2FC2104F10900FDF7CEFC39
:102F000050B9A07B3038617B303901EB810100EB97
:102F100041008849087024E00322AFF2503104F1E7
:102F20000900FDF7BBFC50B9607B3038217B30399C
:102F300001EB810100EB41007E49487011E0032262
:102F4000AFF2583104F10900FDF7A8FC48B9607BE5
:102F50003038217B303901EB810100EB41007549AC
:102F600088700722AFF2A03104F10900FDF796FC4A
:102F7000A0B9607C3038217C303901EB810100EB55
:102F800041006C490870E07C3038A17C303901EB9D
:102F9000810100EB41006749487039E00622AFF239
:102FA000F83104F10900FDF779FCA8B9207C30382C
:102FB000E17B303901EB810100EB41005D49487054
:102FC000A07C3038617C303901EB810100EB41009D
:102FD000584988701CE043E00722AFF2F43104F155
:102FE0000900FDF75BFC98B9607C3038217C3039F2
:102FF00001EB810100EB41004E490870E07C303864
:10300000A17C303901EB810100EB41004949887016
:103010000A22AFF2704104F10900FDF73FFC0028DD
:103020001DD1207D3038E17C303901EB810100EB8E
:10303000410040490870A07D3038617D303901EB96
:10304000810100EB41003B494870207E3038E17D32
:10305000303901EB810100EB41003649887060E1B5
:103060000522AFF26041601DFDF718FC0028F6D183
:103070001448007803287CD02FA001F091F850E18B
:1030800052494748540000008F00002048000020AB
:103090000D0A50726573732053573220746F20737A
:1030A000776974636820746F205345545F56414CB0
:1030B00055452073746174652066697273742121AB
:1030C000210D0A00470000200D0A5072657373201D
:1030D00053573120746F2073776974636820746F5D
:1030E000204D4F44455F44415445206D6F64652039
:1030F00066697273742121210D0A00005A000020B4
:103100000D0A50726573732053573120746F20730A
:10311000776974636820746F204D4F44455F54494C
:103120004D45206D6F64652066697273742121219D
:103130000D0A0000530000200D0A507265737320C1
:1031400053573120746F2073776974636820746FEC
:10315000204D4F44455F414C41524D32206D6F64CC
:10316000652066697273742121210D0A0000000038
:10317000FFE70422AFF27C5104F10A00FDF78EFB59
:1031800050B9E07B3038A17B303901EB810100EB95
:1031900041006449087024E00322AFF2D05104F1E9
:1031A0000A00FDF77BFB50B9A07B3038617B3039DA
:1031B00001EB810100EB41005A49487011E0032204
:1031C000AFF2D85104F10A00FDF768FB48B9207B43
:1031D0003038617B303901EB810100EB410051490E
:1031E00088700722AFF2206104F10A00FDF756FB58
:1031F000A0B9A07C3038617C303901EB810100EB53
:10320000410048490870207D3038E17C303901EBBD
:10321000810100EB41004349487038E00622AFF2DB
:10322000786104F10A00FDF739FBA0B9607C303801
:10323000217C303901EB810100EB410039494870B4
:10324000E07C3038A17C303901EB810100EB41009A
:10325000344988701BE00722AFF2746104F10A0060
:10326000FDF71CFB98B9A07C3038617C303901EB4C
:10327000810100EB41002B490870207D3038E17C52
:10328000303901EB810100EB4100264988700A22A8
:10329000AFF2F06104F10A00FDF700FBF0BB607DC6
:1032A0003038217D303901EB810100EB41001D49AF
:1032B0000870E07D3038A17D303901EB810100EBF1
:1032C000410018494870607E3038217E303901EB6A
:1032D000810100EB41001349887022E0042212A111
:1032E0002046FDF7DBFAC8B9114812490A88028066
:1032F00089788170104811490968016010481149A6
:103300000A8802808978817006480F490A880280FD
:103310008978817000200D49087000E001E00C49B7
:10332000087070BD680000202A525354000000004D
:1033300053000020560000205A0000205E000020AC
:1033400062000020650000206B0000208F0000203C
:103350009000002010B500212220FEF759FF0249FD
:1033600008700846007810BD000000200246104694
:10337000114602B9704714E00378202B10D003786F
:10338000612B08DD03787A2B05DA0378203B0B707C
:10339000491C401C05E003780B70491C401C00E0F0
:1033A000401C0378002BE7D10B7000BFE2E7000060
:1033B00010B5114800F0A0FB00BF0F4800F0B0FBB3
:1033C0000028FAD00C48C01C00F096FB00BF0A4849
:1033D000C01C00F0A5FB0028F9D001210748FEF72A
:1033E000D1FE03210648FEF7BFFE0A230122032176
:1033F0000348FEF7FBFD10BD050800F00050024039
:1034000000D0034010B51E4800F076FB1D4800F0C8
:1034100073FB1D48FEF786FE1C48FEF783FE042161
:103420001B48FEF7CBFE08211948FEF7B9FE012222
:10343000184801681848FEF789FF1748FEF774FF1F
:10344000FF220C212220FEF723FF044600220D213B
:103450002220FEF71DFF044600220E212220FEF747
:1034600017FF0446002203211820FEF711FF04462F
:10347000FF2201211820FEF70BFF044610BD0000BB
:10348000002000F0010800F002080100020C010019
:1034900000500040040000200000024010B5124817
:1034A00000F02AFB114800F027FB00BF0F4800F096
:1034B00037FB0028FAD00120FEF734FE40F201402D
:1034C000FEF730FE03214FF04020FEF793FE60230D
:1034D0004FF4E13206480168064800F01EFE06A0DF
:1034E00000F05EFE10BD0000001800F0000800F0C3
:1034F0000400002000C000400D0A48656C6C6F2C71
:10350000776F726C64210D0A0000000070B50546EB
:1035100000241DE00120A040C2B206212220FEF7B7
:10352000B7FE0D490870285D0C490A5C0521222070
:10353000FEF7AEFE0849087042F21070FEF720FD5B
:10354000002205212220FEF7A3FE03490870641C17
:10355000082CDFDB70BD00000000002018000020F8
:1035600008B510480078E0B90F480068014600909F
:103570000E48FEF7F7FF0E48007848B90B48407830
:1035800025300A4948700846C0782530C87008E0E0
:103590000648C07825300549C8700846407925306E
:1035A000487108BD90000020620000204B00002000
:1035B0008F00002008B510480078E0B90F48006877
:1035C000014600900E48FEF7CDFF0E48007848B93E
:1035D0000B48407825300A4948700846C0782530A5
:1035E000C87008E00648C07825300549C87008460C
:1035F00040792530487108BD900000206800002007
:103600004B0000208F00002008B510480078E0B97A
:103610000F480068014600900E48FEF749FF0E482B
:10362000007848B90B48C07825300A49C870084668
:1036300040792530487108E0064840782530054932
:1036400048700846C0782530C87008BD900000203A
:103650005A0000204B0000208F00002008B51248BF
:10366000007800BB11480188ADF8001080788DF813
:1036700002000F480099FEF775FF0E48007848B920
:103680000B48407825300A4948700846C0782530F4
:10369000C87008E00648C07825300549C87008465B
:1036A00040792530487108BD90000020530000206B
:1036B0004B0000208F0000202DE9F003AF4D0246A3
:1036C0002868AF4B1840A0F18053B3F5A02359D020
:1036D00002F03809DFF8AC82C2F38414B9F1100F9C
:1036E00025D0B9F1300F04BF47F230504FF400132A
:1036F0000DD04FF03800904304BF4FF40040C30199
:1037000005D012F0380F1CBF0020034613D09E4F87
:1037100012F4605F4FF0000618BF00222CD057F85B
:10372000324044457DD307EBC2025268E1E00023FA
:1037300040461524EBE7A4F10900122822D2934851
:10374000D5F87CC04FF04C7350F824002CF01C0CC2
:10375000072CA8BF4CF0100CC5F87CC02E6D4FF4A0
:10376000002C16F4807FD2D1BCF1010C0AD02E6D52
:1037700016F4807FF8D0CAE712F0380F18BFB9F1FD
:10378000100F04D0BDE8F0034FF000007047C2F303
:103790000268DFF8FCC14FF0000257F83290E145B3
:1037A00003D307EBC202526803E0521C062AF4D38B
:1037B0003246C5F8C020D5F8B020DFF8D8C102EAFB
:1037C0000C0242F00042C5F8B020DFF8CCC1A4F1F1
:1037D00009024C1E5CF828C0A444BCFBF1FCD5F8DF
:1037E000B0101943C5F8B01008EBC80101EB410453
:1037F0006A4902EB420201EBC40101EB82046468F6
:10380000C5F86441D5F864416FF0FF0808EB0C2C53
:1038100044EA0C0CC5F864C151F82210D5F86021B7
:1038200000E061E002F400021143C5F86011D5F830
:103830006011D5F86021C1F38921C2F30904D5F8DC
:103840006421C2F3042202F1010CD5F8642102F0D4
:103850001F02521CB0FBF2F04A09C2F100084443B7
:10386000424301EB481104EB5212484302EB902013
:10387000B0FBFCF041080846002257F832C08445EE
:1038800003D307EBC200466802E0521C062AF4D3B9
:10389000C5F8C060D5F8600110F4000F1DBFD5F861
:1038A000B00040F08040C5F8B000D5F8600104BF1A
:1038B00040F40000C5F860014FF40040D5F86821DD
:1038C00012F0010F02D1401E0028F7DC002808BFCB
:1038D000002148D0D5F8B000184340F0010040F076
:1038E0001040C5F8B0003EE0521C062AFFF417AFA6
:1038F0003246C5F8C020D5F8602122F40002C5F890
:103900006021D5F8B020DFF898C002EA0C0242F03E
:103910000042C5F8B020002908BF4FF0000C0AD0C3
:10392000B0FBF1FCBCF1000F18BFACF1010C0CF1C5
:103930000101B0FBF1F10846002257F83240844201
:1039400003D307EBC200466802E0521C062AF4D3F8
:10395000C5F8C060D5F8B00043EA8C22104340F0AF
:103960000040C5F8B000D5F8B00020F47000C5F8EC
:10397000B000BDE8F00308467047000000E00F40CB
:103980000000FF700024F4007C510000604F000034
:1039900040787D0100FC0FE0584F0000CC4F000044
:1039A000FF0300EF70B44B4D2A6E296F11F0004FEA
:1039B00014BF01F0700002F03000202808BF464814
:1039C00018D005DC88B1102808BF444812D009E09F
:1039D000302808BF47F230500CD0702808BF4FF491
:1039E000004007D070BC002070477C203C4B00EAB0
:1039F000121018584FF0FF3311F0004F02D011F49D
:103A0000006F06D001F0004C02F400645CEA040C84
:103A100036D1D5F860C1D5F8644104F01F06C4F36F
:103A20000424641C761C16FB04F46400B0FBF4F060
:103A3000CCF309044443CCF3892C00FB0CF0D5F8FB
:103A400010C004EB902042F480020CF4704CBCF5E2
:103A5000804F08BF234B13D009DCBCF5005F08BFC3
:103A6000214B0DD0BCF5405F08BF204B08E0BCF5F2
:103A7000E04F08BF1E4B03D0BCF5104F08BF1D4BD5
:103A800012F4800F21D011F0004F19D011F0804FA7
:103A900009D011F4006F0CD001F0004C02F4006268
:103AA0005CEA020205D0C1F3C551491CB0FBF1F03C
:103AB0000BE04000C1F38651491CB0FBF1F004E07B
:103AC000C2F3C351491CB0FBF1F0834238BF184622
:103AD00070BC704700E00F4000093D000024F40076
:103AE000604F0000005A620200B4C40480F0FA0281
:103AF00040787D01002D3101C0F307230749C0B292
:103B0000194401F07043C1F3130143EA411141EA42
:103B1000800040F0007001220260704700E60F4014
:103B2000C0F307220849C0B2114401F07042C1F34A
:103B3000130142EA411141EA800040F00070006840
:103B4000002818BF0120704700EA0F404FF0E02026
:103B5000016941F00501016170474FF0E020016902
:103B600041F002010161704710B5FC48007801285E
:103B70007ED002287DD0032802D0042866D166E0DA
:103B8000F74A1288521CF64B1A80F64A127872BB1A
:103B90001A4612884FF4487392FBF3F403FB142285
:103BA000002A53D1EE4B1A80002012E0EE4A126830
:103BB0000244102A04DBEC4A12680244103A02E084
:103BC000E94A126802441146E84A525CE84B1A542A
:103BD000401C0828EADBE44A1268521CE24B1A60D7
:103BE0001A461268102A31D100221A602EE0FFE72F
:103BF000DB4A12884FF4C87392FBF3F403FB1422E0
:103C000022BB0022D64B1A80002012E0D64A12684E
:103C10000244102A04DBD44A12680244103A02E03B
:103C2000D14A126802441146D04A525CD04B1A5411
:103C3000401C0828EADBCC4A1268521CCA4B1A60A6
:103C40001A461268102A01D100221A60BAE1C44A49
:103C50001288521CC24B1A80C64A12788ABB1A4676
:103C600012884FF4167392FBF3F403FB142201E065
:103C700057E0C0E0002A53D1B94B1A80002012E06F
:103C8000B94A12680244102A04DBB74A1268024497
:103C9000103A02E0B44A126802441146B34A525C38
:103CA000B34B1A54401C0828EADBAF4A1268521E74
:103CB000AD4B1A601A461268002A31DC10221A60D5
:103CC0002EE0FFE7A64A12884FF4967392FBF3F4B6
:103CD00003FB142222BB0022A14B1A80002012E019
:103CE000A14A12680244102A04DB9F4A1268024467
:103CF000103A02E09C4A1268024411469B4A525C08
:103D00009B4B1A54401C0828EADB974A1268521E43
:103D1000954B1A601A461268002A01DC10221A60BC
:103D200050E195480088401C934908800846008867
:103D3000C82190FBF1F201FB120000285AD18E49F4
:103D400008808E48007880F001008C4908708C480B
:103D5000007830B1012816D0022826D0032848D197
:103D600035E08648007858B98648047803E0242076
:103D70007F490855641C844800788442F7DD01E0DF
:103D8000FFF742FC35E07D48007858B97F48047859
:103D900003E0242076490855641C7D48007884425D
:103DA000F7DD01E0FFF75AFC23E07448007858B9CA
:103DB0007648047803E024206D490855641C744853
:103DC00000788442F7DD01E0FFF7CAFB11E06B48A1
:103DD000007858B96D48047803E0242064490855F8
:103DE000641C6B4800788442F7DD01E0FFF7E2FBDA
:103DF00000BF00BFE6E067480088401C65490880B6
:103E000065480078012801D1FEF760F86148008814
:103E10004FF47A7190FBF1F201FB1200002873D18C
:103E200057480078012804D0022855D0032852D1E1
:103E3000C2E05A4800785A49097888420ED157485A
:103E4000407857494978884208D154488078544985
:103E50008978884202D101204F4908704F48807804
:103E6000401C3C2190FBF1F201FB12004B49887091
:103E70000846807810B901204A49087049480078FE
:103E8000B8B100204749087044484078401C434975
:103E90004870084640783C2802D101204249087009
:103EA0003E4840783C2190FBF1F201FB12003B4977
:103EB00048703D48007860B100203B4908703748A1
:103EC0000078401C642190FBF1F201FB12003349A1
:103ED0000870FFF7C3FB73E034488078401E334915
:103EE000887008468078FF2815D10846407860B968
:103EF0000846007848B90120274908702B48807887
:103F0000401C2A4988705BE05BE03B2027498870B1
:103F10000120274908702648007888B100202449EC
:103F200008701E484078401E1C494870084640787A
:103F3000FF2802D101201F4908703B201749487013
:103F40001C48007838B100201A49087013480078DE
:103F5000401E12490870FFF703FB31E048000020C3
:103F60007C0000207E00002078000020A8000020B7
:103F70004B0000207F00002086000020A0000020D1
:103F800047000020800000208100002082000020E7
:103F900083000020880000208E00002053000020B5
:103FA000680000208A0000208B00002062000020B2
:103FB0008C0000208D00002001200349087000BF04
:103FC00000BF00BF00BF10BD470000204FF0E02140
:103FD000401E4861704700000448006840F47000CB
:103FE00002490860024803490860704788ED00E014
:103FF0000024F400A400002070B50121264800F040
:10400000C9F805462946244800F0BEF805F05000DE
:1040100000283FD038E0204800F06CF80446601CCF
:1040200000B936E00A2C13D11C48B0F80001002872
:1040300009DD00201949B1F80011184A5054012037
:10404000114681F8020100201449A1F800011BE08B
:104050001248B0F800017F2809DA1049B1F80001D0
:10406000411C0E4BA3F8001119460C540BE07E22A4
:104070000A49491C481EFCF75CFC084981F87E404F
:104080007F20A1F8000100BF034800F041F800289C
:10409000C1D100BF70BD000000C00040B8000020CA
:1040A00010B5124890F80201F8B1FEF7AFF90446D6
:1040B00080220E4901F18000FCF77DFC00200B49B5
:1040C00081F802010CB9FEF7A8F90848803000F029
:1040D00067F807A000F064F804488030FFF746F95D
:1040E00002488030FEF726FB00BF10BDB80000205C
:1040F0000D0A0000816911F0100F0CBF00684FF02D
:10410000FF307047826912F0200FFBD101607047C9
:104110008069012121EA10107047D0F818C01CF006
:10412000080FFAD1D0F82CC02CF0100CC0F82CC01D
:10413000D0F830C02CF0010C2CF4407CC0F830C01A
:10414000D0F830C0B1EB021F34BF4CF0200C2CF083
:10415000200CC0F830C038BF5208C900B1FBF2F1E2
:10416000491C49088A09426201F03F018162C36229
:1041700000218161C16A41F01001C162016B40F20E
:10418000013211430163704741647047826B1143F0
:1041900081637047002914BF006CC06B704700003A
:1041A00010B5044604E014F8011B0348FFF7AAFF0A
:1041B00020780028F7D110BD00C0004070B504463B
:1041C0000D46224629460248FCF740F9004870BDDA
:1041D000BC01002070B504460D462246294602481F
:1041E000FCF734F9004870BDBC01002003B401980D
:1041F0004100009850EAC12018BF04204A0D18BFA2
:1042000040F0010040F2FF72B2EB515F08BF40F096
:104210000200012808BF052002B0704730380A2884
:1042200001D20120704700207047000010B5032123
:104230001848FDF704FD03211648FDF71FFD00BFD8
:10424000002203211348FDF7FFFC0028F8D0124A92
:1042500003211048FDF74FFD104890ED000ADFEDF7
:10426000100A60EE200A0C4890ED000AB8EE400AF1
:1042700020EE800ADFED0B0A80EE201A9FED0A0A7D
:1042800030EE410AF0EE000A80EE201A074880ED79
:10429000001A10BD00800340940000209800002008
:1042A0000000964200008045008013439C000020DF
:1042B00008B5FE49FE48FFF7FFF9FE4908600846C9
:1042C00000684FF47A71B0FBF1F42046FFF77EFEF0
:1042D000FFF73CFCFFF741FCFFF76AF8FFF792F8A5
:1042E000FFF7DCF8FDF76EFDFDF790FDFEF7CCF96A
:1042F0001520FEF759F85021EF48FFF747FFFEF76A
:104300008CF8FEF7BFF8ED4908600320FEF7ACF823
:1043100003211520FEF7B8F8E0210F20FEF7B4F8CE
:10432000FEF790F8E64908601520FEF77DF8E549AC
:1043300008600F20FEF778F8E3490860B4E3E3482B
:10434000007848B1002004E0E149095CE14A1154D9
:10435000401C0828F8DB00BFDE48FFF7D7F8FEF75F
:10436000F9FFDD490870FFF79BFEDC48007805285F
:104370004AD2DFE800F003B2EF4A7E00D648007868
:1043800000F00100E8B9D648007800F00100C0B1A3
:104390000020D4490870D44908700120D34908701E
:1043A0000020D34908700320D2490870D249097807
:1043B000481CC11700EB91718910A0EB8101CE4A16
:1043C0001170C6480178C4480078FDF789FDC349DB
:1043D0000870C1480078C2490870C748007848B1E1
:1043E000012804D0022808D003280CD108E0FFF7E8
:1043F00035F908E0FFF708F905E0FFF7B1F802E04A
:10440000FFF7D8F800BF00BF4DE3B348007800F0D5
:10441000400070B9B248007800F0400048B1B74998
:104420000978481C00EBD0714910A0EB4101B34A58
:104430001170B348006801460090B248FEF738F8A2
:10444000B1480188ADF8001080788DF80200AD48C1
:1044500008300099FEF786F8A04801789E48007859
:10446000FDF73EFD9D4908709B4800789C49087007
:1044700019E39948007800F0200070B99848007856
:1044800000F0200048B1A1490978481C00EBD07128
:104490004910A0EB41019D4A1170994800680146FE
:1044A00000909848FEF704F897480188ADF800108E
:1044B00080788DF80200934808300099FEF752F892
:1044C0008648017884480078FDF70AFD8349087022
:1044D0008148007882490870E5E28748007830B169
:1044E000012871D0022870D003286FD120E27A48C9
:1044F000007800F0020070BB7948007800F00200FC
:1045000048B37848007820B1012809D0022815D195
:104510000DE00420764908700520764908700DE00A
:1045200006207349087007207249087006E00020D1
:104530006F49087003206F49087000BF00BF6948C9
:104540000078401C032190FBF1F201FB1200654949
:10455000087077E09AE2FFE75F48007800F0080013
:1045600088BB5F48007800F0080060B35D480078C1
:1045700020B101280ED0022824D117E0604800881D
:10458000401C42F2107190FBF1F201FB12005C49F9
:10459000088017E05A488078401C594988700846BE
:1045A00080780D2801D1012088700BE05448C07834
:1045B000401C5349C8700846C078202801D101200A
:1045C000C87000BF3EE002E03DE011E150E2424829
:1045D000007800F00400A8BB4148007800F0040017
:1045E00080B34048007820B1012812D0022828D199
:1045F0001BE043480088401E414908800846008867
:104600004FF6FF71884203D142F20F703C49088097
:1046100017E03B488078401E39498870084680780A
:10462000FF2801D10C2088700BE03548C078401E6F
:104630003349C8700846C078FF2801D11F20C870D0
:1046400000BF00BF14E22448007800F0020058BB0D
:104650002348007800F0020030B32248007820B1EF
:10466000012809D0022815D10DE002201E4908704A
:1046700003201E4908700DE004201B490870052026
:104680001A49087006E000201749087001201749F0
:10469000087000BF00BF13480078401C032190FB46
:1046A000F1F201FB120033E035E00000002D310192
:1046B000500500F10400002000C000400C00002064
:1046C00008000020140000201000002090000020AE
:1046D0006E0000204B000020490000204800002010
:1046E0004A00002084000020820000208300002077
:1046F0008000002081000020470000207E00002074
:104700005A000020A8000020530000207F00002055
:10471000E64908706BE0E648007800F0080070BBDE
:10472000E448007800F0080048B3E048007820B181
:1047300001280DD0022821D115E0DF480078401C67
:10474000182190FBF1F201FB1200DB49087015E023
:10475000D9484078401C3C2190FBF1F201FB12004B
:10476000D54948700AE0D4488078401C3C2190FB31
:10477000F1F201FB1200D049887000BF37E0FFE77B
:10478000CB48007800F0040088BBCA48007800F0ED
:10479000040060B3C548007820B101280ED002287B
:1047A00024D117E0C4480078401EC3490870084669
:1047B0000078FF2801D11720087017E0BE48407824
:1047C000401EBD49487008464078FF2801D13B2073
:1047D00048700BE0B8488078401EB749887008469A
:1047E0008078FF2801D13B20887000BF00BF3FE1E7
:1047F000AF48007800F0020068BBAE48007800F0D7
:10480000020040B3A948007820B1012809D002284D
:1048100015D10DE00220A94908700320A8490870AD
:104820000DE00420A54908700520A549087006E0A0
:104830000020A24908700120A149087000BF00BFF4
:104840009A480078401C032190FBF1F201FB120012
:10485000964908706BE09648007800F0080070BB3D
:104860009448007800F0080048B39048007820B1E0
:1048700001280DD0022821D115E092480078401C73
:10488000642190FBF1F201FB12008E49087015E0E3
:104890008C484078401C3C2190FBF1F201FB120057
:1048A000884948700AE087488078401C3C2190FB8A
:1048B000F1F201FB12008349887000BF37E0FFE787
:1048C0007B48007800F0040088BB7A48007800F04C
:1048D000040060B37548007820B101280ED002288A
:1048E00024D117E077480078401E764908700846C2
:1048F0000078FF2801D16320087017E071484078E4
:10490000401E7049487008464078FF2801D13B207E
:1049100048700BE06B488078401E6A4988700846F2
:104920008078FF2801D13B20887000BF00BF9FE046
:104930005F48007800F0020068BB5E48007800F035
:10494000020040B35948007820B1012809D002285C
:1049500015D10DE00220594908700320584908700C
:104960000DE004205549087005205549087006E0FF
:1049700000205249087001205149087000BF00BF53
:104980004A480078401C032190FBF1F201FB120021
:10499000464908706BE04648007800F0080070BB9C
:1049A0004448007800F0080048B34048007820B13F
:1049B00001280DD0022821D115E043480078401C81
:1049C000182190FBF1F201FB12003F49087015E03D
:1049D0003D484078401C3C2190FBF1F201FB120065
:1049E000394948700AE038488078401C3C2190FBE7
:1049F000F1F201FB12003449887000BF37E0FFE795
:104A00002B48007800F0040088BB2A48007800F0AA
:104A1000040060B32548007820B101280ED0022898
:104A200024D117E028480078401E2749087008461E
:104A30000078FF2801D11720087017E0224840783D
:104A4000401E2149487008464078FF2801D13B208C
:104A500048700BE01C488078401E1B49887008464F
:104A60008078FF2801D13B20887000BF00BF00BFC5
:104A700000BF164801780E480078FDF731FA134957
:104A800008700B4800780B4908700CE00F4801785B
:104A900007480078FDF724FA0C49087004480078AC
:104AA0000449087000BF00BF49E4000084000020F2
:104AB000490000204A00002053000020820000200E
:104AC00083000020620000206800002048000020D1
:104AD00010B500290AD00878002807D00548784486
:104AE000FBF794FF002801D0002010BD0248784455
:104AF00010BD0000C6070000BE07000010B5002969
:104B00000AD00878002807D005487844FBF77EFFD4
:104B1000002801D0002010BD0248784410BD0000DC
:104B2000B6070000AE0700000808A0F500114FEA24
:104B30003101704743004FEAD30C4FEA3C0C43402D
:104B40001FBF40070CF1605113F0FE4F70471CF07F
:104B5000006F03D100200CF0004170470CF00043BF
:104B600043EA507010B540EACC0000F00EF800BFE8
:104B7000000000924FEA0001FFF7D6BF4FF000415E
:104B80004FF00000A1F5002170470EF1020E2EF04B
:104B9000030E5EF8044B244204D44FEA4102B2F102
:104BA0007F4F11D84FEA4003B3F17F4F0CD80ED19D
:104BB0004FEAD07CB2F17F4F0CEB4C0C0CF1020CA5
:104BC00008BF4CEBD17C04E04FF0080C01E04FEA49
:104BD000D17C0CEB4C0324FA03F404F00704B4F189
:104BE000040C06D20EEB840CBDE810404CF0010C16
:104BF0006047DFE80CF0070802024FF00040A0F524
:104C0000800010BD0846420018BFD2F1807288BFF4
:104C100000F0004010BD4FF04070E1EE100A704708
:104C2000FCF769B80040004010000000008005401B
:104C300010000000005000401100000000900540EE
:104C400011000000006000401200000000A00540BC
:104C500012000000007000401300000000B005408A
:104C600013000000004002401400000000C0054096
:104C700014000000005002402E00000000D005404B
:104C80002E000000006002402F00000000E0054000
:104C90002F000000007002403000000000F00540CE
:104CA0003000000000D00340460000000000064035
:104CB00046000000001006404700000000200640AB
:104CC00048000000003006407F0000000040064021
:104CD0008000000000500640840000000060064094
:104CE0008C000000004000401000000000800540E3
:104CF000100000000050004011000000009005402E
:104D000011000000006000401200000000A00540FB
:104D100012000000007000401300000000B00540C9
:104D200013000000004002401400000000C00540D5
:104D300014000000005002402E00000000D005408A
:104D40002E000000006002402F00000000E005403F
:104D50002F000000007002403000000000F005400D
:104D60003000000000D00340430000000000064077
:104D700043000000001006404400000000200640F0
:104D8000450000000030064058000000004006408A
:104D900059000000005006405C0000000060064022
:104DA00064000000007006406C00000000800640B7
:104DB0006D000000009006407F00000000400040B1
:104DC0000080054000500040009005400060004019
:104DD00000A005400070004000B0054000400240C7
:104DE00000C005400050024000D005400060024075
:104DF00000E005400070024000F0054000D0034094
:104E0000000006400010064000100640002006404A
:104E100000200640003006400030064000400640BA
:104E2000004006400050064000500640006006402A
:104E3000006006400070064000700640008006409A
:104E400000800640009006400090064000070000E9
:104E50000006000000050000000400000003000040
:104E6000000200000001000000000000000000003F
:104E700018ED00E01CED00E020ED00E000E400E0B3
:104E800004E400E008E400E00CE400E010E400E0EA
:104E900014E400E018E400E01CE400E020E400E09A
:104EA00024E400E028E400E02CE400E030E400E04A
:104EB00034E400E038E400E03CE400E040E400E0FA
:104EC00044E400E048E400E04CE400E050E400E0AA
:104ED00054E400E058E400E05CE400E060E400E05A
:104EE00064E400E068E400E06CE400E070E400E00A
:104EF00074E400E078E400E07CE400E080E400E0BA
:104F000084E400E088E400E000E100E004E100E087
:104F100008E100E00CE100E010E100E080E100E0E9
:104F200084E100E088E100E08CE100E090E100E055
:104F300000E200E004E200E008E200E00CE200E051
:104F400010E200E080E200E084E200E088E200E0BD
:104F50008CE200E090E200E000688909001C4E0E3F
:104F600040420F0000201C0080841E0000802500AD
:104F7000999E36000040380000093D0000803E0048
:104F800000004B00404B4C0000204E00808D5B0029
:104F900000C05D000080700000127A0000007D00FB
:104FA00080969800001BB7000080BB00C0E8CE00D0
:104FB000647ADA000024F4000000FA0080A81201EC
:104FC000002D310100366E0140787D014000000067
:104FD00000000000000100003E000800000000008A
:104FE00000010000A000000002000000000100001D
:104FF0003454010000000000000100002B70060086
:105000000000000000010000280000000000000077
:105010000001000027000100000000000001000066
:10502000200000000000000000010000500000000F
:1050300002000000000100001AAC000000000000A7
:1050400000010000179409000000000000010000AA
:105050001698050000000000000100001400000088
:1050600000000000000100001380080000000000A4
:1050700000010000A0000000080000000001000086
:1050800010000000000000000001000028000000E7
:1050900002000000000100004000000004000000C9
:1050A000000100006000000000000000000100009E
:1050B0005D000C0000000000000100005000000036
:1050C00000000000000100004E000200000000008F
:1050D0000001000041AC01000000000000010000E0
:1050E0003C00000000000000000100003A800900C0
:1050F000000000000001000030000000000000007F
:105100000001000028000000000000000001000075
:1051100027000100000000000001000023600600DD
:1051200000000000000100002160080000000000F5
:10513000000100001E00000000000000000100004F
:105140001DC004000000000000010000500000002D
:105150000200000000010000180000000000000034
:105160000001000014000000000000000001000029
:105170006000000004000000000100000024F400B2
:1051800030003000005A62029100910000879303C2
:10519000D200D20000B4C4041301130100E1F505EC
:1051A00054015401000E27079501950100000000ED
:1051B000000000003031323334353637383941425F
:1051C0004344454640305800303132333435363769
:1051D0003839616263646566403078000400000815
:1051E00000000000000000020001000010000000AC
:1051F00002400000000000A0000000000540000088
:10520000000000C8000000000C4000000000409CAE
:1052100000000000194000000020BCBE000000009B
:1052200034400000BFC91B8E00000004B5400000E0
:10523000504BCFD06607E2CF010000006C41000068
:105240003E8251AADFEEA73401000000D9420000DF
:10525000DCB5A0E23A301F97FFFFFFFFB445000026
:10526000FD25A0C8E9A3C14FFFFFFFFFFF3F0000DE
:105270000000008000000000FF3F000000000080F0
:1052800000000000D053000000000020A800000033
:105290003C02000078540000A8000020F80500003F
:1052A000580200001C00000043000000F8FFFFFF50
:1052B0000C0000000E0000000F0000002E00000097
:1052C0001001000043000000F8FFFFFF00404040D5
:1052D00040404040404041414141414040404040C9
:1052E0004040404040404040404040404005020275
:1052F0000202020202020202020202020220202034
:10530000202020202020200202020202020290908F
:10531000909090901010101010101010101010108D
:1053200010101010101010100202020202028888E1
:1053300088888888080808080808080808080808ED
:1053400008080808080808080202020240000000D5
:10535000000000000000000000000000000000004D
:10536000000000000000000000000000000000003D
:10537000000000000000000000000000000000002D
:10538000000000000000000000000000000000001D
:10539000000000000000000000000000000000000D
:1053A00000000000000000000000000000000000FD
:1053B00000000000000000000000000000000000ED
:1053C00000000000000000000000000000000000DD
:1053D00000000000000000000000000000000000CD
:1053E00000000000000000003F065B4F666D7D0777
:1053F0007F6F777C395E79713D760F0E7538375443
:105400005C73673149783E1C7E646E5900BF86DB51
:10541000CFE6EDFD87FFEF0000FFFF00000000007A
:10542000000000173B34173B3400D607071AD60795
:10543000071A00000F00000F173B3B173B3B2424CB
:105440002424242424240000000000000000000084
:105450000003000100000000000000000000000048
:1054600000000000000000000000A040000000005C
:08547000010000000024F4001B
:0400000500000201F4
:00000001FF
