:020000040000FA
:100000007806002011030000190300001B03000004
:100010001D0300001F03000021030000000000007A
:1000200000000000000000000000000023030000AA
:10003000250300000000000027030000A1210000AC
:100040002B0300002D0300002F03000031030000EC
:1000500033030000CD250000370300003903000002
:100060003B0300003D0300003F030000410300008C
:10007000430300004503000047030000490300005C
:100080004B0300004D0300004F030000510300002C
:1000900053030000550300005703000059030000FC
:1000A0005B0300005D0300005F03000061030000CC
:1000B000630300006503000067030000690300009C
:1000C0006B0300006D0300006F030000710300006C
:1000D000730300007503000077030000790300003C
:1000E0007B0300007D0300007F030000810300000C
:1000F00083030000850300008703000089030000DC
:100100008B0300008D0300008F03000091030000AB
:10011000930300009503000097030000990300007B
:100120009B0300009D0300009F030000A10300004B
:10013000A3030000A5030000A7030000A90300001B
:10014000AB030000AD030000AF030000C9030000D3
:100150000000000000000000CB030000CD03000001
:10016000CF030000D103000000000000D303000013
:10017000D5030000D7030000D9030000DB03000013
:10018000DD030000DF030000E1030000E3030000E3
:10019000E5030000E7030000E9030000EB030000B3
:1001A000ED030000EF030000F1030000F303000083
:1001B000F5030000F7030000F9030000FB03000053
:1001C000FD030000FF030000010400000304000021
:1001D0000504000007040000090400000B040000EF
:1001E0000D0400000F0400001104000013040000BF
:1001F0001504000017040000190400001B0400008F
:1002000000F002F800F061F80AA090E8000C8244C7
:100210008344AAF10107DA4501D100F056F8AFF2A4
:10022000090EBAE80F0013F0010F18BFFB1A43F0D4
:1002300001031847F831000018320000103A24BFBB
:1002400078C878C1FAD8520724BF30C830C144BF3B
:1002500004680C607047000000230024002500267D
:10026000103A28BF78C1FBD8520728BF30C148BF19
:100270000B607047692900F05781642900F05481B0
:10028000752900F051816F2900F0E881782900F08C
:100290000D820368DB0928BF41F08001632900F06B
:1002A0007084E32900F08384002070471FB502F0BA
:1002B000D1FD00F0D3FD04000020002102F0B4FDC8
:1002C000401C60601FBD10B510BD00F0A2FD1146BE
:1002D000FFF7ECFF02F074FA00F0C4FD03B4FFF77F
:1002E000F2FF03BC00F0CCFDEFF3108072B6704754
:1002F000EFF310807047EFF3108062B6704730BFA5
:10030000704780F311887047EFF311807047000049
:100310004548804745480047FEE7FEE7FEE7FEE721
:10032000FEE7FEE7FEE7FEE7FEE7FEE7FEE7FEE7A5
:10033000FEE7FEE7FEE7FEE7FEE7FEE7FEE7FEE795
:10034000FEE7FEE7FEE7FEE7FEE7FEE7FEE7FEE785
:10035000FEE7FEE7FEE7FEE7FEE7FEE7FEE7FEE775
:10036000FEE7FEE7FEE7FEE7FEE7FEE7FEE7FEE765
:10037000FEE7FEE7FEE7FEE7FEE7FEE7FEE7FEE755
:10038000FEE7FEE7FEE7FEE7FEE7FEE7FEE7FEE745
:10039000FEE7FEE7FEE7FEE7FEE7FEE7FEE7FEE735
:1003A000FEE7FEE7FEE7FEE7FEE7FEE7FEE7FEE725
:1003B000FEE7FEE7FEE7FEE7FEE7FEE7FEE7FEE715
:1003C000FEE7FEE7FEE7FEE7FEE7FEE7FEE7FEE705
:1003D000FEE7FEE7FEE7FEE7FEE7FEE7FEE7FEE7F5
:1003E000FEE7FEE7FEE7FEE7FEE7FEE7FEE7FEE7E5
:1003F000FEE7FEE7FEE7FEE7FEE7FEE7FEE7FEE7D5
:10040000FEE7FEE7FEE7FEE7FEE7FEE7FEE7FEE7C4
:10041000FEE7FEE7FEE7FEE7FEE7FEE704480549E4
:10042000034A054B70470000AD25000001020000A3
:100430007802002078060020780200200FB41CB556
:10044000074B06AA7B4469460090059800F077FBAD
:100450000020694600F086FB1CBC5DF814FB000020
:100460001D07000070B5044685690068C10601D506
:10047000302600E02026C00707D070BDD4E9012156
:1004800030469047206A401C20626D1EF6D570BD34
:1004900070B5044685690078C00707D170BDD4E9FE
:1004A000012120209047206A401C20626D1EF6D555
:1004B00070BD09684A0501D540B27047C905FCD531
:1004C00000B2704709684A0501D5C0B27047C90536
:1004D000FCD580B2704770B50C460546012A05D0A0
:1004E0002878800600D5EA69002302E0012305E0B0
:1004F0005B1C934202D2E05C0028F9D1A869E6189F
:10050000C01AA861286A184428622846FFF7AAFF83
:1005100004E0D5E9012114F8010B9047B442F8D367
:100520002846FFF7B5FF70BD2DE9F04106460024CF
:1005300010687529314616A510D0FFF7BAFF0028BC
:1005400002DA404213A507E031688A0701D512A5F7
:1005500002E0490704D511A5012401E0FFF7B2FF2D
:1005600000210A2206F1240709E0B0FBF2FCB0FBEF
:10057000F2F302FB1C00303078541846491C002866
:10058000F3D123462A463046BDE8F04100F079BA5F
:10059000000000002D0000002B00000020000000E3
:1005A0002DE9FF5F15468A460446DFF8AC80F84423
:1005B0000027D8E900103E46CDE9001010E03AF8D7
:1005C00016106A4602A800F0FEFA411C07D02178F6
:1005D000890603D5E269391891420DD80744761C83
:1005E0002078800602D5E069B84205DDAE42E6DB40
:1005F0003AF816000028E2D1A069C01BA06120468D
:10060000FFF730FFD8E90010CDE90010002017E017
:100610003AF818106A4602A800F0D5FAB0F1FF3F88
:1006200081460BD000250DF1080B05E0D4E901212E
:100630001BF8050090476D1C4D45F7D308F10100EC
:10064000B0428046E4DB206A384420622046FFF74F
:100650001FFFBDE8FF9F0000362E000070B5044666
:1006600021461068FFF72EFF002104F1240505E064
:1006700000F007023032C0086A54491C0028F7D144
:100680002068002307A2050707D5800600D421B102
:10069000E069012304A2401EE0612046BDE87040ED
:1006A00000F0EFB9000000003000000070B5044613
:1006B0000D4621461068FFF705FF2188090502D580
:1006C0000F4A7A4402E00E4A7A440E32002104F1C5
:1006D000240305E000F00F060009965D5E54491CF6
:1006E0000028F7D120780023000704D5702D02D010
:1006F00009B1022311322046BDE8704000F0C1B9B3
:100700002A2D00002DE9F05F894604464FF0000ACB
:10071000DFF874B1FB44C0F820A02046E1688847A8
:10072000002874D0252806D0D4E901219047206AFA
:10073000401C2062F1E700265F462046E1688847BA
:100740002028054607DB312D05D2781910F8200C3A
:1007500008B10643F1E7B00701D526F00406C4F856
:100760001CA00027C4F818A02A2D09D0284602F0A2
:100770001FF838B304EB8708303DC8F8185019E06B
:1007800059F8041B204604EB87029161E168884711
:10079000012F054618D1E069002820DA26F020064E
:1007A0001DE0D8F8180000EB800005EB4000303861
:1007B000C8F818002046E1688847054601F0F8FFB0
:1007C0000028EED1012F0AD02E2D08D12046E16855
:1007D00088477F1C0546022F46F02006C4DBA0692F
:1007E000002803DA404246F00106A061F00701D07C
:1007F00026F010066C2D0BD0682D09D04C2D39D069
:100800006A2D35D0742D35D07A2D33D016E038E0EE
:10081000E1682F4620468847B842054609D16C2F2B
:1008200026D04FF48060E16806432046884705469D
:1008300004E06C2F1AD04FF4807006430DB3A5F17D
:100840004100192802D8203546F400664A46294658
:10085000204626604E46FFF70DFD80B101280BD0E3
:10086000F61D26F0070000F1080956E74020E4E7EE
:100870008020D8E70020D6E706F104094DE7284696
:1008800052E7206ABDE8F09F002D000040EA010316
:1008900070B59B072ED14FF00136042A2AD308C821
:1008A00010C99D1B9D43121F15EAC61517D0D8B25B
:1008B000E1B2401A50EA056110D198B2A1B2401AD3
:1008C00050EA05410AD123F07F4024F07F41401ACD
:1008D00050EA052102D1180EA0EB146070BDA342AE
:1008E000DBD018BA21BA884201D9012070BD4FF07F
:1008F000FF3070BD0AB9002070BD10F8013B11F83F
:10090000014B63B1A3420AD1521E08D010F8013B3B
:1009100011F8014B1BB1A34201D1521EEDD1181B9E
:1009200070BD431A28BF9A4240F26D81032A1044D9
:10093000114440F2268010F0030F1EBF11F8013D54
:10094000521E00F8013D10F0030F7FF4F6AF11F0D6
:10095000030300F0B081083AC0F00B8051F8043D69
:10096000083A51F804CD40F8043D40F804CDFFF7B3
:10097000F3BF121D5CBF51F8043D40F8043DAFF3D6
:100980000080D20724BF11F8013D11F801CD48BF06
:1009900011F8012C24BF00F8013D00F801CD48BF3B
:1009A00000F8012C704710B5044610F0030F08BF83
:1009B00011F0030F40F015804FF0013E121FC0F2FE
:1009C0000E8051F8043BA3EB0E0C2CEA030C1CEA3E
:1009D000CE1C08BF40F8043BF0D0A1F1040102F1A5
:1009E0000402521E08DB11F8013B002B00F8013B0A
:1009F000F7D1114600F089F9204610BD4FF0013CB7
:100A000050F8042B51F8043B9A4221D1A2EB0C037D
:100A1000934313EACC1317D150F8042B51F8043B3D
:100A20009A4215D1A2EB0C03934313EACC130BD1DA
:100A300050F8042B51F8043B9A4209D1A2EB0C0365
:100A4000934313EACC13DBD04FF00000704700BF94
:100A5000D01A01BAB1FA81F101F0180122FA01F0BD
:100A6000CB40C1F12001DBB2C0B2C01A2CFA01F3B5
:100A7000D11A914311EAC311E6D17047704770470C
:100A800070472DE9F0470D4699469246044600F11D
:100A900024080168880604D5E06921F0100121606E
:100AA00000E00120A84201DD471B00E00027A1690A
:100AB0007A1902EB0900081AA0612078C00602D456
:100AC0002046FFF7CFFC002608E0D4E901211AF800
:100AD00006009047206A401C761C20624E45F4DBDD
:100AE0002078C0060AD52046FFF7BCFC06E0D4E912
:100AF000012130209047206A401C2062381EA7F157
:100B00000107F4DC07E0D4E9012118F8050090475B
:100B1000206A401C2062281EA5F10105F3DC204656
:100B2000FFF7B6FC2078000602D50220BDE8F0876A
:100B30000120FBE701694A1C02610878704700B593
:100B40008FB0CDE901310021059105497944CDE906
:100B5000031011466846FFF7D5FD0FB000BD000039
:100B6000E5FFFFFF0A6802F8010B0A60704710B545
:100B7000436913B1AFF3008001E0FFF7ACFC012043
:100B800010BD127800F124010A7000224A7001227F
:100B9000EDE711684FF0FF32E9E710B5436913B193
:100BA000AFF3008001E0FFF7FBFC012010BD1288CD
:100BB00000F1240182840022C2840122EDE7116841
:100BC0004FF0FF32E9E770B516460C46054600F0D7
:100BD000BFF8036893F80101012806D0FF2C0FD855
:100BE000185D68B101202C7070BDD3F80701324642
:100BF000214603F2071303442846BDE87040184716
:100C00004FF0FF3070BD032A40F2308010F0030C2B
:100C100000F0158011F8013BBCF1020F624498BF4F
:100C200011F801CB00F8013B38BF11F8013BA2F1EC
:100C3000040298BF00F801CB38BF00F8013B11F067
:100C4000030300F08D80083AC0F0088051F8043B9F
:100C5000083A51F804CBA0E80810F5E7121D5CBF74
:100C600051F8043B40F8043BAFF30080D20724BFA7
:100C700011F8013B11F801CB48BF11F8012B24BF3B
:100C800000F8013B00F801CB48BF00F8012B70478A
:100C9000431A28BF9A4240F26380104410F0030FB9
:100CA00011441EBF11F8013D521E00F8013D10F025
:100CB000030F7FF4F6AF103AC0F00A8010B531E9A7
:100CC0001850103A20E91850BFF4F9AFBDE81040B1
:100CD000530724BF31E9081020E9081044BF51F838
:100CE000043D40F8043D12F0030F08BF7047D207DF
:100CF00028BF31F8023D48BF11F8012C28BF20F869
:100D0000023D48BF00F8012C70474FF00002042953
:100D1000C0F0128010F0030C00F05680CCF1040CEF
:100D2000BCF1020F18BF00F8012BA8BF20F8022B5E
:100D3000A1EB0C0100F048B85FEAC17C24BF00F8C9
:100D4000012B00F8012B48BF00F8012B7047000071
:100D500010B500F083F8001D10BD00BFCD200000CD
:100D600010B5203AC0F00B80B1E81850203AA0E846
:100D70001850B1E81850A0E81850BFF4F5AF5FEA7A
:100D8000027C24BFB1E81850A0E8185044BF18C92D
:100D900018C0BDE810405FEA827C24BF51F8043BD4
:100DA00040F8043B08BF7047D20728BF31F8023B28
:100DB00048BF11F8012B28BF20F8023B48BF00F8BC
:100DC000012B70474FF0000200B51346944696463B
:100DD000203922BFA0E80C50A0E80C50B1F120014E
:100DE000BFF4F7AF090728BFA0E80C5048BF0CC0FC
:100DF0005DF804EB890028BF40F8042B08BF70475A
:100E000048BF20F8022B11F0804F18BF00F8012BCB
:100E10007047754600F030F8AE4605006946534607
:100E200020F00700854618B020B5FFF7F7FABDE8B7
:100E300020404FF000064FF000074FF000084FF041
:100E4000000B21F00701AC46ACE8C009ACE8C009D2
:100E5000ACE8C009ACE8C0098D467047004870474F
:100E60003802002010B50446AFF300802046BDE8EC
:100E70001040FFF733BA0000004870471802002006
:100E800001491820ABBEFEE72600020070470000B3
:100E900070B501F0A3F8054640F20B20B5FBF0F069
:100EA000441E124801F044F9114801F041F9202193
:100EB000104800F0A7F9104800F04AF900224FF45A
:100EC00080710E4800F060FB22464FF480710B48A1
:100ED00000F072FB620840F20711084800F07DFB49
:100EE0004FF48071054800F062FB70BD004000F0D7
:100EF000090800F0001006400614090000800240B6
:100F000010B5002410E00120A040C2B2062122202A
:100F100000F0D4F90649087000220521222000F0D3
:100F2000CDF903490870641C082CECDB10BD0000EF
:100F30000000002010B500228021024800F045FB8F
:100F400010BD00000080024010B50122802102483F
:100F500000F03BFB10BD00000080024070B504466D
:100F60000D4604F0010040B91D48007800F0010072
:100F700018B1FFF7DFFF002070BD04F0020040B998
:100F80001748007800F0020018B1FFF7D3FF0120E6
:100F9000F2E704F0800040B91148007800F08000CA
:100FA00018B1FFF7C7FF0220E6E704F0400040B9A0
:100FB0000B48007800F0400018B1FFF7BBFF03209A
:100FC000DAE704F0200040B90548007800F020007E
:100FD00018B1FFF7AFFF0420CEE72846CCE70000AA
:100FE0004A000020002100E0491C8142FCD37047E8
:100FF000D0F8003412F0010F14BF0B438B43C0F83C
:10100000003412F0020FD0F8202414BF114322EA5A
:101010000101C0F8201470472DE9F00301264FF0BC
:10102000000C0325C2F3411706FA0CF40C4211D050
:10103000D0F8C48F4FEA4C0405FA04F928EA0908ED
:10104000C0F8C48FD0F8C48F07FA04F448EA040447
:10105000C0F8C44F0CF1010C0CF0FF0CBCF1080FF0
:10106000E2D3D0F800C512F0010F14BF4CEA010C16
:101070002CEA010CC0F800C5D0F804C512F0020F2C
:1010800014BF4CEA010C2CEA010CC0F804C5D0F8DE
:1010900008C512F0040F14BF4CEA010C2CEA010C35
:1010A000C0F808C5D0F818C512F0080F14BF4CEAF4
:1010B000010C2CEA010CC0F818C512F0100FD0F882
:1010C0003C2514BF0A438A43C0F83C25D0F80C25C0
:1010D00013F0010F14BF0A438A43C0F80C25D0F85F
:1010E000102513F0020F14BF0A438A43C0F81025DD
:1010F000D0F8142513F0040F14BF0A438A43C0F834
:101100001425D0F81C2513F0080F14BF0A438A4396
:10111000C0F81C25D0F8442513F4007F14BF0A43FF
:101120008A43C0F84425D0F8402513F4407F14BF0B
:101130000A438A43C0F84025D0F82825002B0CBF6D
:10114000114322EA0101C0F82815BDE8F0037047F9
:101150000E4AC0F30741D26E01238B401A420C4A5B
:101160001ABF02EBC101496852F83110020AD1F8E6
:101170002C354FF00F0C0CFA02FC00F00F0023EAA4
:101180000C0390401843C1F82C05704700E00F4055
:10119000F82F000030B50C4605460022FFF728FF67
:1011A00021462846BDE8304008230122FFF734BF1E
:1011B00030B50C46054608230122FFF72DFF2146D6
:1011C0002846BDE830400122FFF712BF30B50C467B
:1011D00005460222FFF70CFF21462846BDE83040B5
:1011E00009230122FFF718BF30B50C46054602223D
:1011F000FFF7FEFE21462846BDE8304008230122C5
:10120000FFF70ABF30B50C4605460222FFF7F0FE95
:1012100021462846BDE8304008230122FFF7FCBEE6
:1012200030B50C4605460222FFF7E2FE214628466D
:10123000BDE8304008230122FFF7EEBE2DE9F04162
:1012400004460E4600BF1C4800F078F80028FAD18A
:1012500000222146184800F0B9F83146164800F03F
:1012600077F80721144800F06FF800BF124800F02B
:101270005FF80028FAD1104800F071F8C7B2642076
:10128000FFF7B0FE012221460B4800F09FF807212E
:10129000094800F059F800BF074800F049F8002855
:1012A000FAD1054800F052F8C5B26420FFF79AFE63
:1012B0002846BDE8F0810000000002402DE9F04121
:1012C00004460F46154600BF184800F037F80028BE
:1012D000FAD100222146154800F078F83946134823
:1012E00000F036F80321114800F02EF800BF0F4837
:1012F00000F024F80028FAD10C4800F030F8C6B20B
:1013000029460A4800F024F80521084800F01CF896
:1013100000BF064800F012F80028FAD1034800F098
:101320001EF8C6B23046BDE8F08100000000024061
:10133000406810F0400018BF01207047406810F06E
:10134000010018BF012070474160704780687047F6
:1013500081607047016A41F0100101627047406886
:1013600010F0010F05D110F0120F1CBF00F01C008F
:101370007047002070470000036A43F010030362C7
:10138000002A14BF0E4A0F4A02EB820301EB8303CB
:1013900002EB820292005B1EB3FBF2F2521EC260AD
:1013A000D0F8C02F12F0010F08BF7047064A114451
:1013B000521CB1FBF2F1491E41F08001C16070473F
:1013C000801A0600A08601007F47370142EA4101EA
:1013D000016070471649042804BF086840F4803053
:1013E00018D0052804BF086840F4003012D0062841
:1013F00012D00F2815D0102838BF7047103800F0D1
:101400001F01012202FA01F142090A4850F82200A4
:101410000160704708607047086840F480200860E9
:1014200070474FF0E020016941F00201016170470F
:1014300024ED00E04431000010B5FEF755FF002810
:1014400018BF012010BD10B5FEF755FF002818BFCA
:10145000012010BD054A20F003015158096880079A
:10146000C00E21FA00F0C0B270470000A8300000A2
:1014700006480068064A00F4E061002052F8203077
:101480008B421CBF401C0828F8D370470CED00E0CD
:1014900088300000044951F82000044940F0FD70F4
:1014A00040F0806008607047883000000CED00E07C
:1014B000FEF72ABF084A20F00303D25813688007BA
:1014C000C00E4FF0FF0C0CFA00FC23EA0C0301FAEB
:1014D00000F0184310607047A830000033B5BDF825
:1014E000042003210AE00A2392FBF3F403FB1423F4
:1014F00043540A2392FBF3F39AB2491E0029F2DA0D
:101500009DF806300A2493FBF4F303719DF806302E
:1015100093FBF4F504FB153343719DF8073093FBFF
:10152000F4F383719DF8073093FBF4F504FB153356
:10153000C3713CBD03B59DF804100A2291FBF2F182
:1015400001709DF8041091FBF2F302FB131141703E
:101550009DF8051091FBF2F181709DF8051091FB4B
:10156000F2F302FB1311C1709DF8061091FBF2F12A
:1015700001719DF8061091FBF2F302FB131141710A
:101580002421C17181710CBD084401686FF35201BF
:101590001143016012F0020F14BFB0218C210162CF
:1015A00014BF4FF4306140F60C014162704742585D
:1015B00042F00102425070470844016811F0020FE6
:1015C00014BF5108511E01617047002A826814BF80
:1015D000114322EA01018160704721F03F03184462
:1015E000036813F0020F18BF520803699A1A11F02A
:1015F000010F14BFC2618261704700007FB522A154
:1016000003C9CDE9020122A103C9CDE900010024EB
:1016100004E02148005D21490855641C082CF8DBD2
:1016200000241BE0002201211820FFF747FE1C497F
:101630000870002503E002A800F0EAFA6D1C142DE2
:10164000F9DBFF2201211820FFF738FE144908704A
:10165000FFF756FC1348FFF7C5FC641C032CE1DBC5
:1016600000240DE0002503E0684600F0D1FA6D1C6F
:10167000142DF9DBFFF744FC0A48FFF7B3FC641CA8
:10168000032CEFDB7FBD000004020901000001060E
:1016900020231124242424245D0000204B0000205A
:1016A0000000002000350C0070B504460522B4A1EE
:1016B0002046FFF7EBF8002878D10422B2A1601D84
:1016C000FFF7E4F8002872D1B1A104F10900FFF797
:1016D00095F940B9B0490888B0A101F051F8054624
:1016E00001F040F84AE1AFA104F10900FFF786F9E3
:1016F00040B9A9498878A9A101F04EF8054601F042
:1017000031F83BE1A0A104F10900FFF777F940B9F6
:10171000A149C878A1A101F03FF8054601F022F8DF
:101720002CE1A2A104F10900FFF768F980B99A49F8
:101730000888A1A101F024F8054601F013F89649A4
:10174000887896A101F028F8054601F00BF815E11C
:101750009AA104F10900FFF751F980B98E49887800
:1017600095A101F019F8054600F0FCFF8A49C878F8
:101770008AA101F011F8054600F0F4FFFEE092A105
:1017800004F10900FFF73AF990B9834908888AA162
:1017900000F0F6FF054600F0E5FF7F49C8787FA11D
:1017A00000F0FAFF054600F0DDFFE7E0D9E01FE0BA
:1017B00088A104F10900FFF721F9002892D17649A8
:1017C00008887DA100F0DCFF054600F0CBFF7249E0
:1017D000887879A100F0E0FF054600F0C3FF6E496C
:1017E000C8786EA100F0D8FF054600F0BBFFC5E049
:1017F00004227CA1601DFFF749F8002871D17BA16C
:1018000004F10900FFF7FAF840B97A49087863A1B2
:1018100000F0C2FF054600F0A5FFAFE076A104F19D
:101820000900FFF7EBF840B9724948785BA100F076
:10183000B3FF054600F096FFA0E070A104F1090097
:10184000FFF7DCF840B96B49887854A100F0A4FF99
:10185000054600F087FF91E069A104F10900FFF758
:10186000CDF880B96349087853A100F095FF05468B
:1018700000F078FF5F49487848A100F08DFF0546E9
:1018800000F070FF7AE060A104F10900FFF7B6F8FC
:1018900080B95849487848A100F07EFF054600F01D
:1018A00061FF544988783DA100F076FF054600F0BD
:1018B00059FF63E056A104F10900FFF79FF888B9CA
:1018C0004C4908783CA100F067FF054600F04AFF4C
:1018D0004849887831A100F05FFF054600F042FFDB
:1018E0004CE01FE04CA104F10900FFF787F8002845
:1018F00044D14049087830A100F04EFF054600F081
:1019000031FF3C4948782CA100F046FF054600F025
:1019100029FF3849887821A100F03EFF054600F0F4
:1019200021FF2BE005223FA1601DFEF7AFFF28BB82
:101930003E49087820A100F02FFF054600F012FF75
:101940003A4948781CA100F027FF054600F00AFF3D
:101950003649887811A100F01FFF054600F002FF0C
:101960000CE0052232A12046FEF790FF30B9324844
:101970000078012802D031A000F0F4FE70BD000014
:101980002A4745543A0000004441544500000000F5
:1019900059454152000000005600002025750D0AEF
:1019A000000000004D4F4E54480000005945415280
:1019B0004D4F4E5448000000257520004D4F4E54A9
:1019C0004844415445000000594541524441544562
:1019D00000000000594541524D4F4E544844415477
:1019E0004500000054494D4500000000484F555245
:1019F00000000000530000204D494E0053454300B5
:101A0000484F55524D494E004D494E5345430000F5
:101A1000484F555253454300484F55524D494E5338
:101A200045430000414C41524D0000005A00002047
:101A30002A5345543A000000480000200D0A507215
:101A40006573732053573220746F20737769746302
:101A50006820746F205345545F56414C5545206DA6
:101A60006F64652066697273742121210D0A00007C
:101A700010B500212220FFF7E1FB0249087008465B
:101A8000007810BD00000020014608460A4601B952
:101A9000704708E00378202B04D003781370521CA1
:101AA000401C00E0401C0378002BF3D1137000BFF2
:101AB000EEE7000010B5114800F03AFB00BF0F48F8
:101AC00000F04AFB0028FAD00C48C01C00F030FBA4
:101AD00000BF0A48C01C00F03FFB0028F9D00121DC
:101AE0000748FFF765FB03210648FFF753FB0A236E
:101AF000012203210348FFF78FFA10BD050800F00B
:101B00000050024000D0034010B51E4800F010FB0A
:101B10001D4800F00DFB1D48FFF71AFB1C48FFF79E
:101B200017FB04211B48FFF75FFB08211948FFF74B
:101B30004DFB0122184801681848FFF71DFC1748A3
:101B4000FFF708FCFF220C212220FFF7B7FB044619
:101B500000220D212220FFF7B1FB044600220E21B6
:101B60002220FFF7ABFB0446002203211820FFF7D9
:101B7000A5FB0446FF2201211820FFF79FFB044626
:101B800010BD0000002000F0010800F00208010074
:101B9000020C010000500040040000200000024040
:101BA00010B5124800F0C4FA114800F0C1FA00BFA5
:101BB0000F4800F0D1FA0028FAD00120FFF7C8FA48
:101BC00040F20140FFF7C4FA03214FF04020FFF735
:101BD00027FB60234FF4E13206480168064800F015
:101BE0007EFD06A000F0BEFD10BD0000001800F054
:101BF000000800F00400002000C000400D0A486505
:101C00006C6C6F2C776F726C64210D0A0000000001
:101C100070B5054600241DE00120A040C2B2062197
:101C20002220FFF74BFB0D490870285D0C490A5C28
:101C300005212220FFF742FB0849087042F210708C
:101C4000FFF7D0F9002205212220FFF737FB0349D7
:101C50000870641C082CDFDB70BD00000000002051
:101C60001800002008B508480068014600900748A1
:101C7000FFF760FC05484078253004494870084665
:101C8000C0782530C87008BD5A0000204B000020E5
:101C900008B508480068014600900748FFF71EFC99
:101CA0000548C07825300449C87008464079253079
:101CB000487108BD560000204B00002008B50A48B6
:101CC0000188ADF8001080788DF80200074800996F
:101CD000FFF730FC05484078253004494870084635
:101CE000C0782530C87008BD530000204B0000208C
:101CF0002DE9F003AF4D02462868AF4B1840A0F124
:101D00008053B3F5A02359D002F03809DFF8AC8234
:101D1000C2F38414B9F1100F25D0B9F1300F04BF0C
:101D200047F230504FF400130DD04FF0380090437D
:101D300004BF4FF40040C30105D012F0380F1CBFA0
:101D40000020034613D09E4F12F4605F4FF0000650
:101D500018BF00222CD057F8324044457DD307EB02
:101D6000C2025268E1E0002340461524EBE7A4F1EB
:101D70000900122822D29348D5F87CC04FF04C734A
:101D800050F824002CF01C0C072CA8BF4CF0100CB1
:101D9000C5F87CC02E6D4FF4002C16F4807FD2D194
:101DA000BCF1010C0AD02E6D16F4807FF8D0CAE782
:101DB00012F0380F18BFB9F1100F04D0BDE8F003CE
:101DC0004FF000007047C2F30268DFF8FCC14FF02B
:101DD000000257F83290E14503D307EBC202526884
:101DE00003E0521C062AF4D33246C5F8C020D5F8C9
:101DF000B020DFF8D8C102EA0C0242F00042C5F878
:101E0000B020DFF8CCC1A4F109024C1E5CF828C058
:101E1000A444BCFBF1FCD5F8B0101943C5F8B010D0
:101E200008EBC80101EB41046A4902EB420201EBF5
:101E3000C40101EB82046468C5F86441D5F86441CB
:101E40006FF0FF0808EB0C2C44EA0C0CC5F864C1D9
:101E500051F82210D5F8602100E061E002F40002A0
:101E60001143C5F86011D5F86011D5F86021C1F3B0
:101E70008921C2F30904D5F86421C2F3042202F1D6
:101E8000010CD5F8642102F01F02521CB0FBF2F0E5
:101E90004A09C2F100084443424301EB481104EBF4
:101EA0005212484302EB9020B0FBFCF04108084678
:101EB000002257F832C0844503D307EBC2004668BE
:101EC00002E0521C062AF4D3C5F8C060D5F86001C0
:101ED00010F4000F1DBFD5F8B00040F08040C5F8E9
:101EE000B000D5F8600104BF40F40000C5F86001FF
:101EF0004FF40040D5F8682112F0010F02D1401EC6
:101F00000028F7DC002808BF002148D0D5F8B00031
:101F1000184340F0010040F01040C5F8B0003EE02A
:101F2000521C062AFFF417AF3246C5F8C020D5F878
:101F3000602122F40002C5F86021D5F8B020DFF856
:101F400098C002EA0C0242F00042C5F8B020002915
:101F500008BF4FF0000C0AD0B0FBF1FCBCF1000F41
:101F600018BFACF1010C0CF10101B0FBF1F1084616
:101F7000002257F83240844203D307EBC200466880
:101F800002E0521C062AF4D3C5F8C060D5F8B000B0
:101F900043EA8C22104340F00040C5F8B000D5F869
:101FA000B00020F47000C5F8B000BDE8F0030846AA
:101FB0007047000000E00F400000FF700024F400B4
:101FC000B83300009C31000040787D0100FC0FE038
:101FD0009431000008320000FF0300EF70B44B4D55
:101FE0002A6E296F11F0004F14BF01F0700002F04B
:101FF0003000202808BF464818D005DC88B11028DA
:1020000008BF444812D009E0302808BF47F23050DA
:102010000CD0702808BF4FF4004007D070BC0020DF
:1020200070477C203C4B00EA121018584FF0FF33E9
:1020300011F0004F02D011F4006F06D001F0004CF7
:1020400002F400645CEA040C36D1D5F860C1D5F81E
:10205000644104F01F06C4F30424641C761C16FBC0
:1020600004F46400B0FBF4F0CCF309044443CCF373
:10207000892C00FB0CF0D5F810C004EB902042F442
:1020800080020CF4704CBCF5804F08BF234B13D07A
:1020900009DCBCF5005F08BF214B0DD0BCF5405FEB
:1020A00008BF204B08E0BCF5E04F08BF1E4B03D033
:1020B000BCF5104F08BF1D4B12F4800F21D011F05A
:1020C000004F19D011F0804F09D011F4006F0CD0DF
:1020D00001F0004C02F400625CEA020205D0C1F398
:1020E000C551491CB0FBF1F00BE04000C1F3865133
:1020F000491CB0FBF1F004E0C2F3C351491CB0FB32
:10210000F1F0834238BF184670BC704700E00F40C2
:1021100000093D000024F4009C310000005A6202D6
:1021200000B4C40480F0FA0240787D01002D310132
:10213000C0F307230749C0B2194401F07043C1F34B
:10214000130143EA411141EA800040F0007001228E
:102150000260704700E60F40C0F307220849C0B292
:10216000114401F07042C1F3130142EA411141EA06
:10217000800040F000700068002818BF0120704700
:1021800000EA0F404FF0E020016941F005010161D4
:1021900070474FF0E020016941F002010161704792
:1021A00010B5E948007801287ED002287DD00328A8
:1021B00002D0042866D166E0E44A1288521CE34B40
:1021C0001A80E34A127872BB1A4612884FF4487399
:1021D00092FBF3F403FB1422002A53D1DB4B1A8049
:1021E000002012E0DB4A12680244102A04DBD94ABC
:1021F00012680244103A02E0D64A126802441146BC
:10220000D54A525CD54B1A54401C0828EADBD14A07
:102210001268521CCF4B1A601A461268102A31D12C
:1022200000221A602EE0FFE7C84A12884FF4C873F4
:1022300092FBF3F403FB142222BB0022C34B1A804F
:10224000002012E0C34A12680244102A04DBC14A8B
:1022500012680244103A02E0BE4A12680244114673
:10226000BD4A525CBD4B1A54401C0828EADBB94AEF
:102270001268521CB74B1A601A461268102A01D114
:1022800000221A605EE1B14A1288521CAF4B1A80DC
:10229000B34A12788ABB1A4612884FF4167392FB1F
:1022A000F3F403FB142201E057E0ACE0002A53D121
:1022B000A64B1A80002012E0A64A12680244102A97
:1022C00004DBA44A12680244103A02E0A14A1268F0
:1022D00002441146A04A525CA04B1A54401C0828E4
:1022E000EADB9C4A1268521E9A4B1A601A46126820
:1022F000002A31DC10221A602EE0FFE7934A128890
:102300004FF4967392FBF3F403FB142222BB0022DA
:102310008E4B1A80002012E08E4A12680244102A66
:1023200004DB8C4A12680244103A02E0894A1268BF
:1023300002441146884A525C884B1A54401C0828B3
:10234000EADB844A1268521E824B1A601A461268EF
:10235000002A01DC10221A60F4E082480088401C48
:102360008049088008460088C82190FBF1F201FBF3
:102370001200002846D17B4908807B48007880F015
:102380000100794908707948007820B1012814D0FB
:10239000022836D123E07448007858B9744804788C
:1023A00003E024206D490855641C7248007884427B
:1023B000F7DD01E0FFF76CFC23E06B48007858B9CB
:1023C0006D48047803E0242064490855641C6B4878
:1023D00000788442F7DD01E0FFF770FC11E062480D
:1023E000007858B96448047803E024205B49085514
:1023F000641C624800788442F7DD01E0FFF732FC9C
:1024000000BF00BF9EE05E480088401C5C49088019
:102410005C480078012801D1FEF796FD58480088F5
:102420004FF47A7190FBF1F201FB120000287DD18C
:102430004E480078012802D002283DD13DE05248A4
:102440008078401C3C2190FBF1F201FB12004E49C8
:1024500088700846807810B901204C4908704B48B4
:102460000078B8B100204949087047484078401CBE
:1024700045494870084640783C2802D1012044492B
:102480000870414840783C2190FBF1F201FB1200BA
:102490003D4948703E48007860B100203C490870D2
:1024A00039480078401C642190FBF1F201FB1200D6
:1024B00035490870FFF702FC42E036488078401E3C
:1024C0003449887008468078FF2814D1084640783F
:1024D00058B90846007840B901202A4908702D48AB
:1024E0008078401C2B4988702AE03B20294988705D
:1024F0000120294908702848007888B10020264921
:10250000087021484078401E1F49487008464078AE
:10251000FF2802D10120214908703B201A49487048
:102520001E48007848B100201C4900E009E008700E
:1025300015480078401E14490870FFF793FB00BF50
:1025400000BF00BF00BF10BD480000206C0000208D
:102550006E00002068000020840000204B00002056
:102560006F000020760000207F0000204700002040
:102570007000002071000020720000207300002015
:10258000780000207E000020530000207A00002008
:102590007B0000205A0000207C0000207D000020ED
:1025A0004FF0E021401E4861704700000448006879
:1025B00040F470000249086002480349086070470F
:1025C00088ED00E00024F4008000002070B50121B7
:1025D000264800F0C1F805462946244800F0B6F820
:1025E00005F0500000283FD038E0204800F064F8A3
:1025F0000446601C00B936E00A2C13D11C48B0F820
:102600000001002809DD00201949B1F80011184A1D
:1026100050540120114681F8020100201449A1F80C
:1026200000011BE01248B0F800017F2809DA1049C8
:10263000B1F80001411C0E4BA3F8001119460C54CF
:102640000BE07E220A49491C481EFEF76AF9084938
:1026500081F87E407F20A1F8000100BF034800F010
:1026600039F80028C1D100BF70BD000000C0004093
:102670009400002010B50F4890F80201C0B1FEF799
:10268000DBFE044680220B4901F18000FEF78BF946
:102690000020084981F802010CB9FEF7D4FE054874
:1026A0008030FFF7F1F903488030FEF7FDFF00BFEF
:1026B00010BD000094000020816911F0100F0CBFC4
:1026C00000684FF0FF307047826912F0200FFBD195
:1026D000016070478069012121EA10107047D0F82D
:1026E00018C01CF0080FFAD1D0F82CC02CF0100C38
:1026F000C0F82CC0D0F830C02CF0010C2CF4407C79
:10270000C0F830C0D0F830C0B1EB021F34BF4CF07D
:10271000200C2CF0200CC0F830C038BF5208C90083
:10272000B1FBF2F1491C49088A09426201F03F01FC
:102730008162C36200218161C16A41F01001C162FE
:10274000016B40F2013211430163704741647047ED
:10275000826B114381637047002914BF006CC06B0A
:102760007047000010B5044604E014F8011B03484C
:10277000FFF7AAFF20780028F7D110BD00C0004065
:1027800070B504460D46224629460248FDF756FE1E
:10279000004870BD9801002070B504460D462246E1
:1027A00029460248FDF74AFE004870BD9801002006
:1027B00030380A2801D201207047002070470000FD
:1027C00008B5F949F948FFF793FAF949086008464E
:1027D00000684FF47A71B0FBF1F42046FFF7E0FE99
:1027E000FFF7D0FCFFF7D5FCFFF764F9FFF78CF992
:1027F000FFF7D6F9FEF74CFBFEF700FF1520FEF7BA
:10280000E9FD5021EB48FFF7A3FFFEF71CFEFEF7A2
:102810004FFEE94908600320FEF73CFE0321152026
:10282000FEF748FEE0210F20FEF744FEFEF720FEF3
:10283000E24908601520FEF70DFEE14908600F200F
:10284000FEF708FEDF490860DCE2DF48FFF7E0F949
:10285000FFF70EF9DD490870FFF70CFFDC48007840
:10286000052836D2DFE800F0039EF4366A00D74828
:10287000007800F0010070B9D648007800F001003F
:1028800048B1D5480078401C032190FBF1F201FBD0
:102890001200D1490870CE480178CC480078FEF784
:1028A0005DFBCB490870C9480078CA490870CA481E
:1028B000007838B1012802D0022809D105E0FFF7DD
:1028C000FDF905E0FFF7E4F902E0FFF7CBF900BFFF
:1028D00000BF96E2BD48007800F0400070B9BD48E6
:1028E000007800F0400048B1BC490978481C00EB72
:1028F000D0714910A0EB4101B84A1170B848006886
:1029000001460090B748FEF7E9FDB7480188ADF8E9
:10291000001080788DF80200B24808300099FEF768
:1029200009FEAB480178A9480078FEF717FBA849D3
:102930000870A6480078A749087062E2A3480078AA
:1029400000F0200070B9A348007800F0200048B1E2
:10295000A6490978481C00EBD0714910A0EB410151
:10296000A24A11709E480068014600909D48FEF7FB
:10297000B5FD9D480188ADF8001080788DF8020003
:10298000984808300099FEF7D5FD914801788F48A6
:102990000078FEF7E3FA8E4908708C4800788D497C
:1029A00008702EE28C48007820B1012876D00228E9
:1029B00075D176E18548007800F00200A8BB854813
:1029C000007800F0020080B38948007820B1012827
:1029D0000DD002281DD115E086480078001D8549DC
:1029E000087085480078801C8349087011E0814890
:1029F0000078801C7F4908707F480078801C7E49E1
:102A0000087006E000207B49087003207A490870AE
:102A100000BF00BF76480078401C032190FBF1F214
:102A200001FB12007249087076E0FFE76748007802
:102A300000F00800A0BB6748007800F0080078B3F9
:102A40006B48007828B101280FD0022825D118E062
:102A5000CAE163480088401C42F2107190FBF1F219
:102A600001FB12005E49088017E05D488078401C39
:102A70005B498870084680780D2801D10120887054
:102A80000BE05748C078401C5549C8700846C078CC
:102A9000202801D10120C87000BF3DE03DE095E154
:102AA000FFE74A48007800F00400A8BB49480078D6
:102AB00000F0040080B34E48007820B1012812D005
:102AC000022828D11BE046480088401E444908805F
:102AD000084600884FF6FF71884203D142F20F701A
:102AE0003F49088017E03E488078401E3C49887086
:102AF00008468078FF2801D10C2088700BE0384808
:102B0000C078401E3649C8700846C078FF2801D1F9
:102B10001F20C87000BF00BF58E12C48007800F0AB
:102B2000020018BB2B48007800F00200F0B13348D7
:102B30000078801C062190FBF1F201FB12002F4966
:102B400008702F480078801C062190FBF1F201FBF1
:102B500012002B49087026480078401C032190FB86
:102B6000F1F201FB12002249087099E01748007841
:102B700000F00800B8B91748007800F0080090B1DC
:102B80001B48007820B101283CD0022850D144E0F5
:102B900015480078401C182190FBF1F201FB12004F
:102BA0001149087044E044E0002D3101500500F166
:102BB0000400002000C000400C000020080000209D
:102BC00014000020100000204B00002049000020CD
:102BD000480000204A000020470000206E0000202E
:102BE0005600002084000020530000206F000020C9
:102BF000740000207000002071000020720000208E
:102C00007300002080484078401C3C2190FBF1F28A
:102C100001FB12007C4948700AE07B488078401C28
:102C20003C2190FBF1F201FB12007749887000BF54
:102C300036E07648007800F0040088BB74480078DD
:102C400000F0040060B37348007820B101280ED072
:102C5000022824D117E06C480078401E6A490870A9
:102C600008460078FF2801D11720087017E0664851
:102C70004078401E6449487008464078FF2801D1DA
:102C80003B2048700BE060488078401E5E498870A9
:102C900008468078FF2801D13B20887000BF00BF24
:102CA00094E05A48007800F0020018BB58480078B9
:102CB00000F00200F0B158480078801C062190FB1B
:102CC000F1F201FB12005449087054480078801C4E
:102CD000062190FBF1F201FB1200504908704D48AB
:102CE0000078401C032190FBF1F201FB12004949DE
:102CF00008706AE04548007800F0080070BB44485E
:102D0000007800F0080048B34248007820B101285C
:102D10000DD0022821D115E041480078401C6421E3
:102D200090FBF1F201FB12003D49087015E03C48B0
:102D30004078401C3C2190FBF1F201FB1200384925
:102D400048700AE036488078401C3C2190FBF1F244
:102D500001FB12003249887000BF36E02B48007832
:102D600000F0040088BB2A48007800F0040060B33B
:102D70002848007820B101280ED0022824D117E07D
:102D800027480078401E2649087008460078FF282A
:102D900001D16320087017E021484078401E204987
:102DA000487008464078FF2801D13B2048700BE06E
:102DB0001B488078401E1A49887008468078FF2892
:102DC00001D13B20887000BF00BF00BF00BF154885
:102DD00001780E480078FEF7C1F8124908700B48D8
:102DE00000780B4908700CE00E480178074800781D
:102DF000FEF7B4F80B4908700448007804490870DD
:102E000000BF00BF21E50000530000204900002062
:102E10004A0000207400002072000020730000208F
:102E20005A0000204800002010B500290AD0087878
:102E3000002807D005487844FDF7E0FD002801D0C0
:102E4000002010BD0248784410BD000016060000A6
:102E50000E0600004FF04070E1EE100A70470000CF
:102E600000400040100000000080054010000000FD
:102E700000500040110000000090054011000000CB
:102E8000006000401200000000A005401200000099
:102E9000007000401300000000B005401300000067
:102EA000004002401400000000C005401400000073
:102EB000005002402E00000000D005402E0000000F
:102EC000006002402F00000000E005402F000000DD
:102ED000007002403000000000F0054030000000AB
:102EE00000D00340460000000000064046000000FD
:102EF0000010064047000000002006404800000087
:102F0000003006407F0000000040064080000000C6
:102F10000050064084000000006006408C00000065
:102F2000004000401000000000800540100000003C
:102F3000005000401100000000900540110000000A
:102F4000006000401200000000A0054012000000D8
:102F5000007000401300000000B0054013000000A6
:102F6000004002401400000000C0054014000000B2
:102F7000005002402E00000000D005402E0000004E
:102F8000006002402F00000000E005402F0000001C
:102F9000007002403000000000F0054030000000EA
:102FA00000D0034043000000000006404300000042
:102FB00000100640440000000020064045000000CC
:102FC0000030064058000000004006405900000054
:102FD000005006405C0000000060064064000000F5
:102FE000007006406C000000008006406D0000008C
:102FF000009006407F000000004000400080054037
:1030000000500040009005400060004000A00540D6
:103010000070004000B005400040024000C0054084
:103020000050024000D005400060024000E0054032
:103030000070024000F0054000D003400000064050
:103040000010064000100640002006400020064008
:103050000030064000300640004006400040064078
:1030600000500640005006400060064000600640E8
:103070000070064000700640008006400080064058
:103080000090064000900640000700000006000087
:103090000005000000040000000300000002000022
:1030A00000010000000000000000000018ED00E03A
:1030B0001CED00E020ED00E000E400E004E400E0AE
:1030C00008E400E00CE400E010E400E014E400E0B8
:1030D00018E400E01CE400E020E400E024E400E068
:1030E00028E400E02CE400E030E400E034E400E018
:1030F00038E400E03CE400E040E400E044E400E0C8
:1031000048E400E04CE400E050E400E054E400E077
:1031100058E400E05CE400E060E400E064E400E027
:1031200068E400E06CE400E070E400E074E400E0D7
:1031300078E400E07CE400E080E400E084E400E087
:1031400088E400E000E100E004E100E008E100E0E4
:103150000CE100E010E100E080E100E084E100E04B
:1031600088E100E08CE100E090E100E000E200E0B6
:1031700004E200E008E200E00CE200E010E200E01F
:1031800080E200E084E200E088E200E08CE200E01F
:1031900090E200E000688909001C4E0E40420F00DA
:1031A00000201C0080841E0000802500999E3600AF
:1031B0000040380000093D0000803E0000004B0048
:1031C000404B4C0000204E00808D5B0000C05D0035
:1031D0000080700000127A0000007D008096980048
:1031E000001BB7000080BB00C0E8CE00647ADA00A4
:1031F0000024F4000000FA0080A81201002D310123
:1032000000366E0140787D014000000000000000A3
:10321000000100003E000800000000000001000066
:10322000A000000002000000000100003454010072
:1032300000000000000100002B70060000000000EC
:103240000001000028000000000000000001000054
:103250002700010000000000000100002000000025
:10326000000000000001000050000000020000000B
:10327000000100001AAC0000000000000001000086
:1032800017940900000000000001000016980500D6
:103290000000000000010000140000000000000019
:1032A0000001000013800800000000000001000081
:1032B000A000000008000000000100001000000055
:1032C00000000000000100002800000002000000D3
:1032D00000010000400000000400000000010000A8
:1032E0006000000000000000000100005D000C0014
:1032F000000000000001000050000000000000007D
:10330000000100004E00020000000000000100006B
:1033100041AC010000000000000100003C00000082
:1033200000000000000100003A80090000000000D9
:10333000000100003000000000000000000100005B
:10334000280000000000000000010000270001002C
:1033500000000000000100002360060000000000E3
:1033600000010000216008000000000000010000D2
:103370001E00000000000000000100001DC004004D
:1033800000000000000100005000000002000000EA
:103390000001000018000000000000000001000013
:1033A00014000000000000000001000060000000A8
:1033B00004000000000100000024F4003000300090
:1033C000005A62029100910000879303D200D2005C
:1033D00000B4C4041301130100E1F50554015401C4
:1033E000000E270795019501000000000000000075
:1033F000303132333435363738394142434445462B
:103400004030580030313233343536373839616224
:103410006364656640307800040000080000000026
:103420000000000200010000100000005C350000F8
:1034300000000020840000003C020000E035000095
:1034400084000020F4050000580200001001000074
:1034500043000000F8FFFFFF004040404040404074
:103460004040414141414140404040404040404057
:1034700040404040404040404005020202020202FB
:10348000020202020202020202202020202020204A
:10349000202020020202020202029090909090905E
:1034A000101010101010101010101010101010101C
:1034B0001010101002020202020288888888888890
:1034C000080808080808080808080808080808087C
:1034D0000808080802020202400000000000000084
:1034E00000000000000000000000000000000000DC
:1034F00000000000000000000000000000000000CC
:1035000000000000000000000000000000000000BB
:1035100000000000000000000000000000000000AB
:10352000000000000000000000000000000000009B
:10353000000000000000000000000000000000008B
:10354000000000000000000000000000000000007B
:10355000000000000000000000000000000000006B
:10356000000000000000000000000000000000005B
:10357000000000003F065B4F666D7D077F6F777C24
:10358000395E79713D760F0E753837545C7367314B
:1035900049783E1C7E646E5900BF86DBCFE6EDFDA8
:1035A00087FFEF0000FFFF00000000000000001197
:1035B000173AE907051D00000F242424242424249D
:1035C00024000000000000000000000000030001D3
:1035D0000000000000000000000000010024F400D2
:0400000500000201F4
:00000001FF
