:020000040000FA
:100000007806002011030000190300001B03000004
:100010001D0300001F03000021030000000000007A
:1000200000000000000000000000000023030000AA
:10003000250300000000000027030000B126000097
:100040002B0300002D0300002F03000031030000EC
:1000500033030000052B00003703000039030000C4
:100060003B0300003D0300003F030000410300008C
:10007000430300004503000047030000490300005C
:100080004B0300004D0300004F030000510300002C
:1000900053030000550300005703000059030000FC
:1000A0005B0300005D0300005F03000061030000CC
:1000B000630300006503000067030000690300009C
:1000C0006B0300006D0300006F030000710300006C
:1000D000730300007503000077030000790300003C
:1000E0007B0300007D0300007F030000810300000C
:1000F00083030000850300008703000089030000DC
:100100008B0300008D0300008F03000091030000AB
:10011000930300009503000097030000990300007B
:100120009B0300009D0300009F030000A10300004B
:10013000A3030000A5030000A7030000A90300001B
:10014000AB030000AD030000AF030000C9030000D3
:100150000000000000000000CB030000CD03000001
:10016000CF030000D103000000000000D303000013
:10017000D5030000D7030000D9030000DB03000013
:10018000DD030000DF030000E1030000E3030000E3
:10019000E5030000E7030000E9030000EB030000B3
:1001A000ED030000EF030000F1030000F303000083
:1001B000F5030000F7030000F9030000FB03000053
:1001C000FD030000FF030000010400000304000021
:1001D0000504000007040000090400000B040000EF
:1001E0000D0400000F0400001104000013040000BF
:1001F0001504000017040000190400001B0400008F
:1002000000F002F800F061F80AA090E8000C8244C7
:100210008344AAF10107DA4501D100F056F8AFF2A4
:10022000090EBAE80F0013F0010F18BFFB1A43F0D4
:100230000103184784380000A4380000103A24BF96
:1002400078C878C1FAD8520724BF30C830C144BF3B
:1002500004680C607047000000230024002500267D
:10026000103A28BF78C1FBD8520728BF30C148BF19
:100270000B607047692900F05781642900F05481B0
:10028000752900F051816F2900F0E881782900F08C
:100290000D820368DB0928BF41F08001632900F06B
:1002A0007084E32900F08384002070471FB503F0B9
:1002B00017F900F0D3FD04000020002103F0FAF844
:1002C000401C60601FBD10B510BD00F0A2FD1146BE
:1002D000FFF7ECFF02F018FD00F0C4FD03B4FFF7D8
:1002E000F2FF03BC00F0CCFDEFF3108072B6704754
:1002F000EFF310807047EFF3108062B6704730BFA5
:10030000704780F311887047EFF311807047000049
:100310004548804745480047FEE7FEE7FEE7FEE721
:10032000FEE7FEE7FEE7FEE7FEE7FEE7FEE7FEE7A5
:10033000FEE7FEE7FEE7FEE7FEE7FEE7FEE7FEE795
:10034000FEE7FEE7FEE7FEE7FEE7FEE7FEE7FEE785
:10035000FEE7FEE7FEE7FEE7FEE7FEE7FEE7FEE775
:10036000FEE7FEE7FEE7FEE7FEE7FEE7FEE7FEE765
:10037000FEE7FEE7FEE7FEE7FEE7FEE7FEE7FEE755
:10038000FEE7FEE7FEE7FEE7FEE7FEE7FEE7FEE745
:10039000FEE7FEE7FEE7FEE7FEE7FEE7FEE7FEE735
:1003A000FEE7FEE7FEE7FEE7FEE7FEE7FEE7FEE725
:1003B000FEE7FEE7FEE7FEE7FEE7FEE7FEE7FEE715
:1003C000FEE7FEE7FEE7FEE7FEE7FEE7FEE7FEE705
:1003D000FEE7FEE7FEE7FEE7FEE7FEE7FEE7FEE7F5
:1003E000FEE7FEE7FEE7FEE7FEE7FEE7FEE7FEE7E5
:1003F000FEE7FEE7FEE7FEE7FEE7FEE7FEE7FEE7D5
:10040000FEE7FEE7FEE7FEE7FEE7FEE7FEE7FEE7C4
:10041000FEE7FEE7FEE7FEE7FEE7FEE704480549E4
:10042000034A054B70470000E52A00000102000066
:100430007802002078060020780200200FB41CB556
:10044000074B06AA7B4469460090059800F077FBAD
:100450000020694600F086FB1CBC5DF814FB000020
:100460001D07000070B5044685690068C10601D506
:10047000302600E02026C00707D070BDD4E9012156
:1004800030469047206A401C20626D1EF6D570BD34
:1004900070B5044685690078C00707D170BDD4E9FE
:1004A000012120209047206A401C20626D1EF6D555
:1004B00070BD09684A0501D540B27047C905FCD531
:1004C00000B2704709684A0501D5C0B27047C90536
:1004D000FCD580B2704770B50C460546012A05D0A0
:1004E0002878800600D5EA69002302E0012305E0B0
:1004F0005B1C934202D2E05C0028F9D1A869E6189F
:10050000C01AA861286A184428622846FFF7AAFF83
:1005100004E0D5E9012114F8010B9047B442F8D367
:100520002846FFF7B5FF70BD2DE9F04106460024CF
:1005300010687529314616A510D0FFF7BAFF0028BC
:1005400002DA404213A507E031688A0701D512A5F7
:1005500002E0490704D511A5012401E0FFF7B2FF2D
:1005600000210A2206F1240709E0B0FBF2FCB0FBEF
:10057000F2F302FB1C00303078541846491C002866
:10058000F3D123462A463046BDE8F04100F079BA5F
:10059000000000002D0000002B00000020000000E3
:1005A0002DE9FF5F15468A460446DFF8AC80F84423
:1005B0000027D8E900103E46CDE9001010E03AF8D7
:1005C00016106A4602A800F0FEFA411C07D02178F6
:1005D000890603D5E269391891420DD80744761C83
:1005E0002078800602D5E069B84205DDAE42E6DB40
:1005F0003AF816000028E2D1A069C01BA06120468D
:10060000FFF730FFD8E90010CDE90010002017E017
:100610003AF818106A4602A800F0D5FAB0F1FF3F88
:1006200081460BD000250DF1080B05E0D4E901212E
:100630001BF8050090476D1C4D45F7D308F10100EC
:10064000B0428046E4DB206A384420622046FFF74F
:100650001FFFBDE8FF9F0000C234000070B50446D4
:1006600021461068FFF72EFF002104F1240505E064
:1006700000F007023032C0086A54491C0028F7D144
:100680002068002307A2050707D5800600D421B102
:10069000E069012304A2401EE0612046BDE87040ED
:1006A00000F0EFB9000000003000000070B5044613
:1006B0000D4621461068FFF705FF2188090502D580
:1006C0000F4A7A4402E00E4A7A440E32002104F1C5
:1006D000240305E000F00F060009965D5E54491CF6
:1006E0000028F7D120780023000704D5702D02D010
:1006F00009B1022311322046BDE8704000F0C1B9B3
:10070000B63300002DE9F05F894604464FF0000A39
:10071000DFF874B1FB44C0F820A02046E1688847A8
:10072000002874D0252806D0D4E901219047206AFA
:10073000401C2062F1E700265F462046E1688847BA
:100740002028054607DB312D05D2781910F8200C3A
:1007500008B10643F1E7B00701D526F00406C4F856
:100760001CA00027C4F818A02A2D09D0284602F0A2
:10077000C3FA38B304EB8708303DC8F8185019E0C5
:1007800059F8041B204604EB87029161E168884711
:10079000012F054618D1E069002820DA26F020064E
:1007A0001DE0D8F8180000EB800005EB4000303861
:1007B000C8F818002046E1688847054602F09CFA10
:1007C0000028EED1012F0AD02E2D08D12046E16855
:1007D00088477F1C0546022F46F02006C4DBA0692F
:1007E000002803DA404246F00106A061F00701D07C
:1007F00026F010066C2D0BD0682D09D04C2D39D069
:100800006A2D35D0742D35D07A2D33D016E038E0EE
:10081000E1682F4620468847B842054609D16C2F2B
:1008200026D04FF48060E16806432046884705469D
:1008300004E06C2F1AD04FF4807006430DB3A5F17D
:100840004100192802D8203546F400664A46294658
:10085000204626604E46FFF70DFD80B101280BD0E3
:10086000F61D26F0070000F1080956E74020E4E7EE
:100870008020D8E70020D6E706F104094DE7284696
:1008800052E7206ABDE8F09F8C33000040EA010384
:1008900070B59B072ED14FF00136042A2AD308C821
:1008A00010C99D1B9D43121F15EAC61517D0D8B25B
:1008B000E1B2401A50EA056110D198B2A1B2401AD3
:1008C00050EA05410AD123F07F4024F07F41401ACD
:1008D00050EA052102D1180EA0EB146070BDA342AE
:1008E000DBD018BA21BA884201D9012070BD4FF07F
:1008F000FF3070BD0AB9002070BD10F8013B11F83F
:10090000014B63B1A3420AD1521E08D010F8013B3B
:1009100011F8014B1BB1A34201D1521EEDD1181B9E
:1009200070BD431A28BF9A4240F26D81032A1044D9
:10093000114440F2268010F0030F1EBF11F8013D54
:10094000521E00F8013D10F0030F7FF4F6AF11F0D6
:10095000030300F0B081083AC0F00B8051F8043D69
:10096000083A51F804CD40F8043D40F804CDFFF7B3
:10097000F3BF121D5CBF51F8043D40F8043DAFF3D6
:100980000080D20724BF11F8013D11F801CD48BF06
:1009900011F8012C24BF00F8013D00F801CD48BF3B
:1009A00000F8012C704710B5044610F0030F08BF83
:1009B00011F0030F40F015804FF0013E121FC0F2FE
:1009C0000E8051F8043BA3EB0E0C2CEA030C1CEA3E
:1009D000CE1C08BF40F8043BF0D0A1F1040102F1A5
:1009E0000402521E08DB11F8013B002B00F8013B0A
:1009F000F7D1114600F089F9204610BD4FF0013CB7
:100A000050F8042B51F8043B9A4221D1A2EB0C037D
:100A1000934313EACC1317D150F8042B51F8043B3D
:100A20009A4215D1A2EB0C03934313EACC130BD1DA
:100A300050F8042B51F8043B9A4209D1A2EB0C0365
:100A4000934313EACC13DBD04FF00000704700BF94
:100A5000D01A01BAB1FA81F101F0180122FA01F0BD
:100A6000CB40C1F12001DBB2C0B2C01A2CFA01F3B5
:100A7000D11A914311EAC311E6D17047704770470C
:100A800070472DE9F0470D4699469246044600F11D
:100A900024080168880604D5E06921F0100121606E
:100AA00000E00120A84201DD471B00E00027A1690A
:100AB0007A1902EB0900081AA0612078C00602D456
:100AC0002046FFF7CFFC002608E0D4E901211AF800
:100AD00006009047206A401C761C20624E45F4DBDD
:100AE0002078C0060AD52046FFF7BCFC06E0D4E912
:100AF000012130209047206A401C2062381EA7F157
:100B00000107F4DC07E0D4E9012118F8050090475B
:100B1000206A401C2062281EA5F10105F3DC204656
:100B2000FFF7B6FC2078000602D50220BDE8F0876A
:100B30000120FBE701694A1C02610878704700B593
:100B40008FB0CDE901310021059105497944CDE906
:100B5000031011466846FFF7D5FD0FB000BD000039
:100B6000E5FFFFFF0A6802F8010B0A60704710B545
:100B7000436913B1AFF3008001E0FFF7ACFC012043
:100B800010BD127800F124010A7000224A7001227F
:100B9000EDE711684FF0FF32E9E710B5436913B193
:100BA000AFF3008001E0FFF7FBFC012010BD1288CD
:100BB00000F1240182840022C2840122EDE7116841
:100BC0004FF0FF32E9E770B516460C46054600F0D7
:100BD000BFF8036893F80101012806D0FF2C0FD855
:100BE000185D68B101202C7070BDD3F80701324642
:100BF000214603F2071303442846BDE87040184716
:100C00004FF0FF3070BD032A40F2308010F0030C2B
:100C100000F0158011F8013BBCF1020F624498BF4F
:100C200011F801CB00F8013B38BF11F8013BA2F1EC
:100C3000040298BF00F801CB38BF00F8013B11F067
:100C4000030300F08D80083AC0F0088051F8043B9F
:100C5000083A51F804CBA0E80810F5E7121D5CBF74
:100C600051F8043B40F8043BAFF30080D20724BFA7
:100C700011F8013B11F801CB48BF11F8012B24BF3B
:100C800000F8013B00F801CB48BF00F8012B70478A
:100C9000431A28BF9A4240F26380104410F0030FB9
:100CA00011441EBF11F8013D521E00F8013D10F025
:100CB000030F7FF4F6AF103AC0F00A8010B531E9A7
:100CC0001850103A20E91850BFF4F9AFBDE81040B1
:100CD000530724BF31E9081020E9081044BF51F838
:100CE000043D40F8043D12F0030F08BF7047D207DF
:100CF00028BF31F8023D48BF11F8012C28BF20F869
:100D0000023D48BF00F8012C70474FF00002042953
:100D1000C0F0128010F0030C00F05680CCF1040CEF
:100D2000BCF1020F18BF00F8012BA8BF20F8022B5E
:100D3000A1EB0C0100F048B85FEAC17C24BF00F8C9
:100D4000012B00F8012B48BF00F8012B7047000071
:100D500010B500F083F8001D10BD00BF592700003A
:100D600010B5203AC0F00B80B1E81850203AA0E846
:100D70001850B1E81850A0E81850BFF4F5AF5FEA7A
:100D8000027C24BFB1E81850A0E8185044BF18C92D
:100D900018C0BDE810405FEA827C24BF51F8043BD4
:100DA00040F8043B08BF7047D20728BF31F8023B28
:100DB00048BF11F8012B28BF20F8023B48BF00F8BC
:100DC000012B70474FF0000200B51346944696463B
:100DD000203922BFA0E80C50A0E80C50B1F120014E
:100DE000BFF4F7AF090728BFA0E80C5048BF0CC0FC
:100DF0005DF804EB890028BF40F8042B08BF70475A
:100E000048BF20F8022B11F0804F18BF00F8012BCB
:100E10007047754600F030F8AE4605006946534607
:100E200020F00700854618B020B5FFF7F7FABDE8B7
:100E300020404FF000064FF000074FF000084FF041
:100E4000000B21F00701AC46ACE8C009ACE8C009D2
:100E5000ACE8C009ACE8C0098D467047004870474F
:100E60003802002010B50446AFF300802046BDE8EC
:100E70001040FFF733BA0000004870471802002006
:100E800001491820ABBEFEE72600020070470000B3
:100E900070B501F02BFB054640F20B20B5FBF0F0DE
:100EA000441E124801F0CCFB114801F0C9FB20217F
:100EB000104800F0A7F9104800F04AF900224FF45A
:100EC00080710E4800F060FB22464FF480710B48A1
:100ED00000F072FB620840F20711084800F07DFB49
:100EE0004FF48071054800F062FB70BD004000F0D7
:100EF000090800F0001006400614090000800240B6
:100F000010B5002410E00120A040C2B2062122202A
:100F100000F0D4F90649087000220521222000F0D3
:100F2000CDF903490870641C082CECDB10BD0000EF
:100F30000000002010B500228021024800F045FB8F
:100F400010BD00000080024010B50122802102483F
:100F500000F03BFB10BD00000080024070B504466D
:100F60000D4604F0010040B91D48007800F0010072
:100F700018B1FFF7DFFF002070BD04F0020040B998
:100F80001748007800F0020018B1FFF7D3FF0120E6
:100F9000F2E704F0800040B91148007800F08000CA
:100FA00018B1FFF7C7FF0220E6E704F0400040B9A0
:100FB0000B48007800F0400018B1FFF7BBFF03209A
:100FC000DAE704F0200040B90548007800F020007E
:100FD00018B1FFF7AFFF0420CEE72846CCE70000AA
:100FE0004A000020002100E0491C8142FCD37047E8
:100FF000D0F8003412F0010F14BF0B438B43C0F83C
:10100000003412F0020FD0F8202414BF114322EA5A
:101010000101C0F8201470472DE9F00301264FF0BC
:10102000000C0325C2F3411706FA0CF40C4211D050
:10103000D0F8C48F4FEA4C0405FA04F928EA0908ED
:10104000C0F8C48FD0F8C48F07FA04F448EA040447
:10105000C0F8C44F0CF1010C0CF0FF0CBCF1080FF0
:10106000E2D3D0F800C512F0010F14BF4CEA010C16
:101070002CEA010CC0F800C5D0F804C512F0020F2C
:1010800014BF4CEA010C2CEA010CC0F804C5D0F8DE
:1010900008C512F0040F14BF4CEA010C2CEA010C35
:1010A000C0F808C5D0F818C512F0080F14BF4CEAF4
:1010B000010C2CEA010CC0F818C512F0100FD0F882
:1010C0003C2514BF0A438A43C0F83C25D0F80C25C0
:1010D00013F0010F14BF0A438A43C0F80C25D0F85F
:1010E000102513F0020F14BF0A438A43C0F81025DD
:1010F000D0F8142513F0040F14BF0A438A43C0F834
:101100001425D0F81C2513F0080F14BF0A438A4396
:10111000C0F81C25D0F8442513F4007F14BF0A43FF
:101120008A43C0F84425D0F8402513F4407F14BF0B
:101130000A438A43C0F84025D0F82825002B0CBF6D
:10114000114322EA0101C0F82815BDE8F0037047F9
:101150000E4AC0F30741D26E01238B401A420C4A5B
:101160001ABF02EBC101496852F83110020AD1F8E6
:101170002C354FF00F0C0CFA02FC00F00F0023EAA4
:101180000C0390401843C1F82C05704700E00F4055
:101190008436000030B50C4605460022FFF728FFD4
:1011A00021462846BDE8304008230122FFF734BF1E
:1011B00030B50C46054608230122FFF72DFF2146D6
:1011C0002846BDE830400122FFF712BF30B50C467B
:1011D00005460222FFF70CFF21462846BDE83040B5
:1011E00009230122FFF718BF30B50C46054602223D
:1011F000FFF7FEFE21462846BDE8304008230122C5
:10120000FFF70ABF30B50C4605460222FFF7F0FE95
:1012100021462846BDE8304008230122FFF7FCBEE6
:1012200030B50C4605460222FFF7E2FE214628466D
:10123000BDE8304008230122FFF7EEBE2DE9F04162
:1012400004460E4600BF1C4800F078F80028FAD18A
:1012500000222146184800F0B9F83146164800F03F
:1012600077F80721144800F06FF800BF124800F02B
:101270005FF80028FAD1104800F071F8C7B2642076
:10128000FFF7B0FE012221460B4800F09FF807212E
:10129000094800F059F800BF074800F049F8002855
:1012A000FAD1054800F052F8C5B26420FFF79AFE63
:1012B0002846BDE8F0810000000002402DE9F04121
:1012C00004460F46154600BF184800F037F80028BE
:1012D000FAD100222146154800F078F83946134823
:1012E00000F036F80321114800F02EF800BF0F4837
:1012F00000F024F80028FAD10C4800F030F8C6B20B
:1013000029460A4800F024F80521084800F01CF896
:1013100000BF064800F012F80028FAD1034800F098
:101320001EF8C6B23046BDE8F08100000000024061
:10133000406810F0400018BF01207047406810F06E
:10134000010018BF012070474160704780687047F6
:1013500081607047016A41F0100101627047406886
:1013600010F0010F05D110F0120F1CBF00F01C008F
:101370007047002070470000036A43F010030362C7
:10138000002A14BF0E4A0F4A02EB820301EB8303CB
:1013900002EB820292005B1EB3FBF2F2521EC260AD
:1013A000D0F8C02F12F0010F08BF7047064A114451
:1013B000521CB1FBF2F1491E41F08001C16070473F
:1013C000801A0600A08601007F47370142EA4101EA
:1013D000016070471649042804BF086840F4803053
:1013E00018D0052804BF086840F4003012D0062841
:1013F00012D00F2815D0102838BF7047103800F0D1
:101400001F01012202FA01F142090A4850F82200A4
:101410000160704708607047086840F480200860E9
:1014200070474FF0E020016941F00201016170470F
:1014300024ED00E0D037000010B5FEF755FF00287E
:1014400018BF012010BD10B5FEF755FF002818BFCA
:10145000012010BD054A20F003015158096880079A
:10146000C00E21FA00F0C0B270470000343700000F
:1014700006480068064A00F4E061002052F8203077
:101480008B421CBF401C0828F8D370470CED00E0CD
:1014900014370000044951F82000044940F0FD7061
:1014A00040F0806008607047143700000CED00E0E9
:1014B000FEF72ABF084A20F00303D25813688007BA
:1014C000C00E4FF0FF0C0CFA00FC23EA0C0301FAEB
:1014D00000F01843106070473437000033B5BDF892
:1014E000042003210AE00A2392FBF3F403FB1423F4
:1014F00043540A2392FBF3F39AB2491E0029F2DA0D
:101500009DF806300A2493FBF4F303719DF806302E
:1015100093FBF4F504FB153343719DF8073093FBFF
:10152000F4F383719DF8073093FBF4F504FB153356
:10153000C3713CBD03B59DF804100A2291FBF2F182
:1015400001709DF8041091FBF2F302FB131141703E
:101550009DF8051091FBF2F181709DF8051091FB4B
:10156000F2F302FB1311C1709DF8061091FBF2F12A
:1015700001719DF8061091FBF2F302FB131141710A
:101580002421C17181710CBD084401686FF35201BF
:101590001143016012F0020F14BFB0218C210162CF
:1015A00014BF4FF4306140F60C014162704742585D
:1015B00042F00102425070470844016811F0020FE6
:1015C00014BF5108511E01617047002A826814BF80
:1015D000114322EA01018160704721F03F03184462
:1015E000036813F0020F18BF520803699A1A11F02A
:1015F000010F14BFC2618261704700007FB522A154
:1016000003C9CDE9020122A103C9CDE900010024EB
:1016100004E02148005D21490855641C082CF8DBD2
:1016200000241BE0002201211820FFF747FE1C497F
:101630000870002503E002A800F058FD6D1C142D71
:10164000F9DBFF2201211820FFF738FE144908704A
:10165000FFF756FC1348FFF7C5FC641C032CE1DBC5
:1016600000240DE0002503E0684600F03FFD6D1CFE
:10167000142DF9DBFFF744FC0A48FFF7B3FC641CA8
:10168000032CEFDB7FBD000004020901000001060E
:101690002023112424242424600000204B00002057
:1016A0000000002000350C0070B50446204601F013
:1016B000FDFAFEA001F0FAFA0522FDA12046FFF78F
:1016C000E5F8002878D10422FBA1601DFFF7DEF8C1
:1016D000002872D1FAA104F10900FFF78FF940B98F
:1016E000F9490888F9A101F0EFFA054601F0DEFAA0
:1016F0003EE3F8A104F10900FFF780F940B9F2498F
:101700008878F2A101F0ECFA054601F0CFFAFCE38B
:10171000E9A104F10900FFF771F940B9EA49C87875
:10172000EAA101F0DDFA054601F0C0FAEDE3EBA114
:1017300004F10900FFF762F980B9E3490888EAA1DA
:1017400001F0C2FA054601F0B1FADF498878DFA15D
:1017500001F0C6FA054601F0A9FAD6E3E3A104F1C7
:101760000900FFF74BF980B9D7498878DEA101F06D
:10177000B7FA054601F09AFAD349C878D3A101F027
:10178000AFFA054601F092FABFE3DBA104F10900CC
:10179000FFF734F990B9CC490888D3A101F094FA45
:1017A000054601F083FAC849C878C8A101F098FA43
:1017B000054601F07BFAA8E30AE11FE0D1A104F19C
:1017C0000900FFF71BF9002892D1BF490888C6A17C
:1017D00001F07AFA054601F069FABB498878C2A19E
:1017E00001F07EFA054601F061FAB749C878B7A161
:1017F00001F076FA054601F059FA86E30422C5A104
:10180000601DFFF743F800287AD1C4A104F1090054
:10181000FFF7F4F840B9C3490878ACA101F060FAC9
:10182000054601F043FA70E30322BFA104F1090069
:10183000FFF72CF830B10622BCA104F10900FFF734
:1018400025F840B9B7494878A0A101F049FA054602
:1018500001F02CFA59E30322B6A104F10900FFF7C5
:1018600015F830B10622B4A104F10900FFF70EF813
:1018700040B9AC49887895A101F032FA054601F0EB
:1018800015FA42E30722AEA104F10900FEF7FEFFBC
:1018900030B10A22ACA104F10900FEF7F7FF80B9CC
:1018A000A049087890A101F01BFA054601F0FEF965
:1018B0009C49487885A101F013FA054601F0F6F934
:1018C00023E30622A3A104F10900FEF7DFFF30B1F4
:1018D0000922A2A104F10900FEF7D8FF88B99149B5
:1018E000487881A101F0FCF9054601F0DFF98D4946
:1018F000887876A101F0F4F9054601F0D7F904E300
:1019000046E0072298A104F10900FEF7BFFF30B1BD
:10191000072297A104F10900FEF7B8FF80B98149B9
:10192000087871A101F0DCF9054601F0BFF97D49A5
:10193000887866A101F0D4F9054601F0B7F9E4E230
:101940000A228EA104F10900FEF7A0FF38B110228F
:101950008DA104F10900FEF799FF002891D171498A
:10196000087861A101F0BCF9054601F09FF96D49C5
:1019700048785DA101F0B4F9054601F097F969498D
:10198000887852A101F0ACF9054601F08FF9BCE26C
:10199000052282A1601DFEF779FF002890D18149C0
:1019A000087851A101F09CF9054601F07FF97D49C5
:1019B00048784DA101F094F9054601F077F979498D
:1019C000887842A101F08CF9054601F06FF99CE29C
:1019D000052275A12046FEF759FF00288FD17448D3
:1019E0000078012803D073A001F060F98DE2042291
:1019F00031A1601DFEF74AFF002854D17A480078D3
:101A000018B17AA001F052F97FE204222CA104F16E
:101A10000900FEF73BFFC8B9607B30384FF47A719C
:101A200010FB01F1A07B303800EBC00202EB00108C
:101A300001EB8001E07B303800EB800001EB4001DE
:101A4000207C303808442049088022E0052221A16A
:101A500004F10900FEF71AFF50B9E07B3038A17B92
:101A6000303901EB810100EB41001749887010E02B
:101A7000042211A104F10900FEF708FF48B9A07B78
:101A80003038617B303901EB810100EB41000E49B8
:101A9000C870092211A104F10900FEF7F7FE18B978
:101AA000A07C3038BCE064E1E4E000000D0A0000F6
:101AB0002A4745543A0000004441544500000000C4
:101AC00059454152000000005600002025750D0ABE
:101AD000000000004D4F4E5448000000594541524F
:101AE0004D4F4E5448000000257520004D4F4E5478
:101AF0004844415445000000594541524441544531
:101B000000000000594541524D4F4E544844415445
:101B10004500000054494D4500000000484F555213
:101B200000000000530000204D494E004D494E5525
:101B300054450000534543005345434F4E44000075
:101B4000484F55524D494E00484F55524D494E55FC
:101B5000544500004D494E53454300004D494E53F6
:101B600045434F4E44000000484F555253454300F3
:101B7000484F55525345434F4E440000484F55522D
:101B80004D494E5345430000484F55524D494E551F
:101B900054455345434F4E4400000000414C4152D0
:101BA0004D0000005A0000202A5345543A0000001E
:101BB000480000200D0A507265737320535732207D
:101BC000746F2073776974636820746F2053455471
:101BD0005F56414C55452073746174652066697287
:101BE00073742121210D0A00470000200D0A507254
:101BF0006573732053573120746F20737769746352
:101C00006820746F204D4F44455F44415445206D1A
:101C10006F64652066697273742121210D0A0000CA
:101C20004FF47A7110FB01F1E07C303800EBC00218
:101C300002EB001001EB8001207D303800EB8000CA
:101C400001EB4001607D30380844B04908800888C5
:101C5000AFF2881101F038F8054601F027F8E07D71
:101C60003038A17D303901EB810100EB4100A749FB
:101C7000887047E00922AFF28C1104F10900FEF7E9
:101C800005FEA0B9E07C3038A17C303901EB810140
:101C900000EB41009D498870607D3038217D3039EE
:101CA00001EB810100EB41009849C8702AE008224D
:101CB000AFF2BC1104F10900FEF7E8FD10BB607C37
:101CC00030384FF47A7110FB01F1A07C303800EB12
:101CD000C00202EB001001EB8001E07C303800EB29
:101CE000800001EB4001207D30380844874908809E
:101CF000A07D3038617D303901EB810100EB41007E
:101D00008249C8700D22AFF2042104F10900FEF7E8
:101D1000BDFD00282CD1A07D30384FF47A7110FB26
:101D200001F1E07D303800EBC00202EB001001EB66
:101D30008001207E303800EB800001EB4001607EA6
:101D40003038084471490880E07E3038A17E30394F
:101D500001EB810100EB41006C498870607F3038F5
:101D6000217F303901EB810100EB41006749C870E8
:101D7000CBE00422AFF26421601DFEF787FD00284E
:101D800079D163480078012803D062A000F08EFF6B
:101D9000BBE00422AFF27C2104F10900FEF776FDDE
:101DA00050B9A07B3038617B303901EB810100EB09
:101DB00041006549087024E00322AFF2942104F148
:101DC0000900FEF763FD50B9607B3038217B303964
:101DD00001EB810100EB41005B49487011E00322F7
:101DE000AFF2B02104F10900FEF750FD48B9607B65
:101DF0003038217B303901EB810100EB4100524941
:101E000088700722AFF2C82104F10900FEF73EFDF9
:101E1000A0B9607C3038217C303901EB810100EBC6
:101E2000410049490870E07C3038A17C303901EB31
:101E3000810100EB41004449487039E00622AFF2CD
:101E4000EC2104F10900FEF721FDA8B9207C30380F
:101E5000E17B303901EB810100EB41003A494870E8
:101E6000A07C3038617C303901EB810100EB41000E
:101E7000354988701CE042E00722AFF2143104F1CA
:101E80000900FEF703FD98B9607C3038217C3039B9
:101E900001EB810100EB41002B490870E07C3038F8
:101EA000A17C303901EB810100EB410026498870AB
:101EB0000A22AFF2383104F10900FEF7E7FC20BB3B
:101EC000207D3038E17C303901EB810100EB4100AD
:101ED0001D490870A07D3038617D303901EB8101EA
:101EE00000EB410018494870207E3038E17D3039E0
:101EF00001EB810100EB41001349887005E00522E8
:101F0000AFF26831601DFEF7C1FC70BD56000020C5
:101F1000470000200D0A507265737320535731201B
:101F2000746F2073776974636820746F204D4F4419
:101F3000455F54494D45206D6F6465206669727335
:101F4000742121210D0A00005300002010B500214A
:101F50002220FFF773F9024908700846007810BD87
:101F600000000020014608460A4601B9704708E013
:101F70000378202B04D003781370521C401C00E01F
:101F8000401C0378002BF3D1137000BFEEE7000074
:101F900010B5114800F054FB00BF0F4800F064FB7F
:101FA0000028FAD00C48C01C00F04AFB00BF0A48C9
:101FB000C01C00F059FB0028F9D001210748FFF7A9
:101FC000F7F803210648FFF7E5F80A230122032169
:101FD0000348FFF721F810BD050800F0005002404B
:101FE00000D0034010B51E4800F02AFB1D4800F049
:101FF00027FB1D48FFF7ACF81C48FFF7A9F80421A0
:102000001B48FFF7F1F808211948FFF7DFF8012214
:10201000184801681848FFF7AFF91748FFF79AF911
:10202000FF220C212220FFF749F9044600220D214E
:102030002220FFF743F9044600220E212220FFF759
:102040003DF90446002203211820FFF737F9044622
:10205000FF2201211820FFF731F9044610BD0000CE
:10206000002000F0010800F002080100020C01004D
:1020700000500040040000200000024010B512484B
:1020800000F0DEFA114800F0DBFA00BF0F4800F064
:10209000EBFA0028FAD00120FFF75AF840F201408D
:1020A000FFF756F803214FF04020FFF7B9F86023FF
:1020B0004FF4E13206480168064800F0B4FD06A07E
:1020C00000F0F4FD10BD0000001800F0000800F062
:1020D0000400002000C000400D0A48656C6C6F2CA5
:1020E000776F726C64210D0A0000000070B5054620
:1020F00000241DE00120A040C2B206212220FFF7EB
:10210000DDF80D490870285D0C490A5C0521222084
:10211000FFF7D4F80849087042F21070FEF762FF2A
:10212000002205212220FFF7C9F803490870641C2A
:10213000082CDFDB70BD000000000020180000202C
:1021400008B508480068014600900748FFF7F2F913
:10215000054840782530044948700846C078253045
:10216000C87008BD5A0000204B00002008B50A487E
:102170000188ADF8001080788DF8020007480099BA
:10218000FFF7D8F9054840782530044948700846DB
:10219000C0782530C87008BD5D0000204B000020CD
:1021A00008B508480068014600900748FFF796F90F
:1021B0000548C07825300449C87008464079253064
:1021C000487108BD560000204B00002008B50A48A1
:1021D0000188ADF8001080788DF80200074800995A
:1021E000FFF7A8F9054840782530044948700846AB
:1021F000C0782530C87008BD530000204B00002077
:102200002DE9F003AF4D02462868AF4B1840A0F10E
:102210008053B3F5A02359D002F03809DFF8AC821F
:10222000C2F38414B9F1100F25D0B9F1300F04BFF7
:1022300047F230504FF400130DD04FF03800904368
:1022400004BF4FF40040C30105D012F0380F1CBF8B
:102250000020034613D09E4F12F4605F4FF000063B
:1022600018BF00222CD057F8324044457DD307EBED
:10227000C2025268E1E0002340461524EBE7A4F1D6
:102280000900122822D29348D5F87CC04FF04C7335
:1022900050F824002CF01C0C072CA8BF4CF0100C9C
:1022A000C5F87CC02E6D4FF4002C16F4807FD2D17F
:1022B000BCF1010C0AD02E6D16F4807FF8D0CAE76D
:1022C00012F0380F18BFB9F1100F04D0BDE8F003B9
:1022D0004FF000007047C2F30268DFF8FCC14FF016
:1022E000000257F83290E14503D307EBC20252686F
:1022F00003E0521C062AF4D33246C5F8C020D5F8B4
:10230000B020DFF8D8C102EA0C0242F00042C5F862
:10231000B020DFF8CCC1A4F109024C1E5CF828C043
:10232000A444BCFBF1FCD5F8B0101943C5F8B010BB
:1023300008EBC80101EB41046A4902EB420201EBE0
:10234000C40101EB82046468C5F86441D5F86441B6
:102350006FF0FF0808EB0C2C44EA0C0CC5F864C1C4
:1023600051F82210D5F8602100E061E002F400028B
:102370001143C5F86011D5F86011D5F86021C1F39B
:102380008921C2F30904D5F86421C2F3042202F1C1
:10239000010CD5F8642102F01F02521CB0FBF2F0D0
:1023A0004A09C2F100084443424301EB481104EBDF
:1023B0005212484302EB9020B0FBFCF04108084663
:1023C000002257F832C0844503D307EBC2004668A9
:1023D00002E0521C062AF4D3C5F8C060D5F86001AB
:1023E00010F4000F1DBFD5F8B00040F08040C5F8D4
:1023F000B000D5F8600104BF40F40000C5F86001EA
:102400004FF40040D5F8682112F0010F02D1401EB0
:102410000028F7DC002808BF002148D0D5F8B0001C
:10242000184340F0010040F01040C5F8B0003EE015
:10243000521C062AFFF417AF3246C5F8C020D5F863
:10244000602122F40002C5F86021D5F8B020DFF841
:1024500098C002EA0C0242F00042C5F8B020002900
:1024600008BF4FF0000C0AD0B0FBF1FCBCF1000F2C
:1024700018BFACF1010C0CF10101B0FBF1F1084601
:10248000002257F83240844203D307EBC20046686B
:1024900002E0521C062AF4D3C5F8C060D5F8B0009B
:1024A00043EA8C22104340F00040C5F8B000D5F854
:1024B000B00020F47000C5F8B000BDE8F003084695
:1024C0007047000000E00F400000FF700024F4009F
:1024D000443A00002838000040787D0100FC0FE0FD
:1024E0002038000094380000FF0300EF70B44B4D1B
:1024F0002A6E296F11F0004F14BF01F0700002F036
:102500003000202808BF464818D005DC88B11028C4
:1025100008BF444812D009E0302808BF47F23050C5
:102520000CD0702808BF4FF4004007D070BC0020CA
:1025300070477C203C4B00EA121018584FF0FF33D4
:1025400011F0004F02D011F4006F06D001F0004CE2
:1025500002F400645CEA040C36D1D5F860C1D5F809
:10256000644104F01F06C4F30424641C761C16FBAB
:1025700004F46400B0FBF4F0CCF309044443CCF35E
:10258000892C00FB0CF0D5F810C004EB902042F42D
:1025900080020CF4704CBCF5804F08BF234B13D065
:1025A00009DCBCF5005F08BF214B0DD0BCF5405FD6
:1025B00008BF204B08E0BCF5E04F08BF1E4B03D01E
:1025C000BCF5104F08BF1D4B12F4800F21D011F045
:1025D000004F19D011F0804F09D011F4006F0CD0CA
:1025E00001F0004C02F400625CEA020205D0C1F383
:1025F000C551491CB0FBF1F00BE04000C1F386511E
:10260000491CB0FBF1F004E0C2F3C351491CB0FB1C
:10261000F1F0834238BF184670BC704700E00F40AD
:1026200000093D000024F40028380000005A62022E
:1026300000B4C40480F0FA0240787D01002D31011D
:10264000C0F307230749C0B2194401F07043C1F336
:10265000130143EA411141EA800040F00070012279
:102660000260704700E60F40C0F307220849C0B27D
:10267000114401F07042C1F3130142EA411141EAF1
:10268000800040F000700068002818BF01207047EB
:1026900000EA0F404FF0E020016941F005010161BF
:1026A00070474FF0E020016941F00201016170477D
:1026B00010B5F348007801287ED002287DD0032889
:1026C00002D0042866D166E0EE4A1288521CED4B17
:1026D0001A80ED4A127872BB1A4612884FF448737A
:1026E00092FBF3F403FB1422002A53D1E54B1A802A
:1026F000002012E0E54A12680244102A04DBE34A93
:1027000012680244103A02E0E04A1268024411469C
:10271000DF4A525CDF4B1A54401C0828EADBDB4AD4
:102720001268521CD94B1A601A461268102A31D10D
:1027300000221A602EE0FFE7D24A12884FF4C873D5
:1027400092FBF3F403FB142222BB0022CD4B1A8030
:10275000002012E0CD4A12680244102A04DBCB4A62
:1027600012680244103A02E0C84A12680244114654
:10277000C74A525CC74B1A54401C0828EADBC34ABC
:102780001268521CC14B1A601A461268102A01D1F5
:1027900000221A6072E1BB4A1288521CB94B1A809F
:1027A000BD4A12788ABB1A4612884FF4167392FB00
:1027B000F3F403FB142201E057E0C0E0002A53D1F8
:1027C000B04B1A80002012E0B04A12680244102A6E
:1027D00004DBAE4A12680244103A02E0AB4A1268C7
:1027E00002441146AA4A525CAA4B1A54401C0828BB
:1027F000EADBA64A1268521EA44B1A601A461268F7
:10280000002A31DC10221A602EE0FFE79D4A128870
:102810004FF4967392FBF3F403FB142222BB0022C5
:10282000984B1A80002012E0984A12680244102A3D
:1028300004DB964A12680244103A02E0934A126896
:1028400002441146924A525C924B1A54401C08288A
:10285000EADB8E4A1268521E8C4B1A601A461268C6
:10286000002A01DC10221A6008E18C480088401C14
:102870008A49088008460088C82190FBF1F201FBD4
:10288000120000285AD1854908808548007880F0D8
:102890000100834908708348007830B1012816D0C0
:1028A000022826D0032848D135E07D48007858B961
:1028B0007D48047803E0242076490855641C7B4851
:1028C00000788442F7DD01E0FFF76AFC35E07448E8
:1028D000007858B97648047803E024206D490855FB
:1028E000641C744800788442F7DD01E0FFF76EFC59
:1028F00023E06B48007858B96D48047803E0242041
:1029000064490855641C6B4800788442F7DD01E097
:10291000FFF716FC11E06248007858B96448047863
:1029200003E024205B490855641C62480078844217
:10293000F7DD01E0FFF71AFC00BF00BF9EE05E4834
:102940000088401C5C4908805C480078012801D15F
:10295000FEF7FAFA584800884FF47A7190FBF1F2CA
:1029600001FB120000287DD14E480078012802D0DA
:1029700002283DD13DE052488078401C3C2190FB2C
:10298000F1F201FB12004E4988700846807810B9B8
:1029900001204C4908704B480078B8B100204949E3
:1029A000087047484078401C4549487008464078C0
:1029B0003C2802D1012044490870414840783C211C
:1029C00090FBF1F201FB12003D4948703E4800784F
:1029D00060B100203C49087039480078401C6421EF
:1029E00090FBF1F201FB120035490870FFF7EEFB96
:1029F00042E036488078401E344988700846807826
:102A0000FF2814D10846407858B90846007840B9E4
:102A100001202A4908702D488078401C2B49887075
:102A20002AE03B202949887001202949087028485C
:102A3000007888B100202649087021484078401E5F
:102A40001F49487008464078FF2802D101202149DB
:102A500008703B201A4948701E48007848B1002091
:102A60001C4900E009E0087015480078401E144930
:102A70000870FFF765FB00BF00BF00BF00BF10BDBF
:102A8000480000206C0000206E000020680000203C
:102A9000840000204B0000206F0000207600002002
:102AA0007F000020470000207000002071000020FF
:102AB0007200002073000020780000207E000020BB
:102AC000530000207A0000207B0000205A000020E4
:102AD0007C0000207D0000204FF0E021401E486176
:102AE000704700000448006840F470000249086024
:102AF000024803490860704788ED00E00024F400B4
:102B00008000002070B50121264800F0C9F8054674
:102B10002946244800F0BEF805F0500000283FD0B8
:102B200038E0204800F06CF80446601C00B936E03C
:102B30000A2C13D11C48B0F80001002809DD002040
:102B40001949B1F80011184A50540120114681F872
:102B5000020100201449A1F800011BE01248B0F85E
:102B600000017F2809DA1049B1F80001411C0E4B21
:102B7000A3F8001119460C540BE07E220A49491CA7
:102B8000481EFDF7CEFE084981F87E407F20A1F85F
:102B9000000100BF034800F041F80028C1D100BF88
:102BA00070BD000000C000409400002010B5124825
:102BB00090F80201F8B1FEF73FFC044680220E496E
:102BC00001F18000FDF7EFFE00200B4981F80201C2
:102BD0000CB9FEF738FC0848803000F067F807A011
:102BE00000F064F804488030FFF7BCF902488030F8
:102BF000FEF75AFD00BF10BD940000200D0A000032
:102C0000816911F0100F0CBF00684FF0FF30704762
:102C1000826912F0200FFBD10160704780690121A9
:102C200021EA10107047D0F818C01CF0080FFAD134
:102C3000D0F82CC02CF0100CC0F82CC0D0F830C04C
:102C40002CF0010C2CF4407CC0F830C0D0F830C01F
:102C5000B1EB021F34BF4CF0200C2CF0200CC0F85C
:102C600030C038BF5208C900B1FBF2F1491C490815
:102C70008A09426201F03F018162C36200218161E1
:102C8000C16A41F01001C162016B40F2013211438F
:102C90000163704741647047826B114381637047E1
:102CA000002914BF006CC06B7047000010B50446CB
:102CB00004E014F8011B0348FFF7AAFF207800285E
:102CC000F7D110BD00C0004070B504460D46224645
:102CD00029460248FDF7B2FB004870BD980100206C
:102CE00070B504460D46224629460248FDF7A6FB6C
:102CF000004870BD9801002030380A2801D2012018
:102D0000704700207047000008B5F849F848FFF701
:102D100077FAF8490860084600684FF47A71B0FB0A
:102D2000F1F42046FFF7D8FEFFF7B4FCFFF7B9FC3B
:102D3000FFF72EF9FFF756F9FFF7A0F9FEF7A8F80D
:102D4000FEF75CFC1520FEF745FB5021EA48FFF733
:102D5000A3FFFEF778FBFEF7ABFBE8490860032012
:102D6000FEF798FB03211520FEF7A4FBE0210F20BE
:102D7000FEF7A0FBFEF77CFBE14908601520FEF79B
:102D800069FBE04908600F20FEF764FBDE4908603C
:102D90007CE3DE48FFF7AAF9FFF7D8F8DC490870B2
:102DA000FFF704FFDB48007805283CD2DFE800F09D
:102DB00003A4EA3C7000D648007800F0010078B91E
:102DC000D548007800F0010050B1D4490978481C7A
:102DD000C11700EB91718910A0EB8101CF4A1170EE
:102DE000CC480178CA480078FEF7B8F8C94908709D
:102DF000C7480078C8490870C848007848B1012819
:102E000004D0022808D003280CD108E0FFF7DEF92F
:102E100008E0FFF7C5F905E0FFF792F902E0FFF7D8
:102E2000A5F900BF00BF30E3B948007800F04000CA
:102E300070B9B948007800F0400048B1B849097845
:102E4000481C00EBD0714910A0EB4101B44A11704D
:102E5000B448006801460090B348FEF73FFBB34812
:102E60000188ADF8001080788DF80200AE48083077
:102E70000099FEF75FFBA7480178A5480078FEF7A8
:102E80006DF8A4490870A2480078A3490870FCE2D4
:102E90009F48007800F0200070B99F48007800F04B
:102EA000200048B1A2490978481C00EBD0714910B4
:102EB000A0EB41019E4A11709A48006801460090BB
:102EC0009948FEF70BFB99480188ADF8001080780F
:102ED0008DF80200944808300099FEF72BFB8D48CE
:102EE00001788B480078FEF739F88A4908708848DD
:102EF000007889490870C8E28848007830B1012814
:102F000078D0022877D0032876D10DE28048007867
:102F100000F00200A8BB8048007800F0020080B3F7
:102F20008448007820B101280DD002281DD115E079
:102F300081480078001D8049087080480078801C16
:102F40007E49087011E07C480078801C7A4908703E
:102F50007A480078801C7949087006E0002076499C
:102F6000087003207549087000BF00BF71480078E1
:102F7000401C032190FBF1F201FB12006D49087027
:102F800077E000E074E26248007800F00800A0BB3F
:102F90006148007800F0080078B36648007820B1F6
:102FA00001280ED0022824D117E05E480088401C7A
:102FB00042F2107190FBF1F201FB120059490880B6
:102FC00017E058488078401C564988700846807839
:102FD0000D2801D1012088700BE05248C078401CB8
:102FE0005049C8700846C078202801D10120C87017
:102FF00000BF3EE03EE002E12CE2FFE744480078FB
:1030000000F00400A8BB4448007800F0040080B33E
:103010004848007820B1012812D0022828D11BE0AE
:1030200040480088401E3F490880084600884FF607
:10303000FF71884203D142F20F703A49088017E0CD
:1030400038488078401E3749887008468078FF28C5
:1030500001D10C2088700BE03248C078401E314905
:10306000C8700846C078FF2801D11F20C87000BF73
:1030700000BFEFE12648007800F0020018BB2648A8
:10308000007800F00200F0B12D480078801C062185
:1030900090FBF1F201FB12002949087029480078E1
:1030A000801C062190FBF1F201FB120025490870FB
:1030B00020480078401C032190FBF1F201FB120034
:1030C0001C4908709AE01248007800F0080060B9C6
:1030D0001148007800F0080038B11648007898B31D
:1030E00001283DD0022851D145E050E0002D3101AA
:1030F000500500F10400002000C000400C0000203A
:103100000800002014000020100000204B000020C8
:1031100049000020480000204A000020470000200D
:103120006E00002056000020840000205300002084
:103130006F0000207400002070000020710000204B
:103140007200002073000020FFE7D1480078401C87
:10315000182190FBF1F201FB1200CD49087015E037
:10316000CB484078401C3C2190FBF1F201FB12005F
:10317000C74948700AE0C6488078401C3C2190FB53
:10318000F1F201FB1200C249887000BF36E0C1486D
:10319000007800F0040088BBBF48007800F004000D
:1031A00060B3BE48007820B101280ED0022824D197
:1031B00017E0B7480078401EB54908700846007807
:1031C000FF2801D11720087017E0B1484078401E51
:1031D000AF49487008464078FF2801D13B2048702D
:1031E0000BE0AB488078401EA9498870084680787B
:1031F000FF2801D13B20887000BF00BF2AE1A5480D
:10320000007800F0020018BBA348007800F002002C
:10321000F0B1A3480078801C062190FBF1F201FB7D
:1032200012009F4908709F480078801C062190FB7F
:10323000F1F201FB12009B49087098480078401C8D
:10324000032190FBF1F201FB1200944908706AE03F
:103250009048007800F0080070BB8F48007800F0BC
:10326000080048B38D48007820B101280DD002280D
:1032700021D115E08C480078401C642190FBF1F2CC
:1032800001FB12008849087015E087484078401C0F
:103290003C2190FBF1F201FB1200834948700AE0E7
:1032A00081488078401C3C2190FBF1F201FB120028
:1032B0007D49887000BF36E07648007800F0040051
:1032C00088BB7548007800F0040060B3734800784C
:1032D00020B101280ED0022824D117E072480078CE
:1032E000401E7149087008460078FF2801D163200C
:1032F000087017E06C484078401E6B4948700846DB
:103300004078FF2801D13B2048700BE06648807868
:10331000401E6549887008468078FF2801D13B200F
:10332000887000BF00BF95E05A48007800F00200A6
:1033300018BB5948007800F00200F0B158480078F6
:10334000801C062190FBF1F201FB12005449087029
:1033500054480078801C062190FBF1F201FB12001A
:10336000504908704D480078401C032190FBF1F251
:1033700001FB1200494908706BE04648007800F0F4
:10338000080070BB4448007800F0080048B3434888
:10339000007820B101280DD0022821D115E0434842
:1033A0000078401C642190FBF1F201FB12003F49C0
:1033B000087015E03D484078401C3C2190FBF1F23C
:1033C00001FB1200394948700AE038488078401CF7
:1033D0003C2190FBF1F201FB12003449887000BFE0
:1033E00037E0FFE72B48007800F0040088BB2A484C
:1033F000007800F0040060B32848007820B101286C
:103400000ED0022824D117E028480078401E274912
:10341000087008460078FF2801D16320087017E083
:1034200022484078401E2149487008464078FF28CD
:1034300001D13B2048700BE01C488078401E1B499E
:10344000887008468078FF2801D13B20887000BF33
:1034500000BF00BF00BF164801780E480078FDF796
:103460007DFD134908700B4800780B4908700CE08B
:103470000F48017807480078FDF770FD0C49087087
:10348000044800780449087000BF00BF81E40000D0
:1034900053000020490000204A0000207400002052
:1034A00072000020730000205A0000205D00002000
:1034B0004800002010B500290AD00878002807D05D
:1034C00005487844FDF79AFA002801D0002010BD85
:1034D0000248784410BD0000160600000E060000E9
:1034E0004FF04070E1EE100A7047000000400040CD
:1034F0001000000000800540100000000050004057
:103500001100000000900540110000000060004024
:103510001200000000A005401200000000700040F2
:103520001300000000B005401300000000400240FE
:103530001400000000C005401400000000500240CC
:103540002E00000000D005402E0000000060024068
:103550002F00000000E005402F0000000070024036
:103560003000000000F005403000000000D00340B3
:103570004600000000000640460000000010064023
:1035800047000000002006404800000000300640D0
:103590007F00000000400640800000000050064010
:1035A00084000000006006408C00000000400040E5
:1035B0001000000000800540100000000050004096
:1035C0001100000000900540110000000060004064
:1035D0001200000000A00540120000000070004032
:1035E0001300000000B0054013000000004002403E
:1035F0001400000000C0054014000000005002400C
:103600002E00000000D005402E00000000600240A7
:103610002F00000000E005402F0000000070024075
:103620003000000000F005403000000000D00340F2
:103630004300000000000640430000000010064068
:103640004400000000200640450000000030064015
:10365000580000000040064059000000005006409D
:103660005C0000000060064064000000007006403E
:103670006C000000008006406D00000000900640D5
:103680007F000000004000400080054000500040E6
:10369000009005400060004000A005400070004020
:1036A00000B005400040024000C00540005002400C
:1036B00000D005400060024000E00540007002407C
:1036C00000F0054000D00340000006400010064016
:1036D0000010064000200640002006400030064052
:1036E00000300640004006400040064000500640C2
:1036F0000050064000600640006006400070064032
:1037000000700640008006400080064000900640A1
:1037100000900640000700000006000000050000C1
:10372000000400000003000000020000000100008F
:10373000000000000000000018ED00E01CED00E0BB
:1037400020ED00E000E400E004E400E008E400E034
:103750000CE400E010E400E014E400E018E400E011
:103760001CE400E020E400E024E400E028E400E0C1
:103770002CE400E030E400E034E400E038E400E071
:103780003CE400E040E400E044E400E048E400E021
:103790004CE400E050E400E054E400E058E400E0D1
:1037A0005CE400E060E400E064E400E068E400E081
:1037B0006CE400E070E400E074E400E078E400E031
:1037C0007CE400E080E400E084E400E088E400E0E1
:1037D00000E100E004E100E008E100E00CE100E0CD
:1037E00010E100E080E100E084E100E088E100E039
:1037F0008CE100E090E100E000E200E004E200E0A3
:1038000008E200E00CE200E010E200E080E200E00C
:1038100084E200E088E200E08CE200E090E200E078
:1038200000688909001C4E0E40420F0000201C0059
:1038300080841E0000802500999E360000403800DC
:1038400000093D0000803E0000004B00404B4C0052
:1038500000204E00808D5B0000C05D000080700085
:1038600000127A0000007D0080969800001BB700CF
:103870000080BB00C0E8CE00647ADA000024F400C7
:103880000000FA0080A81201002D310100366E01FF
:1038900040787D01400000000000000000010000B1
:1038A0003E0008000000000000010000A000000031
:1038B000020000000001000034540100000000007C
:1038C000000100002B700600000000000001000055
:1038D0002800000000000000000100002700010097
:1038E00000000000000100002000000000000000B7
:1038F0000001000050000000020000000001000074
:103900001AAC00000000000000010000179409003C
:1039100000000000000100001698050000000000F3
:103920000001000014000000000000000001000081
:10393000138008000000000000010000A00000004B
:10394000080000000001000010000000000000005E
:10395000000100002800000002000000000100003B
:1039600040000000040000000001000060000000B2
:1039700000000000000100005D000C0000000000DD
:1039800000010000500000000000000000010000E5
:103990004E000200000000000001000041AC0100E8
:1039A00000000000000100003C00000000000000DA
:1039B000000100003A800900000000000001000042
:1039C000300000000000000000010000280000009E
:1039D00000000000000100002700010000000000BE
:1039E000000100002360060000000000000100004C
:1039F0002160080000000000000100001E0000001F
:103A000000000000000100001DC0040000000000D4
:103A10000001000050000000020000000001000052
:103A20001800000000000000000100001400000069
:103A30000000000000010000600000000400000021
:103A4000000100000024F40030003000005A62023F
:103A50009100910000879303D200D20000B4C40407
:103A60001301130100E1F50554015401000E27076D
:103A70009501950100000000000000003031323354
:103A80003435363738394142434445464030580092
:103A900030313233343536373839616263646566C4
:103AA0004030780004000008000000000000000220
:103AB0000001000010000000E83B000000000020B2
:103AC000840000003C0200006C3C000084000020E8
:103AD000F40500005802000010010000430000003F
:103AE000F8FFFFFF0040404040404040404041411F
:103AF00041414140404040404040404040404040C3
:103B0000404040404005020202020202020202025C
:103B10000202020202202020202020202020200259
:103B200002020202020290909090909010101010E9
:103B30001010101010101010101010101010101085
:103B40000202020202028888888888880808080819
:103B500008080808080808080808080808080808E5
:103B6000020202024000000000000000000000000D
:103B70000000000000000000000000000000000045
:103B80000000000000000000000000000000000035
:103B90000000000000000000000000000000000025
:103BA0000000000000000000000000000000000015
:103BB0000000000000000000000000000000000005
:103BC00000000000000000000000000000000000F5
:103BD00000000000000000000000000000000000E5
:103BE00000000000000000000000000000000000D5
:103BF00000000000000000000000000000000000C5
:103C00003F065B4F666D7D077F6F777C395E79710C
:103C10003D760F0E753837545C73673149783E1C1A
:103C20007E646E5900BF86DBCFE6EDFD87FFEF00B7
:103C300000FFFF000000000000000011173AE90734
:103C4000051D00000F000000242424242424242423
:103C50000000000000000000000300010000000060
:0C3C600000000000000000010024F4003F
:0400000500000201F4
:00000001FF
