:020000040000FA
:10000000C806002021030000290300002B03000084
:100010002D0300002F03000031030000000000004A
:10002000000000000000000000000000330300009A
:10003000350300000000000037030000113B000002
:100040003B0300003D0300003F03000041030000AC
:1000500043030000A13F00004703000049030000E4
:100060004B0300004D0300004F030000510300004C
:10007000530300005503000057030000590300001C
:100080005B0300005D0300005F03000061030000EC
:1000900063030000650300006703000069030000BC
:1000A0006B0300006D0300006F030000710300008C
:1000B000730300007503000077030000790300005C
:1000C0007B0300007D0300007F030000810300002C
:1000D00083030000850300008703000089030000FC
:1000E0008B0300008D0300008F03000091030000CC
:1000F000930300009503000097030000990300009C
:100100009B0300009D0300009F030000A10300006B
:10011000A3030000A5030000A7030000A90300003B
:10012000AB030000AD030000AF030000B10300000B
:10013000B3030000B5030000B7030000B9030000DB
:10014000BB030000BD030000BF030000D903000093
:100150000000000000000000DB030000DD030000E1
:10016000DF030000E103000000000000E3030000E3
:10017000E5030000E7030000E9030000EB030000D3
:10018000ED030000EF030000F1030000F3030000A3
:10019000F5030000F7030000F9030000FB03000073
:1001A000FD030000FF030000010400000304000041
:1001B0000504000007040000090400000B0400000F
:1001C0000D0400000F0400001104000013040000DF
:1001D0001504000017040000190400001B040000AF
:1001E0001D0400001F04000021040000230400007F
:1001F0002504000027040000290400002B0400004F
:1002000000F002F800F069F80AA090E8000C8244BF
:100210008344AAF10107DA4501D100F05EF8AFF29C
:10022000090EBAE80F0013F0010F18BFFB1A43F0D4
:1002300001031847C84F0000E84F0000103A24BFE0
:1002400078C878C1FAD8520724BF30C830C144BF3B
:1002500004680C607047000000230024002500267D
:10026000103A28BF78C1FBD8520728BF30C148BF19
:100270000B607047662904F08F84692900F05C8167
:10028000642900F05981752900F056816F2900F02A
:10029000ED81782900F012820368DB0928BF41F064
:1002A0008001632900F08586E32900F0988600200C
:1002B00070471FB504F06BFC00F06AFF04000020DB
:1002C000002104F0D7FB401C60600020002104F0F6
:1002D000BBFBE0601FBD10B510BD01F0B3F81146C7
:1002E000FFF7E7FF03F0ACFF01F0D1F803B4FFF72D
:1002F000F2FF03BC01F0D4F8EFF3108072B6704740
:10030000EFF310807047EFF3108062B6704730BF94
:10031000704780F311887047EFF311807047000039
:100320004548804745480047FEE7FEE7FEE7FEE711
:10033000FEE7FEE7FEE7FEE7FEE7FEE7FEE7FEE795
:10034000FEE7FEE7FEE7FEE7FEE7FEE7FEE7FEE785
:10035000FEE7FEE7FEE7FEE7FEE7FEE7FEE7FEE775
:10036000FEE7FEE7FEE7FEE7FEE7FEE7FEE7FEE765
:10037000FEE7FEE7FEE7FEE7FEE7FEE7FEE7FEE755
:10038000FEE7FEE7FEE7FEE7FEE7FEE7FEE7FEE745
:10039000FEE7FEE7FEE7FEE7FEE7FEE7FEE7FEE735
:1003A000FEE7FEE7FEE7FEE7FEE7FEE7FEE7FEE725
:1003B000FEE7FEE7FEE7FEE7FEE7FEE7FEE7FEE715
:1003C000FEE7FEE7FEE7FEE7FEE7FEE7FEE7FEE705
:1003D000FEE7FEE7FEE7FEE7FEE7FEE7FEE7FEE7F5
:1003E000FEE7FEE7FEE7FEE7FEE7FEE7FEE7FEE7E5
:1003F000FEE7FEE7FEE7FEE7FEE7FEE7FEE7FEE7D5
:10040000FEE7FEE7FEE7FEE7FEE7FEE7FEE7FEE7C4
:10041000FEE7FEE7FEE7FEE7FEE7FEE7FEE7FEE7B4
:10042000FEE7FEE7FEE7FEE7FEE7FEE704480549D4
:10043000034A054B70470000813F000001020000A5
:10044000C8020020C8060020C80200200FB41CB556
:10045000074B06AA7B4469460090059800F087FD8B
:100460000020694600F096FD1CBC5DF814FB0000FE
:100470003D0B000070B5044685690068C10601D5D2
:10048000302600E02026C00707D070BDD4E9012146
:1004900030469047206A401C20626D1EF6D570BD24
:1004A00070B5044685690078C00707D170BDD4E9EE
:1004B000012120209047206A401C20626D1EF6D545
:1004C00070BD09684A0501D540B27047C905FCD521
:1004D00000B2704709684A0501D5C0B27047C90526
:1004E000FCD580B2704770B50C460546012A05D090
:1004F0002878800600D5EA69002302E0012305E0A0
:100500005B1C934202D2E05C0028F9D1A869E6188E
:10051000C01AA861286A184428622846FFF7AAFF73
:1005200004E0D5E9012114F8010B9047B442F8D357
:100530002846FFF7B5FF70BD2DE9F04106460024BF
:1005400010687529314616A510D0FFF7BAFF0028AC
:1005500002DA404213A507E031688A0701D512A5E7
:1005600002E0490704D511A5012401E0FFF7B2FF1D
:1005700000210A2206F1240709E0B0FBF2FCB0FBDF
:10058000F2F302FB1C00303078541846491C002856
:10059000F3D123462A463046BDE8F04100F079BA4F
:1005A000000000002D0000002B00000020000000D3
:1005B0002DE9FF5F15468A460446DFF8AC80F84413
:1005C0000027D8E900103E46CDE9001010E03AF8C7
:1005D00016106A4602A800F00EFD411C07D02178D3
:1005E000890603D5E269391891420DD80744761C73
:1005F0002078800602D5E069B84205DDAE42E6DB30
:100600003AF816000028E2D1A069C01BA06120467C
:10061000FFF730FFD8E90010CDE90010002017E007
:100620003AF818106A4602A800F0E5FCB0F1FF3F66
:1006300081460BD000250DF1080B05E0D4E901211E
:100640001BF8050090476D1C4D45F7D308F10100DC
:10065000B0428046E4DB206A384420622046FFF73F
:100660001FFFBDE8FF9F0000624B000070B504460D
:1006700021461068FFF72EFF002104F1240505E054
:1006800000F007023032C0086A54491C0028F7D134
:100690002068002307A2050707D5800600D421B1F2
:1006A000E069012304A2401EE0612046BDE87040DD
:1006B00000F0EFB9000000003000000070B5044603
:1006C0000D4621461068FFF705FF2188090502D570
:1006D0000F4A7A4402E00E4A7A440E32002104F1B5
:1006E000240305E000F00F060009965D5E54491CE6
:1006F0000028F7D120780023000704D5702D02D000
:1007000009B1022311322046BDE8704000F0C1B9A2
:10071000564A00002DE9F05F894604464FF0000A72
:10072000DFF874B1FB44C0F820A02046E168884798
:10073000002874D0252806D0D4E901219047206AEA
:10074000401C2062F1E700265F462046E1688847AA
:100750002028054607DB312D05D2781910F8200C2A
:1007600008B10643F1E7B00701D526F00406C4F846
:100770001CA00027C4F818A02A2D09D0284603F091
:1007800019FD38B304EB8708303DC8F8185019E05C
:1007900059F8041B204604EB87029161E168884701
:1007A000012F054618D1E069002820DA26F020063E
:1007B0001DE0D8F8180000EB800005EB4000303851
:1007C000C8F818002046E1688847054603F0F2FCA7
:1007D0000028EED1012F0AD02E2D08D12046E16845
:1007E00088477F1C0546022F46F02006C4DBA0691F
:1007F000002803DA404246F00106A061F00701D06C
:1008000026F010066C2D0BD0682D09D04C2D39D058
:100810006A2D35D0742D35D07A2D33D016E038E0DE
:10082000E1682F4620468847B842054609D16C2F1B
:1008300026D04FF48060E16806432046884705468D
:1008400004E06C2F1AD04FF4807006430DB3A5F16D
:100850004100192802D8203546F400664A46294648
:10086000204626604E46FFF705FD80B101280BD0DB
:10087000F61D26F0070000F1080956E74020E4E7DE
:100880008020D8E70020D6E706F104094DE7284686
:1008900052E7206ABDE8F09F2C4A000040EA0103BD
:1008A00070B59B072ED14FF00136042A2AD308C811
:1008B00010C99D1B9D43121F15EAC61517D0D8B24B
:1008C000E1B2401A50EA056110D198B2A1B2401AC3
:1008D00050EA05410AD123F07F4024F07F41401ABD
:1008E00050EA052102D1180EA0EB146070BDA3429E
:1008F000DBD018BA21BA884201D9012070BD4FF06F
:10090000FF3070BD0AB9002070BD10F8013B11F82E
:10091000014B63B1A3420AD1521E08D010F8013B2B
:1009200011F8014B1BB1A34201D1521EEDD1181B8E
:1009300070BD431A28BF9A4240F27D83032A1044B7
:10094000114440F2268010F0030F1EBF11F8013D44
:10095000521E00F8013D10F0030F7FF4F6AF11F0C6
:10096000030300F0C083083AC0F00B8051F8043D47
:10097000083A51F804CD40F8043D40F804CDFFF7A3
:10098000F3BF121D5CBF51F8043D40F8043DAFF3C6
:100990000080D20724BF11F8013D11F801CD48BFF6
:1009A00011F8012C24BF00F8013D00F801CD48BF2B
:1009B00000F8012C704710B5044610F0030F08BF73
:1009C00011F0030F40F015804FF0013E121FC0F2EE
:1009D0000E8051F8043BA3EB0E0C2CEA030C1CEA2E
:1009E000CE1C08BF40F8043BF0D0A1F1040102F195
:1009F0000402521E08DB11F8013B002B00F8013BFA
:100A0000F7D1114600F099FB204610BD4FF0013C94
:100A100050F8042B51F8043B9A4221D1A2EB0C036D
:100A2000934313EACC1317D150F8042B51F8043B2D
:100A30009A4215D1A2EB0C03934313EACC130BD1CA
:100A400050F8042B51F8043B9A4209D1A2EB0C0355
:100A5000934313EACC13DBD04FF00000704700BF84
:100A6000D01A01BAB1FA81F101F0180122FA01F0AD
:100A7000CB40C1F12001DBB2C0B2C01A2CFA01F3A5
:100A8000D11A914311EAC311E6D1704770477047FC
:100A900070472DE9F0470D4699469246044600F10D
:100AA00024080168880604D5E06921F0100121605E
:100AB00000E00120A84201DD471B00E00027A169FA
:100AC0007A1902EB0900081AA0612078C00602D446
:100AD0002046FFF7CFFC002608E0D4E901211AF8F0
:100AE00006009047206A401C761C20624E45F4DBCD
:100AF0002078C0060AD52046FFF7BCFC06E0D4E902
:100B0000012130209047206A401C2062381EA7F146
:100B10000107F4DC07E0D4E9012118F8050090474B
:100B2000206A401C2062281EA5F10105F3DC204646
:100B3000FFF7B6FC2078000602D50220BDE8F0875A
:100B40000120FBE770472DE9FF4F0C461E464FF092
:100B5000FF378BB0D2E90001DDF860800A908A4649
:100B6000C1F30A5505B93D46002108464FF0000083
:100B7000BAF1000F00F4400005DA00EB80004FF4FA
:100B8000400101EA50004FEA9059B9F1010F00DD30
:100B9000B9460A9850EA4A000ED044F61050A5F221
:100BA000FF3545432F14B8F1000F1ED07542291EA2
:100BB0001EDDC9F100021CE0B8F1010F4FF000008A
:100BC00001D0302103E0F24305E02154401CB04243
:100BD000FBDB30460022002121540B99C1F808802C
:100BE000C1E900200FB0BDE8F08FBD1B6D1CDEE732
:100BF0004A4600DA694206A800F054FB06AB93E8C7
:100C0000070003AB83E8070050460A9900F04FFC49
:100C10008DE80700A0F500501F3800900398002DC4
:100C20000ADD42F21F014A460844002303A903904B
:100C3000684600F0B8FE09E0A0F500504A461F38AB
:100C4000002303A90390684600F0C2FE8DE8070068
:100C50000004000C03D04FF0FF30410800E01046C4
:100C6000B8F1000F03D00022009215461EE0751E59
:100C700005D400F091FA303262556D1EF9D5B346B5
:100C80000122084302D000227F1C04E02078302893
:100C900001D100227F1E002A099784D01DE0112D6A
:100CA00007DA00F079FA303262556D1C50EA010221
:100CB000F5D1084302D00098C8B10EE00021681EAB
:100CC00005E0235C625C63542254401E491C81424F
:100CD000F7DBAB46A81B401E0990002004F80B0070
:100CE0000B98099AC0F80880C0E9002B7AE7112612
:100CF0004FF0000857E72DE9F04F88460446D21D13
:100D000022F0070191B0D1E90001CDE90A0103F019
:100D100039FA02460B98C00F01D02D2007E0206859
:100D2000810701D52B2002E0202101EAC000032A1F
:100D3000099001D0072A05DB03464146204600F012
:100D400071FA0BE12078800601D5E06900E0062009
:100D5000B8F1650F814606D0B8F1660F18D0B8F12A
:100D6000670F70D131E00020B9F1110F009001DB65
:100D7000112301E009F101030AAA01A90CA8FFF758
:100D8000E2FEDDE90C70002609F10105834647E02B
:100D900001204B4600904FF000470AAA01A90CA879
:100DA000FFF7D1FEDDE90DB00C995D46002610B9C4
:100DB00009F101000D18B9EB050003D4C0F1FF36AD
:100DC00009F10105A5EB09002BE0B9F1010F01DAEA
:100DD0004FF001090020B9F1110F0090484601DDE4
:100DE000112300E003460AAA01A90CA8FFF7ABFEF5
:100DF000DDE90C704D4600268346207800070AD4B2
:100E0000AB4500DA5D4601A8012D04DD411911F85A
:100E1000011C302907D04F4502DA17F1040F04DA1C
:100E2000012082460FE06D1EEEE7002F02DCED1B75
:100E30003E4403E0781CA84200DD7D1CB81B00F195
:100E4000010A4FF000472078000703D4AA4501DBD0
:100E50004FF0FF3A0021B7F1004F0DF143088DF834
:100E6000431024D002202B23002F01DA7F422D23B0
:100E70000A21021EA0F1010000DC5FB197FBF1FC2A
:100E800097FBF1F201FB1C7C17460CF1300C08F8C3
:100E900001CDEEE7A8F1010003702188090501D515
:100EA000452100E06521A0F1010800F8011C099826
:100EB0000FA9A1EB0807FF1D00B10120411901EBAB
:100EC000EA70A1693844081A401EA0612078C00663
:100ED00002D42046FFF7CEFA099828B1D4E90121BF
:100EE0009047206A401C20622078C00622D5204608
:100EF000FFF7C0FA1EE0002E04DBB34502DD01A8B7
:100F0000805D00E03020D4E901219047206A401C38
:100F10002062761CAAF101005FEA000A0AD100F003
:100F200037F9C0680168405CD4E901219047206A24
:100F3000401C2062281EA5F10105DCDC07E0D4E995
:100F4000012118F8010B9047206A401C2062381ECE
:100F5000A7F10107F3DC2046FFF7A2FA032011B046
:100F600041E6000001694A1C02610878704700B53B
:100F70008FB0CDE901310021059105497944CDE9D2
:100F8000031011466846FFF7C5FB0FB000BD000017
:100F9000E5FFFFFF0A6802F8010B0A60704710B511
:100FA000436913B1AFF3008001E0FFF79CFA012021
:100FB00010BD127800F124010A7000224A7001224B
:100FC000EDE711684FF0FF32E9E710B5436913B15F
:100FD000AFF3008001E0FFF7EBFA012010BD1288AB
:100FE00000F1240182840022C2840122EDE711680D
:100FF0004FF0FF32E9E770B516460C46054600F0A3
:10100000BFF8036893F80101012806D0FF2C0FD820
:10101000185D68B101202C7070BDD3F8070132460D
:10102000214603F2071303442846BDE870401847E1
:101030004FF0FF3070BD032A40F2308010F0030CF7
:1010400000F0158011F8013BBCF1020F624498BF1B
:1010500011F801CB00F8013B38BF11F8013BA2F1B8
:10106000040298BF00F801CB38BF00F8013B11F033
:10107000030300F08981083AC0F0088051F8043B6E
:10108000083A51F804CBA0E80810F5E7121D5CBF40
:1010900051F8043B40F8043BAFF30080D20724BF73
:1010A00011F8013B11F801CB48BF11F8012B24BF07
:1010B00000F8013B00F801CB48BF00F8012B704756
:1010C000431A28BF9A4240F25F81104410F0030F88
:1010D00011441EBF11F8013D521E00F8013D10F0F1
:1010E000030F7FF4F6AF103AC0F00A8010B531E973
:1010F0001850103A20E91850BFF4F9AFBDE810407D
:10110000530724BF31E9081020E9081044BF51F803
:10111000043D40F8043D12F0030F08BF7047D207AA
:1011200028BF31F8023D48BF11F8012C28BF20F834
:10113000023D48BF00F8012C70474FF0000204291F
:10114000C0F0128010F0030C00F05281CCF1040CBE
:10115000BCF1020F18BF00F8012BA8BF20F8022B2A
:10116000A1EB0C0100F044B95FEAC17C24BF00F898
:10117000012B00F8012B48BF00F8012B704700003D
:1011800010B500F005F8001D10BD00BFE9380000E3
:10119000004870478802002030B5B0F10A024FEADB
:1011A000900E71F100034EEA817EB0EB0E0061EB10
:1011B00091014FEA101E4EEA017E10EB0E0041EB4A
:1011C00011114FEA102E4EEA016E10EB0E0041EBAA
:1011D00011214FEA104E4EEA014E10EB0E0041EB8A
:1011E0001141401841F100014FEAD00040EA41703E
:1011F0004FEAD10110EB80054FEA810444EA907474
:1012000044EB01046D1944EB0404521BA3414FF05D
:10121000000348BF0A3200D530BD401C41F1000137
:1012200030BD00002DE9F0411F4604460326016849
:10123000072A01F4006004DB08B116A505E016A535
:1012400003E008B115A500E015A521F0100020600D
:10125000A069C01EA0610FB1401EA0612046FFF72B
:1012600009F94FB1D4E9012138469047206A401C62
:101270002062C01C206206E0206AFAE7D4E901215E
:1012800015F8010B9047761EF8D22046FFF708F9B3
:10129000BDE8F0814E414E006E616E00494E460041
:1012A000696E66002DE9F047814616468AB03548DA
:1012B00078440DC88DE80D0032487844801C03AC9A
:1012C0000DC884E80D0041F69B300844372190FB9F
:1012D000F1F290FBF1F5A5F1800501FB12041B3C36
:1012E00002D56442012000E00020DFF898A080468B
:1012F0000027FA44AAF1BE0A0EE0E0070AD03246FF
:10130000684607EB470101230AEB810100F060FB0F
:101310008DE8070064107F1C002CEED1194F7F442C
:10132000AE3F19E0E80715D007EB04100DF1180ADD
:1013300090E80E008AE80E00C068F04201D19819CA
:1013400008903246012306A903A800F041FB03AB35
:1013500083E807006D10641C002DE3D14FF00103FA
:1013600032466946B8F1000F03A802D000F01BFB1B
:1013700001E000F02DFBC9E90001C9F808200AB01E
:10138000BDE8F087303F000010B5203AC0F00B8078
:10139000B1E81850203AA0E81850B1E81850A0E879
:1013A0001850BFF4F5AF5FEA027C24BFB1E81850D3
:1013B000A0E8185044BF18C918C0BDE810405FEA43
:1013C000827C24BF51F8043B40F8043B08BF7047BF
:1013D000D20728BF31F8023B48BF11F8012B28BFC4
:1013E00020F8023B48BF00F8012B70474FF0000285
:1013F00000B5134694469646203922BFA0E80C500B
:10140000A0E80C50B1F12001BFF4F7AF090728BFE5
:10141000A0E80C5048BF0CC05DF804EB890028BF61
:1014200040F8042B08BF704748BF20F8022B11F08A
:10143000804F18BF00F8012B70470000004870472C
:10144000680200207546FFF7F9FFAE4605006946C1
:10145000534620F00700854618B020B5FEF7E6FF9A
:10146000BDE820404FF000064FF000074FF00008A5
:101470004FF0000B21F00701AC46ACE8C009ACE826
:10148000C009ACE8C009ACE8C0098D46704710B58A
:101490000446AFF300802046BDE81040FEF726BFAB
:1014A00001491820ABBEFEE72600020070475FEA44
:1014B000400C08BF91F0000F4FEA8C234FEAC12285
:1014C00043EA51514FEA1C5018BF00F5F0404FEA73
:1014D000300018BF41F000415FEA6C5C00F02980E9
:1014E000BCF1FF3F08BF40F080407047130C06BFBF
:1014F00012044FF0100C4FF0000C130E04BF120238
:101500000CF1080C130F04BF12010CF1040C930F23
:1015100004BF92000CF1020CD30F04BF52000CF177
:10152000010C11464FF00002A0F11F00A0EB0C00CF
:10153000704711F0004F08BF704731F000413FF491
:10154000D5AF0B0C06BF09044FF0100C4FF0000C88
:101550000B0E04BF09020CF1080C0B0F04BF0901AC
:101560000CF1040C8B0F04BF89000CF1020CCB0FA3
:1015700004BF49000CF1010CCCF12003A0EB0C00DE
:1015800022FA03F302FA0CF241EA030100F101002E
:10159000704720F07F4C80EA030023F07F47ACEBDC
:1015A000070303F57C5300F0004003F1FF032DE92E
:1015B00080494FEA154B09B44FEA144325EA0B4E14
:1015C00024EA03480FF2042606EB132749083E7865
:1015D0005FEA320203FB0667C7F5000707FB06F662
:1015E0004FEA54374FEAD64606F1020607FB066C6F
:1015F000CCF1005C4FEA1C472CEA074C07FB06F4D1
:101600000CFB06F504EB15464FEA961634BF002096
:101610004FF000404FEAD13706FB07FC4FEA1C4C65
:101620000CFB0BF7D21B03FB0CF761EB07010CFB68
:101630000EF7B0EB074072EB17420CFB08F734BF14
:10164000A2EB0742B2EB074261EB17414FEA0C44B1
:101650004FEA910706FB07FC4FEA1C4C0CFB0BF70B
:10166000B0EBC74072EB573203FB0CF734BFA2EB71
:10167000C742B2EBC74261EB57310CFB0EF7B0EB40
:10168000C70072EB57720CFB08F734BFA2EBC7021E
:10169000B2EBC70261EB5771039F4FEA816141EAE8
:1016A000921104EBCC044FEAD1374FEA826206FB79
:1016B00007FC42EA90124FEA80604FEA1C4C0CFB98
:1016C0000BF7D21B03FB0CF761EB07010CFB0EF7CA
:1016D000B0EB074072EB17420CFB08F734BFA2EBEC
:1016E0000742B2EB074261EB17414FEA8C554FEAD4
:1016F000910704EB9C2406FB07FC4FEA1C4C0CFBF7
:101700000BF7B0EBC74072EB573203FB0CF734BF5B
:10171000A2EBC742B2EBC74261EB57310CFB0EF7AD
:10172000B0EBC70072EB57720CFB08F734BFA2EBAB
:10173000C702B2EBC70261EB577115EB4C254FEABC
:10174000816141EA92114FEA82624FEAD13742EA5F
:10175000901206FB07FC44F100044FEA80604FEA58
:101760001C4C0CFB0BF7D21B03FB0CF761EB0701C6
:101770000CFB0EF7B0EB074072EB17420CFB08F7BF
:1017800034BFA2EB0742B2EB074261EB174115EB06
:101790001C154FEA813141EA92414FEA823242EA16
:1017A00090424FEA80304FEA0C7644F1000448EA58
:1017B00003434EEA0B484FF0000EB2EB080C71EBFE
:1017C000030724BF624639464EEB0E0E4FF0000B66
:1017D0000018524149414BEB0B0BB2EB080C71EB7B
:1017E00003077BF1000B24BF624639464EEB0E0E19
:1017F0004FF0000B0018524149414BEB0B0BB2EB81
:10180000080C71EB03077BF1000B24BF62463946DD
:101810004EEB0E0E51EA020718BF46F0010616EB1A
:101820000E7655F1000254F1000103D5BDE889019F
:10183000BDE80088BDE88901BDE80048B6195241FD
:1018400041EB0101A3F10103704780807F7E7D7C25
:101850007B7A7978777676757473727171706F6E42
:101860006E6D6C6C6B6A6A696868676666656464ED
:10187000636362616160605F5F5E5E5D5D5C5C5B77
:101880005B5A5A59595858575756565555555454E6
:10189000535352525251515050504F4F4F4E4E4D44
:1018A0004D4D4C4C4C4B4B4B4A4A4A494949484890
:1018B00048474747474646464545454444444443D0
:1018C00043434342424242414141002B9C4630D473
:1018D00077002BD01CB54FEA370703B44FF0100048
:1018E0004FF01001BAF1000F06D0BCF1000FDCBFC1
:1018F00040F0080040F008014FF000000FBCBDE8C8
:1019000010400BF1010BBBF1010F08BF5FEA170795
:1019100022BF12F1010211F101014FF0004143F128
:10192000000300F0004043EA00007047F9D3570875
:10193000D0E746EA064613F1400F4FEA16461FDD90
:1019400013F1200FDFBF16430A46002120335B420C
:10195000BED0C3F1200746EA064602FA07F74FEA6F
:10196000164646EA0706C3F1200722FA03F201FAF7
:1019700007F721FA03F14FF0000342EA0702A7E755
:1019800046EA020646EA06464FEA164646EA0106D7
:10199000BCBF46EA0646360C4FF000034FF000028B
:1019A0004FF0000194E72DE9804C9A46934670B4BD
:1019B00091E8380007C831EA400C48BF34EA430CCC
:1019C00003D5FFF7E6FDFFF780FFF0BCBDE8008C14
:1019D0002DE9804C9A46934670B491E8380007C8C8
:1019E00010F0804F08BF13F0804F03D100F005F8CE
:1019F000FFF76BFFF0BCBDE8008C20F07F4780EA6A
:101A0000030023F07F4C07EB0C03A3F57C5300F09D
:101A10000040A3F1FE0392F0000F00F0B38095F0B8
:101A2000000F00F077802DE901494FEA11404FEA9D
:101A3000144621EA004800FB06FC24EA064708FB9E
:101A400006F607FB08F800FB07F718EB06484CEB17
:101A5000164C4FEA124B18EB07484FEA15464CEB71
:101A6000174022EA0B4E0BFB06FC25EA06470EFB4D
:101A700006F607FB0EFE0BFB07F71EEB064E4CEBC4
:101A8000164C4FF000061EEB074E4CEB174B18EBB5
:101A90000B0840F1000018EB0E0B58EB000840F16A
:101AA00000008F1A4FF000013CBFC943661B14BFF2
:101AB000B5EB040C00213CBFC943F61B4FEA1744A9
:101AC0004EEA8E0E27EA04454FEA1C4704FB0762E4
:101AD0002CEA074C05FB07F70CFB05F604FB0CFC96
:101AE00016EB074642EB174216EB0C4642EB1C4244
:101AF0001BEB060658EB0202414146EA9E0601D561
:101B0000BDE80189B619524141EB0101A3F101037E
:101B1000BDE801894FEA14454FEA114724EA05461A
:101B200021EA074C05FB07F406FB07F70CFB06F15F
:101B300005FB0CFC11EB074144EB17444FEA12473D
:101B400011EB0C4144EB1C4422EA074C05FB07F265
:101B500006FB07F70CFB06F605FB0CFC16EB07462D
:101B600042EB174216EB0C4642EB1C456A1854F147
:101B7000000148BF7047B619524141EB0101A3F182
:101B80000103704795F0000F37D04FEA11424FEA3A
:101B9000144721EA024624EA074C02FB07F106FB40
:101BA00007F70CFB06F402FB0CFC14EB074441EBBB
:101BB00017414FEA154714EB0C4441EB1C4125EA51
:101BC000074C02FB07F506FB07F70CFB06F602FBCA
:101BD0000CFC16EB074645EB174516EB0C4645EBA0
:101BE0001C42121951F1000148BF7047B619524109
:101BF00041EB0101A3F1010370474FEA14454FEA9D
:101C0000114724EA054621EA074C05FB07F106FBCC
:101C100007F70CFB06F24FF0000605FB0CFC12EB7D
:101C2000074241EB174112EB0C4251EB1C4148BFFC
:101C30007047921841EB0101A3F1010370470122A3
:101C400002FA01F1C160704732B1C0684FF0011271
:101C500002FA01F108407047406801228A4042F4CC
:101C60008032104010F4803F08BF704740F470206D
:101C70004FF4803202FA01F1884370470A4601F0BE
:101C80000F0101236FF30F0203FA01F11143826A7E
:101C900011438162704730B4446989004FF00F0CE2
:101CA0000CFA01FC02F00F0524EA0C048D402C43D1
:101CB0004461046A03F0030324EA0C0C03FA01F103
:101CC0004CEA0101016202F00F018B1F032B84BF5C
:101CD00030BC7047C900C3694FF0300C30390CFA82
:101CE00001FC02F0300223EA0C0302FA01F119436D
:101CF000C16130BC704700EB411000F14001002091
:101D000003E08B6842F8043B401CCB6813F4807FEF
:101D100018BF70470828F4D370470268012303FAFC
:101D200001F111430160704710B400EB41109100C4
:101D300050F840CF0F228A4003F00F042CEA020C27
:101D40008C404CEA040CC0F800C0D0F818C0C3F3B3
:101D500003242CEA020C8C404CEA040CC0F818C096
:101D6000D0F804C0C3F303142CEA020C8C404CEAF4
:101D7000040CC0F804C0D0F81CC0C3F303542CEA10
:101D8000020C8C404CEA040CC0F81CC013F4702FF9
:101D90004FF001040DD0D0F814C0C3F302432CEA75
:101DA00002028B401A434261026904FA01F11143B5
:101DB00004E0026904FA01F122EA0101016110BCA8
:101DC0007047000010B50F4801F06AFE00BF0D48D3
:101DD00001F07AFE0028FAD000231A4603210A48AF
:101DE000FFF759FF6023002203210748FFF79CFFFC
:101DF00004200549BC31086003210348FFF78DFF2B
:101E000010BD0000003800F00080034070B501F004
:101E10009DFD054640F20B20B5FBF0F0441E124834
:101E200001F03EFE114801F03BFE2021104800F079
:101E3000D3F9104800F076F900224FF480710E4873
:101E400000F0E8FB22464FF480710B4800F0FAFBEB
:101E5000620840F20711084800F005FC4FF4807159
:101E6000054800F0EAFB70BD004000F0090800F0F2
:101E700000100640061409000080024010B500243E
:101E800010E00120A040C2B20621222000F000FA9A
:101E90000649087000220521222000F0F9F90349C3
:101EA0000870641C082CECDB10BD00000000002052
:101EB00010B500228021034800F0CDFB002002492C
:101EC000087010BD00800240BA00002010B5012249
:101ED0008021024800F0BFFB10BD000000800240DE
:101EE00070B504460D4604F0010040B9234800785F
:101EF00000F0010018B1FFF7DBFF002070BD04F017
:101F0000020040B91D48007800F0020018B1FFF748
:101F1000CFFF0120F2E704F0800040B917480078B5
:101F200000F0800018B1FFF7C3FF0220E6E704F0DD
:101F3000400040B91148007800F0400018B1FFF7A8
:101F4000B7FF0320DAE704F0200040B90B4800781F
:101F500000F0200018B1FFF7ABFF0420CEE704F03B
:101F6000100040B90548007800F0100018B1FFF7E4
:101F70009FFF2846C2E72846C0E7000079000020FE
:101F8000002100E0491C8142FCD3704710B52DEDC3
:101F9000048BB0EE408A18EE100A02F087FD41EC87
:101FA000190B53EC192B04A10548FEF74FFA04480E
:101FB000BDEC048B10BD0000252E3466000000002F
:101FC000E8010020D0F8003412F0010F14BF0B43D9
:101FD0008B43C0F8003412F0020FD0F8202414BF55
:101FE000114322EA0101C0F8201470472DE9F003E3
:101FF00001264FF0000C0325C2F3411706FA0CF43A
:102000000C4211D0D0F8C48F4FEA4C0405FA04F901
:1020100028EA0908C0F8C48FD0F8C48F07FA04F47E
:1020200048EA0404C0F8C44F0CF1010C0CF0FF0C9A
:10203000BCF1080FE2D3D0F800C512F0010F14BFB5
:102040004CEA010C2CEA010CC0F800C5D0F804C51C
:1020500012F0020F14BF4CEA010C2CEA010CC0F87C
:1020600004C5D0F808C512F0040F14BF4CEA010CE7
:102070002CEA010CC0F808C5D0F818C512F0080FFA
:1020800014BF4CEA010C2CEA010CC0F818C512F080
:10209000100FD0F83C2514BF0A438A43C0F83C25F2
:1020A000D0F80C2513F0010F14BF0A438A43C0F87F
:1020B0000C25D0F8102513F0020F14BF0A438A43F1
:1020C000C0F81025D0F8142513F0040F14BF0A43EC
:1020D0008A43C0F81425D0F81C2513F0080F14BF4C
:1020E0000A438A43C0F81C25D0F8442513F4007F26
:1020F00014BF0A438A43C0F84425D0F8402513F49E
:10210000407F14BF0A438A43C0F84025D0F82825F1
:10211000002B0CBF114322EA0101C0F82815BDE8CD
:10212000F00370470E4AC0F30741D26E01238B4083
:102130001A420C4A1ABF02EBC101496852F8311029
:10214000020AD1F82C354FF00F0C0CFA02FC00F00B
:102150000F0023EA0C0390401843C1F82C05704788
:1021600000E00F40344D000030B50C46054600221B
:10217000FFF728FF21462846BDE83040082301220A
:10218000FFF734BF30B50C46054608230122FFF7A0
:102190002DFF21462846BDE830400122FFF712BF3F
:1021A00030B50C4605460222FFF70CFF21462846B3
:1021B000BDE8304009230122FFF718BF30B50C46B7
:1021C00005460222FFF7FEFE21462846BDE83040C4
:1021D00008230122FFF70ABF30B50C46054602224C
:1021E000FFF7F0FE21462846BDE8304008230122D3
:1021F000FFF7FCBE30B50C4605460222FFF7E2FEB3
:1022000021462846BDE8304008230122FFF7EEBEF4
:102210002DE9F04104460E4600BF1C4800F078F856
:102220000028FAD100222146184800F0B9F83146BA
:10223000164800F077F80721144800F06FF800BF47
:10224000124800F05FF80028FAD1104800F071F849
:10225000C7B26420FFF794FE012221460B4800F02C
:102260009FF80721094800F059F800BF074800F01F
:1022700049F80028FAD1054800F052F8C5B26420A8
:10228000FFF77EFE2846BDE8F08100000000024016
:102290002DE9F04104460F46154600BF184800F0EE
:1022A00037F80028FAD100222146154800F078F8C6
:1022B0003946134800F036F80321114800F02EF893
:1022C00000BF0F4800F024F80028FAD10C4800F0B5
:1022D00030F8C6B229460A4800F024F8052108481B
:1022E00000F01CF800BF064800F012F80028FAD1F0
:1022F000034800F01EF8C6B23046BDE8F081000089
:1023000000000240406810F0400018BF01207047F4
:10231000406810F0010018BF01207047416070470D
:102320008068704781607047016A41F01001016266
:102330007047406810F0010F05D110F0120F1CBF5C
:1023400000F01C007047002070470000036A43F053
:1023500010030362002A14BF0E4A0F4A02EB8203E5
:1023600001EB830302EB820292005B1EB3FBF2F2ED
:10237000521EC260D0F8C02F12F0010F08BF704784
:10238000064A1144521CB1FBF2F1491E41F0800192
:10239000C1607047801A0600A08601007F473701A0
:1023A00042EA4101016070471649042804BF0868E9
:1023B00040F4803018D0052804BF086840F400308D
:1023C00012D0062812D00F2815D0102838BF704719
:1023D000103800F01F01012202FA01F142090A48F7
:1023E00050F822000160704708607047086840F4A8
:1023F0008020086070474FF0E020016941F0020141
:102400000161704724ED00E0804E000010B5FDF73B
:1024100073FF002818BF012010BD10B5FDF773FF32
:10242000002818BF012010BD054A20F003015158B3
:1024300009688007C00E21FA00F0C0B270470000A2
:10244000E44D000006480068064A00F4E061002000
:1024500052F820308B421CBF401C0828F8D370472C
:102460000CED00E0C44D0000044951F8200004497F
:1024700040F0FD7040F0806008607047C44D00007F
:102480000CED00E0FDF748BF084A20F00303D258E6
:1024900013688007C00E4FF0FF0C0CFA00FC23EA13
:1024A0000C0301FA00F0184310607047E44D00007F
:1024B00033B5BDF804202A4B1B7843BB03210AE047
:1024C0000A2392FBF3F403FB142343540A2392FBE5
:1024D000F3F39AB2491E0029F2DA9DF806300A2475
:1024E00093FBF4F303719DF8063093FBF4F504FBC2
:1024F000153343719DF8073093FBF4F383719DF816
:10250000073093FBF4F504FB1533C37127E0042176
:102510000AE00A2392FBF3F403FB142343540A2337
:1025200092FBF3F39AB2491C0729F2DD9DF80630BD
:102530000A2493FBF4F504FB153383709DF80630F1
:1025400093FBF4F3C3709DF8073093FBF4F504FBA1
:10255000153303709DF8073093FBF4F343703CBDD3
:10256000BB00002003B52A49097841BB9DF804103F
:102570000A2291FBF2F101709DF8041091FBF2F335
:1025800002FB131141709DF8051091FBF2F181706F
:102590009DF8051091FBF2F302FB1311C1709DF839
:1025A000061091FBF2F101719DF8061091FBF2F318
:1025B00002FB131141712421C171817127E09DF843
:1025C00004100A2291FBF2F1C1719DF8041091FBF5
:1025D000F2F302FB131181719DF8051091FBF2F1EA
:1025E00041719DF8051091FBF2F302FB131101718B
:1025F0009DF8061091FBF2F1C1709DF8061091FB59
:10260000F2F302FB131181702421417001700CBDA3
:10261000BB000020084401686FF3520111430160C0
:1026200012F0020F14BFB0218C21016214BF4FF4CD
:10263000306140F60C0141627047425842F001029D
:10264000425070470844016811F0020F14BF51084E
:10265000511E01617047002A826814BF114322EAAB
:1026600001018160704721F03F031844036813F0B3
:10267000020F18BF520803699A1A11F0010F14BF14
:10268000C2618261704700007FB522A103C9CDE914
:10269000020122A103C9CDE90001002404E0214880
:1026A000005D21490855641C082CF8DB00241BE060
:1026B000002201211820FFF7EBFD1C4908700025BE
:1026C00003E002A800F0FAFE6D1C142DF9DBFF22D6
:1026D00001211820FFF7DCFD14490870FFF7CEFB3D
:1026E0001348FFF74DFC641C032CE1DB00240DE0D4
:1026F000002503E0684600F0E1FE6D1C142DF9DBB7
:10270000FFF7BCFB0A48FFF73BFC641C032CEFDB24
:102710007FBD0000040209010000010620231124EE
:10272000242424249C0000207A00002000000020A3
:1027300000350C0070B504460522FBA12046FEF7CB
:10274000ADF8002878D10422F9A1601DFEF7A6F8A3
:10275000002872D1F8A104F10900FEF757F940B939
:10276000F7490888F7A101F0F5FC054601F0E4FC03
:1027700092E2F6A104F10900FEF748F940B9F049E8
:102780008878F0A101F0F2FC054601F0D5FCEFE7F6
:10279000E7A104F10900FEF739F940B9E849C87822
:1027A000E8A101F0E3FC054601F0C6FCE0E7E9A181
:1027B00004F10900FEF72AF980B9E1490888E8A187
:1027C00001F0C8FC054601F0B7FCDD498878DDA1C1
:1027D00001F0CCFC054601F0AFFCC9E7E1A104F132
:1027E0000900FEF713F980B9D5498878DCA101F01A
:1027F000BDFC054601F0A0FCD149C878D1A101F08B
:10280000B5FC054601F098FCB2E7D9A104F1090036
:10281000FEF7FCF890B9CA490888D1A101F09AFCEA
:10282000054601F089FCC649C878C6A101F09EFCA6
:10283000054601F081FC9BE741E11FE0CFA104F1D7
:102840000900FEF7E3F8002892D1BD490888C4A129
:1028500001F080FC054601F06FFCB9498878C0A101
:1028600001F084FC054601F067FCB549C878B5A1C4
:1028700001F07CFC054601F05FFC79E70422C3A16E
:10288000601DFEF70BF800287ED10A22C1A104F1D9
:102890000900FEF703F830B11022C1A104F10900CC
:1028A000FDF7FCFFC0B9C3490878ADA101F05EFC9B
:1028B000054601F041FCBF494878A9A101F056FC4A
:1028C000054601F039FCBB4988789EA101F04EFC19
:1028D000054601F031FC4BE70722B7A104F10900DE
:1028E000FDF7DCFF30B10A22B5A104F10900FDF7C4
:1028F000D5FF80B9AF49087899A101F037FC0546AA
:1029000001F01AFCAB4948788EA101F02FFC054676
:1029100001F012FC2CE706229FA104F10900FDF74B
:10292000BDFF30B10922A9A104F10900FDF7B6FFEE
:1029300080B9A04948788AA101F018FC054601F049
:10294000FBFB9C4988787FA101F010FC054601F053
:10295000F3FB0DE70722A0A104F10900FDF79EFF9C
:1029600030B10A229EA104F10900FDF797FF90B94A
:10297000904908787AA101F0F9FB054601F0DCFBEB
:102980008C4988786FA100E043E001F0EFFB054639
:1029900001F0D2FBECE695A104F10900FEF736F850
:1029A00040B98449087867A101F0E0FB054601F0D1
:1029B000C3FBDDE6032281A104F10900FDF76EFFF0
:1029C00030B106227FA104F10900FDF767FF40B98D
:1029D000784948785BA101F0C9FB054601F0ACFBE2
:1029E000C6E603227DA104F10900FDF757FF38B1C7
:1029F00006227CA104F10900FDF750FF002889D1CF
:102A00006C4988784FA101F0B1FB054601F094FBB9
:102A1000AEE6052277A1601DFDF740FFC0B97749FA
:102A200008784FA101F0A2FB054601F085FB734930
:102A300048784BA101F09AFB054601F07DFB6F49F8
:102A4000887840A101F092FB054601F075FB8FE606
:102A500007226BA1601DFDF721FF50B96A4800787D
:102A600018B16AA001F068FB82E66AA001F064FB7D
:102A70007EE6062269A1601DFDF710FF50B9694886
:102A8000007818B168A001F057FB05E16CA001F0D7
:102A900053FB01E1042270A1601DFDF7FFFE002839
:102AA00087D101F08FFB6E4890ED000AFFF76EFAB8
:102AB000054601F041FB6BA001F03EFBECE0052276
:102AC0006AA12046FDF7EAFE00282CD107224CA17E
:102AD000601DFDF7E3FEA0B966A104F10C00FDF74F
:102AE00095FF18B9002048490870F1E362A104F18C
:102AF0000C00FDF78BFF00288AD1012042490870A5
:102B0000E6E3062245A1601DFDF7C8FE48B95BA1BA
:102B100004F10B00FDF77AFF20B90020414908704D
:102B2000D6E3BAE0AEE0AEE32A4745543A000000EF
:102B30004441544500000000594541520000000046
:102B40008800002025750D0A000000004D4F4E54EE
:102B500048000000594541524D4F4E544800000076
:102B6000257520004D4F4E54484441544500000007
:102B700059454152444154450000000059454152D5
:102B80004D4F4E54484441544500000054494D4572
:102B900000000000484F55524D494E534543000038
:102BA000484F55524D494E5554455345434F4E4459
:102BB0000000000082000020484F55524D494E0051
:102BC000484F55524D494E55544500004D494E53BE
:102BD00045434F4E44000000484F55525345430073
:102BE000484F55525345434F4E440000484F5552AD
:102BF00000000000414C41524D00000096000020B2
:102C0000444953504C415900BC0000204F46460DEA
:102C10000A0000004F4E0D0A00000000464F524DC2
:102C200041540000BB00002046524F4D20524947FE
:102C3000485420544F204C4546540D0A00000000D3
:102C400046524F4D204C45465420544F2052494740
:102C500048540D0A0000000054454D50000000008B
:102C6000C800002020430D0A000000002A534554EC
:102C70003A0000004F4E00004F4646004C45465477
:102C800000000000FDA104F10B00FDF7BFFE0028CD
:102C900002D10120FB4908701AE30522AFF2AC0112
:102CA000601DFDF7FBFD002871D10422AFF2C401C5
:102CB00004F10A00FDF7F2FD50B9E07B3038A17B4A
:102CC000303901EB810100EB4100EF49087024E04D
:102CD0000322AFF2181104F10A00FDF7DFFD50B92D
:102CE000A07B3038617B303901EB810100EB410082
:102CF000E549487011E00322AFF2201104F10A0007
:102D0000FDF7CCFD48B9207B3038617B303901EBD1
:102D1000810100EB4100DC4988700722AFF26811A5
:102D200004F10A00FDF7BAFDA0B9A07C3038617C3F
:102D3000303901EB810100EB4100D3490870207D5F
:102D40003038E17C303901EB810100EB4100CE49A4
:102D5000487039E00622AFF2C01104F10A00FDF715
:102D60009DFDA8B9607C3038217C303901EB8101B0
:102D700000EB4100C4494870E07C3038A17C303918
:102D800001EB810100EB4100BF4988701CE043E08A
:102D90000722AFF2BC1104F10A00FDF77FFD98B9DC
:102DA000A07C3038617C303901EB810100EB4100BF
:102DB000B5490870207D3038E17C303901EB810164
:102DC00000EB4100B04988700A22AFF2382104F1CB
:102DD0000A00FDF763FD00281DD1607D3038217D9C
:102DE000303901EB810100EB4100A7490870E07D1B
:102DF0003038A17D303901EB810100EB4100A2495F
:102E00004870607E3038217E303901EB810100EB63
:102E100041009D4988705BE29C480078012803D0FE
:102E20009BA001F089F953E20422AFF2FC21601D5E
:102E3000FDF734FD00287DD1A248007818B1A2A08A
:102E400001F07AF944E20422AFF2143104F10900EE
:102E5000FDF724FDC8B9607B30384FF47A7110FB60
:102E600001F1A07B303800EBC00202EB001001EB57
:102E70008001E07B303800EB800001EB4001207CDA
:102E8000303808449D49088024E00522AFF24431DF
:102E900004F10900FDF702FD50B9E07B3038A17B59
:102EA000303901EB810100EB41009449887011E059
:102EB0000422AFF2843104F10900FDF7EFFC48B9B8
:102EC000A07B3038617B303901EB810100EB4100A0
:102ED0008A49C8700922AFF2843104F10900FDF774
:102EE000DDFC40BBA07C30384FF47A7110FB01F15F
:102EF000E07C303800EBC00202EB001001EB8001F7
:102F0000207D303800EB800001EB4001607D3038DF
:102F100008447A4908800888AFF2D83101F01AF9DC
:102F2000054601F009F9E07D3038A17D303901EB2B
:102F3000810101E084E004E000EB41006F4988700A
:102F400047E00922AFF2E43104F10900FDF7A6FCE5
:102F5000A0B9E07C3038A17C303901EB810100EB75
:102F6000410066498870607D3038217D303901EB41
:102F7000810100EB41006149C8702AE00822AFF2EC
:102F8000104104F10900FDF789FC10BB607C30386A
:102F90004FF47A7110FB01F1A07C303800EBC002D5
:102FA00002EB001001EB8001E07C303800EB800088
:102FB00001EB4001207D3038084450490880A07D55
:102FC0003038617D303901EB810100EB41004B4924
:102FD000C8700D22AFF25C4104F10900FDF75EFC00
:102FE00000282CD1A07D30384FF47A7110FB01F10C
:102FF000E07D303800EBC00202EB001001EB8001F5
:10300000207E303800EB800001EB4001607E3038DC
:1030100008443A490880E07E3038A17E303901EB1F
:10302000810100EB410035498870607F3038217F95
:10303000303901EB810100EB41003049C87047E1B4
:103040000422AFF2B841601DFDF728FC0028F6D13C
:103050001C480078012803D029A001F06DF837E161
:103060000422AFF2784104F10900FDF717FC20B902
:10307000A07B3038617B30395CE062E052494748E0
:1030800054000000BB0000209600002077000020C4
:103090000D0A50726573732053573220746F20737A
:1030A000776974636820746F205345545F56414CB0
:1030B00055452073746174652066697273742121AB
:1030C000210D0A00760000200D0A507265737320EE
:1030D00053573120746F2073776974636820746F5D
:1030E000204D4F44455F44415445206D6F64652039
:1030F00066697273742121210D0A00008800002086
:103100000D0A50726573732053573120746F20730A
:10311000776974636820746F204D4F44455F54494C
:103120004D45206D6F64652066697273742121219D
:103130000D0A000001EB810100EB410065490870B8
:1031400024E00322AFF28C5104F10900FDF7A6FB45
:1031500050B9607B3038217B303901EB810100EBC5
:1031600041005C49487011E00322AFF2905104F134
:103170000900FDF793FB48B9607B3038217B30397B
:1031800001EB810100EB4100524988700722AFF248
:10319000D85104F10900FDF781FBA0B9607C3038FB
:1031A000217C303901EB810100EB41004949087075
:1031B000E07C3038A17C303901EB810100EB41002B
:1031C0004449487038E00622AFF2346104F1090046
:1031D000FDF764FBA0B9207C3038E17B303901EB8E
:1031E000810100EB41003B494870A07C3038617C94
:1031F000303901EB810100EB4100364988701BE05A
:103200000722AFF22C6104F10900FDF747FB98B9E2
:10321000607C3038217C303901EB810100EB4100CA
:103220002C490870E07C3038A17C303901EB8101F9
:1032300000EB4100274988700A22AFF2A86104F12F
:103240000900FDF72BFBE8BB207D3038E17C3039ED
:1032500001EB810100EB41001E490870A07D303870
:10326000617D303901EB810100EB41001949487063
:10327000207E3038E17D303901EB810100EB4100E7
:103280001449887024E0042213A12046FDF706FBB0
:10329000C0B9FFF7F9F90F4811490A880280897807
:1032A00081701048104909680160104810490A8867
:1032B0000280897881700F480F490A8802808978D6
:1032C000817000E004E000200C4908700C4908708F
:1032D00070BD0000820000202A52535400000000FC
:1032E00085000020880000208C0000209000002035
:1032F000930000209600002099000020BB000020D1
:10330000BC00002010B500212220FEF781FF0249F9
:1033100008700846007810BD0000002002461046E4
:10332000114602B9704714E00378202B10D00378BF
:10333000612B08DB03787A2B05DC0378203B0B70CC
:10334000491C401C05E003780B70491C401C00E040
:10335000401C0378002BE7D10B7000BFE2E70000B0
:1033600010B5114800F09CFB00BF0F4800F0ACFB0B
:103370000028FAD00C48C01C00F092FB00BF0A489D
:10338000C01C00F0A1FB0028F9D001210748FEF77E
:10339000F9FE03210648FEF7E7FE0A230122032176
:1033A0000348FEF723FE10BD050800F00050024060
:1033B00000D0034010B51E4800F072FB1D4800F01D
:1033C0006FFB1D48FEF7AEFE1C48FEF7ABFE042166
:1033D0001B48FEF7F3FE08211948FEF7E1FE012223
:1033E000184801681848FEF7B1FF1748FEF79CFF20
:1033F000FF220C212220FEF74BFF044600220D2164
:103400002220FEF745FF044600220E212220FEF76F
:103410003FFF0446002203211820FEF739FF04462F
:10342000FF2201211820FEF733FF044610BD0000E3
:10343000002000F0010800F002080100020C010069
:1034400000500040040000200000024010B5124867
:1034500000F026FB114800F023FB00BF0F4800F0EE
:1034600033FB0028FAD00120FEF75CFE40F2014059
:10347000FEF758FE03214FF04020FEF7BBFE60230D
:103480004FF4E13206480168064800F012FE06A03B
:1034900000F052FE10BD0000001800F0000800F01F
:1034A0000400002000C000400D0A48656C6C6F2CC1
:1034B000776F726C64210D0A0000000070B505463C
:1034C00000241DE00120A040C2B206212220FEF708
:1034D000DFFE0D490870285D0C490A5C0521222099
:1034E000FEF7D6FE0849087042F21070FEF748FD5C
:1034F000002205212220FEF7CBFE03490870641C40
:10350000082CDFDB70BD0000000000201800002048
:1035100008B510480078E0B90F48006801460090EF
:103520000E48FFF71FF80E48007848B90B4840785E
:1035300025300A4948700846C0782530C87008E030
:103540000648C07825300549C870084640792530BE
:10355000487108BDBC000020900000207A000020C7
:10356000BB00002008B510480078E0B90F4800689B
:10357000014600900E48FEF7F5FF0E48007848B966
:103580000B48407825300A4948700846C0782530F5
:10359000C87008E00648C07825300549C87008465C
:1035A00040792530487108BDBC00002096000020FD
:1035B0007A000020BB00002008B510480078E0B970
:1035C0000F480068014600900E48FEF771FF0E4854
:1035D000007848B90B48C07825300A49C8700846B9
:1035E00040792530487108E0064840782530054983
:1035F00048700846C0782530C87008BDBC0000205F
:10360000880000207A000020BB00002008B5104888
:103610000078E0B90F480068014600900E48FEF7B8
:10362000A1FF0E48007848B90B48407825300A4978
:1036300048700846C0782530C87008E00648C07851
:1036400025300549C870084640792530487108BDC5
:10365000BC000020820000207A000020BB00002077
:103660002DE9F003AF4D02462868AF4B1840A0F19A
:103670008053B3F5A02359D002F03809DFF8AC82AB
:10368000C2F38414B9F1100F25D0B9F1300F04BF83
:1036900047F230504FF400130DD04FF038009043F4
:1036A00004BF4FF40040C30105D012F0380F1CBF17
:1036B0000020034613D09E4F12F4605F4FF00006C7
:1036C00018BF00222CD057F8324044457DD307EB79
:1036D000C2025268E1E0002340461524EBE7A4F162
:1036E0000900122822D29348D5F87CC04FF04C73C1
:1036F00050F824002CF01C0C072CA8BF4CF0100C28
:10370000C5F87CC02E6D4FF4002C16F4807FD2D10A
:10371000BCF1010C0AD02E6D16F4807FF8D0CAE7F8
:1037200012F0380F18BFB9F1100F04D0BDE8F00344
:103730004FF000007047C2F30268DFF8FCC14FF0A1
:10374000000257F83290E14503D307EBC2025268FA
:1037500003E0521C062AF4D33246C5F8C020D5F83F
:10376000B020DFF8D8C102EA0C0242F00042C5F8EE
:10377000B020DFF8CCC1A4F109024C1E5CF828C0CF
:10378000A444BCFBF1FCD5F8B0101943C5F8B01047
:1037900008EBC80101EB41046A4902EB420201EB6C
:1037A000C40101EB82046468C5F86441D5F8644142
:1037B0006FF0FF0808EB0C2C44EA0C0CC5F864C150
:1037C00051F82210D5F8602100E061E002F4000217
:1037D0001143C5F86011D5F86011D5F86021C1F327
:1037E0008921C2F30904D5F86421C2F3042202F14D
:1037F000010CD5F8642102F01F02521CB0FBF2F05C
:103800004A09C2F100084443424301EB481104EB6A
:103810005212484302EB9020B0FBFCF041080846EE
:10382000002257F832C0844503D307EBC200466834
:1038300002E0521C062AF4D3C5F8C060D5F8600136
:1038400010F4000F1DBFD5F8B00040F08040C5F85F
:10385000B000D5F8600104BF40F40000C5F8600175
:103860004FF40040D5F8682112F0010F02D1401E3C
:103870000028F7DC002808BF002148D0D5F8B000A8
:10388000184340F0010040F01040C5F8B0003EE0A1
:10389000521C062AFFF417AF3246C5F8C020D5F8EF
:1038A000602122F40002C5F86021D5F8B020DFF8CD
:1038B00098C002EA0C0242F00042C5F8B02000298C
:1038C00008BF4FF0000C0AD0B0FBF1FCBCF1000FB8
:1038D00018BFACF1010C0CF10101B0FBF1F108468D
:1038E000002257F83240844203D307EBC2004668F7
:1038F00002E0521C062AF4D3C5F8C060D5F8B00027
:1039000043EA8C22104340F00040C5F8B000D5F8DF
:10391000B00020F47000C5F8B000BDE8F003084620
:103920007047000000E00F400000FF700024F4002A
:10393000F4500000D84E000040787D0100FC0FE0FC
:10394000D04E0000444F0000FF0300EF70B44B4D19
:103950002A6E296F11F0004F14BF01F0700002F0C1
:103960003000202808BF464818D005DC88B1102850
:1039700008BF444812D009E0302808BF47F2305051
:103980000CD0702808BF4FF4004007D070BC002056
:1039900070477C203C4B00EA121018584FF0FF3360
:1039A00011F0004F02D011F4006F06D001F0004C6E
:1039B00002F400645CEA040C36D1D5F860C1D5F895
:1039C000644104F01F06C4F30424641C761C16FB37
:1039D00004F46400B0FBF4F0CCF309044443CCF3EA
:1039E000892C00FB0CF0D5F810C004EB902042F4B9
:1039F00080020CF4704CBCF5804F08BF234B13D0F1
:103A000009DCBCF5005F08BF214B0DD0BCF5405F61
:103A100008BF204B08E0BCF5E04F08BF1E4B03D0A9
:103A2000BCF5104F08BF1D4B12F4800F21D011F0D0
:103A3000004F19D011F0804F09D011F4006F0CD055
:103A400001F0004C02F400625CEA020205D0C1F30E
:103A5000C551491CB0FBF1F00BE04000C1F38651A9
:103A6000491CB0FBF1F004E0C2F3C351491CB0FBA8
:103A7000F1F0834238BF184670BC704700E00F4039
:103A800000093D000024F400D84E0000005A6202F4
:103A900000B4C40480F0FA0240787D01002D3101A9
:103AA000C0F307230749C0B2194401F07043C1F3C2
:103AB000130143EA411141EA800040F00070012205
:103AC0000260704700E60F40C0F307220849C0B209
:103AD000114401F07042C1F3130142EA411141EA7D
:103AE000800040F000700068002818BF0120704777
:103AF00000EA0F404FF0E020016941F0050101614B
:103B000070474FF0E020016941F002010161704708
:103B100010B5FC48007801287ED002287DD003280B
:103B200002D0042866D166E0F74A1288521CF64B90
:103B30001A80F64A127872BB1A4612884FF44873FC
:103B400092FBF3F403FB1422002A53D1EE4B1A80AC
:103B5000002012E0EE4A12680244102A04DBEC4A0C
:103B600012680244103A02E0E94A1268024411461F
:103B7000E84A525CE84B1A54401C0828EADBE44A45
:103B80001268521CE24B1A601A461268102A31D190
:103B900000221A602EE0FFE7DB4A12884FF4C87358
:103BA00092FBF3F403FB142222BB0022D64B1A80B3
:103BB000002012E0D64A12680244102A04DBD44ADC
:103BC00012680244103A02E0D14A126802441146D7
:103BD000D04A525CD04B1A54401C0828EADBCC4A2D
:103BE0001268521CCA4B1A601A461268102A01D178
:103BF00000221A60BAE1C44A1288521CC24B1A80D1
:103C0000C64A12788ABB1A4612884FF4167392FB82
:103C1000F3F403FB142201E057E0C0E0002A53D183
:103C2000B94B1A80002012E0B94A12680244102AE7
:103C300004DBB74A12680244103A02E0B44A126840
:103C400002441146B34A525CB34B1A54401C082834
:103C5000EADBAF4A1268521EAD4B1A601A46126870
:103C6000002A31DC10221A602EE0FFE7A64A1288F3
:103C70004FF4967392FBF3F403FB142222BB002251
:103C8000A14B1A80002012E0A14A12680244102AB7
:103C900004DB9F4A12680244103A02E09C4A126810
:103CA000024411469B4A525C9B4B1A54401C082804
:103CB000EADB974A1268521E954B1A601A46126840
:103CC000002A01DC10221A6050E195480088401C4F
:103CD0009349088008460088C82190FBF1F201FB57
:103CE000120000285AD18E4908808E48007880F052
:103CF00001008C4908708C48007830B1012816D03A
:103D0000022826D0032848D135E08648007858B9E3
:103D10008648047803E024207F490855641C8448C1
:103D200000788442F7DD01E0FFF746FC35E07D488E
:103D3000007858B97F48047803E024207649085574
:103D4000641C7D4800788442F7DD01E0FFF75EFCEB
:103D500023E07448007858B97648047803E02420BA
:103D60006D490855641C744800788442F7DD01E011
:103D7000FFF7CEFB11E06B48007858B96D48047826
:103D800003E0242064490855641C6B480078844291
:103D9000F7DD01E0FFF7E6FB00BF00BFE6E06748A4
:103DA0000088401C6549088065480078012801D1D9
:103DB000FEF78CF8614800884FF47A7190FBF1F2BD
:103DC00001FB1200002873D157480078012804D065
:103DD000022855D0032852D1C2E05A4800785A49E7
:103DE000097888420ED15748407857494978884227
:103DF00008D15448807854498978884202D10120FA
:103E00004F4908704F488078401C3C2190FBF1F2EC
:103E100001FB12004B4988700846807810B90120D8
:103E20004A49087049480078B8B1002047490870ED
:103E300044484078401C43494870084640783C2834
:103E400002D10120424908703E4840783C2190FB55
:103E5000F1F201FB12003B4948703D48007860B127
:103E600000203B49087037480078401C182190FB1F
:103E7000F1F201FB120033490870FFF7C7FB73E052
:103E800034488078401E3349887008468078FF287F
:103E900015D10846407860B90846007848B9012035
:103EA000274908702B488078401C2A4988705BE0BD
:103EB0005BE03B202749887001202749087026488D
:103EC000007888B10020244908701E484078401EC0
:103ED0001C49487008464078FF2802D101201F493C
:103EE00008703B20174948701C48007838B1002002
:103EF0001A49087013480078401E12490870FFF7ED
:103F000007FB31E077000020A8000020AA00002075
:103F1000A4000020D40000207A000020AB00002084
:103F2000B2000020CC00002076000020AC00002071
:103F3000AD000020AE000020AF000020B400002043
:103F4000BA0000208200002096000020B600002069
:103F5000B700002090000020B8000020B900002029
:103F600001200349087000BF00BF00BF00BF10BDA3
:103F7000760000204FF0E021401E486170470000AD
:103F80000448006840F47000024908600248034990
:103F90000860704788ED00E00024F400D0000020A5
:103FA00070B50121264800F0C1F80546294624488D
:103FB00000F0B6F805F0500000283FD038E0204867
:103FC00000F064F80446601C00B936E00A2C13D1F6
:103FD0001C48B0F80001002809DD00201949B1F89B
:103FE0000011184A50540120114681F802010020A6
:103FF0001449A1F800011BE01248B0F800017F2825
:1040000009DA1049B1F80001411C0E4BA3F8001168
:1040100019460C540BE07E220A49491C481EFCF745
:1040200088FC084981F87E407F20A1F8000100BF8C
:10403000034800F039F80028C1D100BF70BD00006E
:1040400000C00040E400002010B50F4890F80201C5
:10405000C0B1FEF7DBF9044680220B4901F1800074
:10406000FCF7A9FC0020084981F802010CB9FEF711
:10407000D4F905488030FFF751F903488030FEF746
:1040800059FB00BF10BD0000E4000020816911F061
:10409000100F0CBF00684FF0FF307047826912F0BC
:1040A000200FFBD1016070478069012121EA1010C7
:1040B0007047D0F818C01CF0080FFAD1D0F82CC007
:1040C0002CF0100CC0F82CC0D0F830C02CF0010C33
:1040D0002CF4407CC0F830C0D0F830C0B1EB021FE7
:1040E00034BF4CF0200C2CF0200CC0F830C038BF8E
:1040F0005208C900B1FBF2F1491C49088A09426221
:1041000001F03F018162C36200218161C16A41F017
:104110001001C162016B40F201321143016370472B
:1041200041647047826B114381637047002914BF5B
:10413000006CC06B7047000010B5044604E014F832
:10414000011B0348FFF7AAFF20780028F7D110BD14
:1041500000C0004070B504460D462246294602487C
:10416000FCF774F9004870BDE801002070B5044602
:104170000D46224629460248FCF768F9004870BD02
:10418000E801002003B401984100009850EAC120E2
:1041900018BF04204A0D18BF40F0010040F2FF7222
:1041A000B2EB515F08BF40F00200012808BF0520B4
:1041B00002B0704730380A2801D201207047002031
:1041C0007047000010B503211648FDF738FD0321A4
:1041D0001448FDF753FD00BF002203211148FDF7ED
:1041E00033FD0028F8D0104A03210E48FDF783FD67
:1041F0000E4890ED000ADFED0E0A60EE200A0A4834
:1042000090ED000AB8EE400A60EE800A9FED091AB0
:1042100080EE810ADFED080A30EEC00A074880ED23
:10422000000A10BD00800340C0000020C400002030
:10423000000096420000804500801343C800002023
:1042400008B5FA49FA48FFF70BFAFA490860084638
:1042500000684FF47A71B0FBF1F42046FFF78AFE54
:10426000FFF748FCFFF74DFCFFF77AF8FFF7A2F8DD
:10427000FFF7ECF8FDF7A6FDFDF7C8FDFEF704FA21
:104280001520FEF791F85021EB48FFF74BFFFEF7A2
:10429000C4F8FEF7F7F8E94908600320FEF7E4F8F0
:1042A00003211520FEF7F0F8E0210F20FEF7ECF8CF
:1042B000FEF7C8F8E24908601520FEF7B5F8E149B5
:1042C00008600F20FEF7B0F8DF490860A8E3DF4878
:1042D000007848B1002004E0DD49095CDD4A115452
:1042E000401C0828F8DB00BFDA48FFF7E7F8FFF7C3
:1042F00009F8D9490870FFF7A7FED84800780528C3
:104300004AD2DFE800F003AAF94A7A00D2480078DE
:1043100000F00100E8B9D248007800F00100C0B117
:104320000020D0490870D04908700120CF4908709A
:104330000020CF4908700320CE490870CE49097883
:10434000481CC11700EB91718910A0EB8101CA4A8A
:104350001170C2480178C0480078FDF7C1FDBF491F
:104360000870BD480078BE490870C348007848B15D
:10437000012804D0022808D003280CD108E0FFF758
:1043800045F908E0FFF718F905E0FFF7C1F802E08A
:10439000FFF7E8F800BF00BF41E3AF48007800F046
:1043A000400070B9AE48007800F0400048B1B34911
:1043B0000978481C00EBD0714910A0EB4101AF4ACD
:1043C0001170AF48006801460090AE48FEF770F8E3
:1043D000AD48006801460090AA480830FEF7C2F8D0
:1043E0009E4801789C480078FDF77AFD9B4908704B
:1043F000994800789A49087011E39748007800F0CE
:10440000200070B99648007800F0200048B19F491C
:104410000978481C00EBD0714910A0EB41019B4A80
:10442000117097480068014600909648FEF740F8E2
:10443000954800680146009092480830FEF792F8CF
:104440008648017884480078FDF74AFD8349087062
:104450008148007882490870E1E28748007830B1ED
:10446000012870D002286FD003286ED11CE27A4850
:10447000007800F0020068BB7948007800F0020084
:1044800040B37848007820B1012809D0022815D11E
:104490000DE00420764908700520764908700DE08B
:1044A00006207349087007207249087006E0002052
:1044B0006F49087003206F49087000BF00BF69484A
:1044C0000078401C032190FBF1F201FB12006549CA
:1044D000087076E06048007800F0080090BB604803
:1044E000007800F0080068B35E48007828B1012821
:1044F0000FD0022825D118E084E261480088401CD2
:1045000042F2107190FBF1F201FB12005C4908804D
:1045100017E05B488078401C5949887008468078CD
:104520000D2801D1012088700BE05548C078401C4F
:104530005349C8700846C078202801D10120C870AE
:1045400000BF3EE002E03DE00EE14DE2424800786F
:1045500000F00400A8BB4248007800F0040080B3DB
:104560004048007820B1012812D0022828D11BE051
:1045700043480088401E42490880084600884FF69C
:10458000FF71884203D142F20F703D49088017E065
:104590003B488078401E3A49887008468078FF285A
:1045A00001D10C2088700BE03548C078401E34499A
:1045B000C8700846C078FF2801D11F20C87000BF0E
:1045C00000BF11E22448007800F0020068BB2448D4
:1045D000007800F0020040B32248007820B10128A2
:1045E00009D0022815D10DE002201F4908700320D0
:1045F0001E4908700DE004201B49087005201B4966
:10460000087006E00020184908700120174908705A
:1046100000BF00BF13480078401C032190FBF1F25B
:1046200001FB12000F4908709DE031E0002D3101BF
:10463000500500F10400002000C000400C000020E4
:10464000080000201400002010000020BC00002002
:104650009C0000207A0000207800002077000020D5
:1046600079000020B0000020AE000020AF00002044
:10467000AC000020AD00002076000020AA00002041
:1046800088000020D400002082000020AB00002021
:10469000E448007800F0080070BBE348007800F0C0
:1046A000080048B3E148007820B101280DD0022865
:1046B00021D115E0DE480078401C182190FBF1F272
:1046C00001FB1200DA49087015E0D9484078401C17
:1046D0003C2190FBF1F201FB1200D54948700AE041
:1046E000D3488078401C3C2190FBF1F201FB120082
:1046F000CF49887000BF36E0CA48007800F0040057
:1047000088BBC948007800F0040060B3C74800784F
:1047100020B101280ED0022824D117E0C448007827
:10472000401EC349087008460078FF2801D11720B1
:10473000087017E0BE484078401EBD4948700846E2
:104740004078FF2801D13B2048700BE0B8488078C2
:10475000401EB749887008468078FF2801D13B2069
:10476000887000BF00BF3FE1AE48007800F0020053
:1047700068BBAD48007800F0020040B3AB48007859
:1047800020B1012809D0022815D10DE00220A94945
:1047900008700320A84908700DE00420A54908709E
:1047A0000520A549087006E00020A24908700120F4
:1047B000A149087000BF00BF9C480078401C03213D
:1047C00090FBF1F201FB1200984908706BE09548EC
:1047D000007800F0080070BB9348007800F00800F3
:1047E00048B39248007820B101280DD0022821D189
:1047F00015E092480078401C642190FBF1F201FB27
:1048000012008E49087015E08C484078401C3C210D
:1048100090FBF1F201FB1200884948700AE08748DA
:104820008078401C3C2190FBF1F201FB120083498F
:10483000887000BF37E0FFE77A48007800F0040096
:1048400088BB7948007800F0040060B377480078AE
:1048500020B101280ED0022824D117E07748007833
:10486000401E7649087008460078FF2801D1632071
:10487000087017E071484078401E7049487008463B
:104880004078FF2801D13B2048700BE06B488078CE
:10489000401E6A49887008468078FF2801D13B2075
:1048A000887000BF00BF9FE05E48007800F0020003
:1048B00068BB5D48007800F0020040B35B480078B8
:1048C00020B1012809D0022815D10DE00220594954
:1048D00008700320584908700DE0042055490870FD
:1048E00005205549087006E0002052490870012053
:1048F0005149087000BF00BF4C480078401C03219C
:1049000090FBF1F201FB1200484908706BE045484A
:10491000007800F0080070BB4348007800F0080001
:1049200048B34248007820B101280DD0022821D197
:1049300015E043480078401C182190FBF1F201FB80
:1049400012003F49087015E03D484078401C3C216A
:1049500090FBF1F201FB1200394948700AE0384837
:104960008078401C3C2190FBF1F201FB120034499D
:10497000887000BF37E0FFE72A48007800F00400A5
:1049800088BB2948007800F0040060B3274800780D
:1049900020B101280ED0022824D117E02848007841
:1049A000401E2749087008460078FF2801D11720CB
:1049B000087017E022484078401E21494870084698
:1049C0004078FF2801D13B2048700BE01C488078DC
:1049D000401E1B49887008468078FF2801D13B2083
:1049E000887000BF00BF00BF00BF164801780D48A7
:1049F0000078FDF775FA134908700A4800780A49EB
:104A000008700CE00F48017806480078FDF768FA56
:104A10000C490870034800780349087000BF00BFC4
:104A200055E400007800002079000020B00000204C
:104A300082000020AE000020AF0000209000002087
:104A4000960000207700002010B500290AD00878D1
:104A5000002807D005487844FBF7D8FF002801D08C
:104A6000002010BD0248784410BD0000C6070000B9
:104A7000BE07000010B500290AD00878002807D02A
:104A800005487844FBF7C2FF002801D0002010BD84
:104A90000248784410BD0000B6070000AE070000D1
:104AA0000808A0F500114FEA3101704743004FEAB2
:104AB000D30C4FEA3C0C43401FBF40070CF1605140
:104AC00013F0FE4F70471CF0006F03D100200CF074
:104AD000004170470CF0004343EA507010B540EAC3
:104AE000CC0000F00EF800BF000000924FEA000179
:104AF000FFF7D6BF4FF000414FF00000A1F50021B5
:104B000070470EF1020E2EF0030E5EF8044B2442A5
:104B100004D44FEA4102B2F17F4F11D84FEA40036B
:104B2000B3F17F4F0CD80ED14FEAD07CB2F17F4F5A
:104B30000CEB4C0C0CF1020C08BF4CEBD17C04E0EC
:104B40004FF0080C01E04FEAD17C0CEB4C0324FA47
:104B500003F404F00704B4F1040C06D20EEB840C49
:104B6000BDE810404CF0010C6047DFE80CF007088E
:104B700002024FF00040A0F5800010BD0846420040
:104B800018BFD2F1807288BF00F0004010BD4FF016
:104B90004070E1EE100A7047FCF7ADB800400040ED
:104BA0001000000000800540100000000050004090
:104BB000110000000090054011000000006000405E
:104BC0001200000000A0054012000000007000402C
:104BD0001300000000B00540130000000040024038
:104BE0001400000000C00540140000000050024006
:104BF0002E00000000D005402E00000000600240A2
:104C00002F00000000E005402F000000007002406F
:104C10003000000000F005403000000000D00340EC
:104C2000460000000000064046000000001006405C
:104C30004700000000200640480000000030064009
:104C40007F00000000400640800000000050064049
:104C500084000000006006408C000000004000401E
:104C600010000000008005401000000000500040CF
:104C7000110000000090054011000000006000409D
:104C80001200000000A0054012000000007000406B
:104C90001300000000B00540130000000040024077
:104CA0001400000000C00540140000000050024045
:104CB0002E00000000D005402E00000000600240E1
:104CC0002F00000000E005402F00000000700240AF
:104CD0003000000000F005403000000000D003402C
:104CE00043000000000006404300000000100640A2
:104CF000440000000020064045000000003006404F
:104D000058000000004006405900000000500640D6
:104D10005C00000000600640640000000070064077
:104D20006C000000008006406D000000009006400E
:104D30007F0000000040004000800540005000401F
:104D4000009005400060004000A005400070004059
:104D500000B005400040024000C005400050024045
:104D600000D005400060024000E0054000700240B5
:104D700000F0054000D0034000000640001006404F
:104D8000001006400020064000200640003006408B
:104D900000300640004006400040064000500640FB
:104DA000005006400060064000600640007006406B
:104DB00000700640008006400080064000900640DB
:104DC00000900640000700000006000000050000FB
:104DD00000040000000300000002000000010000C9
:104DE000000000000000000018ED00E01CED00E0F5
:104DF00020ED00E000E400E004E400E008E400E06E
:104E00000CE400E010E400E014E400E018E400E04A
:104E10001CE400E020E400E024E400E028E400E0FA
:104E20002CE400E030E400E034E400E038E400E0AA
:104E30003CE400E040E400E044E400E048E400E05A
:104E40004CE400E050E400E054E400E058E400E00A
:104E50005CE400E060E400E064E400E068E400E0BA
:104E60006CE400E070E400E074E400E078E400E06A
:104E70007CE400E080E400E084E400E088E400E01A
:104E800000E100E004E100E008E100E00CE100E006
:104E900010E100E080E100E084E100E088E100E072
:104EA0008CE100E090E100E000E200E004E200E0DC
:104EB00008E200E00CE200E010E200E080E200E046
:104EC00084E200E088E200E08CE200E090E200E0B2
:104ED00000688909001C4E0E40420F0000201C0093
:104EE00080841E0000802500999E36000040380016
:104EF00000093D0000803E0000004B00404B4C008C
:104F000000204E00808D5B0000C05D0000807000BE
:104F100000127A0000007D0080969800001BB70008
:104F20000080BB00C0E8CE00647ADA000024F40000
:104F30000000FA0080A81201002D310100366E0138
:104F400040787D01400000000000000000010000EA
:104F50003E0008000000000000010000A00000006A
:104F600002000000000100003454010000000000B5
:104F7000000100002B70060000000000000100008E
:104F800028000000000000000001000027000100D0
:104F900000000000000100002000000000000000F0
:104FA00000010000500000000200000000010000AD
:104FB0001AAC000000000000000100001794090076
:104FC000000000000001000016980500000000002D
:104FD00000010000140000000000000000010000BB
:104FE000138008000000000000010000A000000085
:104FF0000800000000010000100000000000000098
:105000000001000028000000020000000001000074
:1050100040000000040000000001000060000000EB
:1050200000000000000100005D000C000000000016
:10503000000100005000000000000000000100001E
:105040004E000200000000000001000041AC010021
:1050500000000000000100003C0000000000000013
:10506000000100003A80090000000000000100007B
:1050700030000000000000000001000028000000D7
:1050800000000000000100002700010000000000F7
:105090000001000023600600000000000001000085
:1050A0002160080000000000000100001E00000058
:1050B00000000000000100001DC00400000000000E
:1050C000000100005000000002000000000100008C
:1050D00018000000000000000001000014000000A3
:1050E000000000000001000060000000040000005B
:1050F000000100000024F40030003000005A620279
:105100009100910000879303D200D20000B4C40440
:105110001301130100E1F50554015401000E2707A6
:10512000950195010000000000000000303132338D
:1051300034353637383941424344454640305800CB
:1051400030313233343536373839616263646566FD
:105150004030780004000008000000000000000259
:10516000000100001000000002400000000000A04C
:105170000000000005400000000000C80000000022
:105180000C4000000000409C00000000194000009E
:105190000020BCBE0000000034400000BFC91B8ED0
:1051A00000000004B5400000504BCFD06607E2CFAE
:1051B000010000006C4100003E8251AADFEEA734DE
:1051C00001000000D9420000DCB5A0E23A301F9790
:1051D000FFFFFFFFB4450000FD25A0C8E9A3C14FB4
:1051E000FFFFFFFFFF3F0000000000800000000005
:1051F000FF3F000000000080000000004853000056
:1052000000000020D40000003C0200001C540000FC
:10521000D4000020F4050000580200001C0000002B
:1052200043000000F8FFFFFF0C0000000E0000002C
:105230000F0000002E0000001001000043000000DD
:10524000F8FFFFFF004040404040404040404141A7
:10525000414141404040404040404040404040404B
:1052600040404040400502020202020202020202E5
:1052700002020202022020202020202020202002E2
:105280000202020202029090909090901010101072
:10529000101010101010101010101010101010100E
:1052A00002020202020288888888888808080808A2
:1052B000080808080808080808080808080808086E
:1052C0000202020240000000000000000000000096
:1052D00000000000000000000000000000000000CE
:1052E00000000000000000000000000000000000BE
:1052F00000000000000000000000000000000000AE
:10530000000000000000000000000000000000009D
:10531000000000000000000000000000000000008D
:10532000000000000000000000000000000000007D
:10533000000000000000000000000000000000006D
:10534000000000000000000000000000000000005D
:10535000000000000000000000000000000000004D
:105360003F065B4F666D7D077F6F777C395E797195
:105370003D760F0E753837545C73673149783E1CA3
:105380007E646E5900BF86DBCFE6EDFD87FFEF3F01
:10539000606D7874373F787C7E7C3F2B6D2F27675C
:1053A0006E0F0E753837545C73673149783E1C7E3A
:1053B000646E5900BFE0EDF8F4B7BFF8FCFE0000E2
:1053C000FFFF0000000000000000173B34173B34D3
:1053D000D607071AD607071A00000F00000F173B61
:1053E0003B173B3B242424242424242400000000D5
:1053F00000000000000300010000000000000000A9
:1054000000000000000000000000000033335340A3
:0C54100000000000010000000024F40077
:0400000500000201F4
:00000001FF
