:020000040000FA
:10000000F0040020C9020000D1020000D302000069
:10001000D5020000D7020000D90200000000000055
:10002000000000000000000000000000DB020000F3
:10003000DD02000000000000DF020000611000008F
:10004000E3020000E5020000E7020000E902000010
:10005000EB02000051120000EF020000F10200006C
:10006000F3020000F5020000F7020000F9020000B0
:10007000FB020000FD020000FF020000010300007F
:10008000030300000503000007030000090300004C
:100090000B0300000D0300000F030000110300001C
:1000A00013030000150300001703000019030000EC
:1000B0001B0300001D0300001F03000021030000BC
:1000C000230300002503000027030000290300008C
:1000D0002B0300002D0300002F030000310300005C
:1000E000330300003503000037030000390300002C
:1000F0003B0300003D0300003F03000041030000FC
:1001000043030000450300004703000049030000CB
:100110004B0300004D0300004F030000510300009B
:10012000530300005503000057030000590300006B
:100130005B0300005D0300005F030000610300003B
:1001400063030000650300006703000081030000F3
:100150000000000000000000830300008503000091
:100160008703000089030000000000008B030000EB
:100170008D0300008F030000910300009303000033
:100180009503000097030000990300009B03000003
:100190009D0300009F030000A1030000A3030000D3
:1001A000A5030000A7030000A9030000AB030000A3
:1001B000AD030000AF030000B1030000B303000073
:1001C000B5030000B7030000B9030000BB03000043
:1001D000BD030000BF030000C1030000C303000013
:1001E000C5030000C7030000C9030000CB030000E3
:1001F000CD030000CF030000D1030000D3030000B3
:1002000000F002F800F03CF80AA090E8000C8244EC
:100210008344AAF10107DA4501D100F031F8AFF2C9
:10022000090EBAE80F0013F0010F18BFFB1A43F0D4
:1002300001031847FC1800001C190000103A24BFE5
:1002400078C878C1FAD8520724BF30C830C144BF3B
:1002500004680C607047000000230024002500267D
:10026000103A28BF78C1FBD8520728BF30C148BF19
:100270000B6070471FB501F091F91FBD10B510BD9F
:1002800000F0BBF81146FFF7F5FF01F087F800F02A
:10029000D9F803B4FFF7F2FF03BC00F0E1F8000067
:1002A000EFF3108072B67047EFF310807047EFF3F2
:1002B000108062B6704730BF704780F31188704776
:1002C000EFF31180704700004548804745480047DC
:1002D000FEE7FEE7FEE7FEE7FEE7FEE7FEE7FEE7F6
:1002E000FEE7FEE7FEE7FEE7FEE7FEE7FEE7FEE7E6
:1002F000FEE7FEE7FEE7FEE7FEE7FEE7FEE7FEE7D6
:10030000FEE7FEE7FEE7FEE7FEE7FEE7FEE7FEE7C5
:10031000FEE7FEE7FEE7FEE7FEE7FEE7FEE7FEE7B5
:10032000FEE7FEE7FEE7FEE7FEE7FEE7FEE7FEE7A5
:10033000FEE7FEE7FEE7FEE7FEE7FEE7FEE7FEE795
:10034000FEE7FEE7FEE7FEE7FEE7FEE7FEE7FEE785
:10035000FEE7FEE7FEE7FEE7FEE7FEE7FEE7FEE775
:10036000FEE7FEE7FEE7FEE7FEE7FEE7FEE7FEE765
:10037000FEE7FEE7FEE7FEE7FEE7FEE7FEE7FEE755
:10038000FEE7FEE7FEE7FEE7FEE7FEE7FEE7FEE745
:10039000FEE7FEE7FEE7FEE7FEE7FEE7FEE7FEE735
:1003A000FEE7FEE7FEE7FEE7FEE7FEE7FEE7FEE725
:1003B000FEE7FEE7FEE7FEE7FEE7FEE7FEE7FEE715
:1003C000FEE7FEE7FEE7FEE7FEE7FEE7FEE7FEE705
:1003D000FEE7FEE704480549034A054B7047000065
:1003E0003112000001020000F0000020F0040020A3
:1003F000F0000020704770477047754600F02CF8F9
:10040000AE4605006946534620F00700854618B001
:1004100020B5FFF7DFFFBDE820404FF000064FF0AA
:1004200000074FF000084FF0000B21F00701AC4629
:10043000ACE8C009ACE8C009ACE8C009ACE8C00948
:100440008D46704710B50446AFF300802046BDE8E6
:100450001040FFF71EBF00000048704790000020CA
:1004600001491820ABBEFEE72600020070470000DD
:1004700010B5002410E00120A040C2B206212220C5
:1004800000F0A6F90649087000220521222000F09C
:100490009FF903490870641C082CECDB10BD0000B8
:1004A00000000020024602F0010030B91848007830
:1004B00000F0010008B10020704702F0020030B9DE
:1004C0001348007800F0020008B10120F4E702F0C0
:1004D000800030B90E48007800F0800008B102209A
:1004E000EAE702F0400030B90948007800F0400027
:1004F00008B10320E0E702F0200030B9044800789A
:1005000000F0200008B10420D6E70846D4E7000038
:1005100072000020002100E0491C8142FCD370479A
:10052000D0F8003412F0010F14BF0B438B43C0F816
:10053000003412F0020FD0F8202414BF114322EA35
:100540000101C0F8201470472DE9F00301264FF097
:10055000000C0325C2F3411706FA0CF40C4211D02B
:10056000D0F8C48F4FEA4C0405FA04F928EA0908C8
:10057000C0F8C48FD0F8C48F07FA04F448EA040422
:10058000C0F8C44F0CF1010C0CF0FF0CBCF1080FCB
:10059000E2D3D0F800C512F0010F14BF4CEA010CF1
:1005A0002CEA010CC0F800C5D0F804C512F0020F07
:1005B00014BF4CEA010C2CEA010CC0F804C5D0F8B9
:1005C00008C512F0040F14BF4CEA010C2CEA010C10
:1005D000C0F808C5D0F818C512F0080F14BF4CEACF
:1005E000010C2CEA010CC0F818C512F0100FD0F85D
:1005F0003C2514BF0A438A43C0F83C25D0F80C259B
:1006000013F0010F14BF0A438A43C0F80C25D0F839
:10061000102513F0020F14BF0A438A43C0F81025B7
:10062000D0F8142513F0040F14BF0A438A43C0F80E
:100630001425D0F81C2513F0080F14BF0A438A4371
:10064000C0F81C25D0F8442513F4007F14BF0A43DA
:100650008A43C0F84425D0F8402513F4407F14BFE6
:100660000A438A43C0F84025D0F82825002B0CBF48
:10067000114322EA0101C0F82815BDE8F0037047D4
:100680000E4AC0F30741D26E01238B401A420C4A36
:100690001ABF02EBC101496852F83110020AD1F8C1
:1006A0002C354FF00F0C0CFA02FC00F00F0023EA7F
:1006B0000C0390401843C1F82C05704700E00F4030
:1006C0004017000030B50C4605460022FFF728FF12
:1006D00021462846BDE8304008230122FFF734BFF9
:1006E00030B50C46054608230122FFF72DFF2146B1
:1006F0002846BDE830400122FFF712BF30B50C4656
:1007000005460222FFF70CFF21462846BDE830408F
:1007100009230122FFF718BF30B50C460546022217
:10072000FFF7FEFE21462846BDE83040082301229F
:10073000FFF70ABF30B50C4605460222FFF7F0FE70
:1007400021462846BDE8304008230122FFF7FCBEC1
:100750002DE9F04104460E4600BF1C4800F078F831
:100760000028FAD100222146184800F0B9F8314695
:10077000164800F077F80721144800F06FF800BF22
:10078000124800F05FF80028FAD1104800F071F824
:10079000C7B26420FFF7BEFE012221460B4800F0DD
:1007A0009FF80721094800F059F800BF074800F0FA
:1007B00049F80028FAD1054800F052F8C5B2642083
:1007C000FFF7A8FE2846BDE8F081000000000240C7
:1007D0002DE9F04104460F46154600BF184800F0C9
:1007E00037F80028FAD100222146154800F078F8A1
:1007F0003946134800F036F80321114800F02EF86E
:1008000000BF0F4800F024F80028FAD10C4800F08F
:1008100030F8C6B229460A4800F024F805210848F5
:1008200000F01CF800BF064800F012F80028FAD1CA
:10083000034800F01EF8C6B23046BDE8F081000063
:1008400000000240406810F0400018BF01207047CF
:10085000406810F0010018BF0120704741607047E8
:100860008068704781607047016A41F01001016241
:100870007047406810F0010F05D110F0120F1CBF37
:1008800000F01C007047002070470000036A43F02E
:1008900010030362002A14BF0E4A0F4A02EB8203C0
:1008A00001EB830302EB820292005B1EB3FBF2F2C8
:1008B000521EC260D0F8C02F12F0010F08BF70475F
:1008C000064A1144521CB1FBF2F1491E41F080016D
:1008D000C1607047801A0600A08601007F4737017B
:1008E00042EA4101016070471649042804BF0868C4
:1008F00040F4803018D0052804BF086840F4003068
:1009000012D0062812D00F2815D0102838BF7047F3
:10091000103800F01F01012202FA01F142090A48D1
:1009200050F822000160704708607047086840F482
:100930008020086070474FF0E020016941F002011B
:100940000161704724ED00E08C18000010B5FFF73E
:10095000AEFC002818BF012010BD0000054A20F0A1
:100960000301515809688007C00E21FA00F0C0B297
:1009700070470000F017000006480068064A00F4BF
:10098000E061002052F820308B421CBF401C082838
:10099000F8D370470CED00E0D0170000044951F87F
:1009A0002000044940F0FD7040F08060086070470E
:1009B000D01700000CED00E0FFF782BC084A20F0E1
:1009C0000303D25813688007C00E4FF0FF0C0CFAD7
:1009D00000FC23EA0C0301FA00F018431060704792
:1009E000F01700007FB522A103C9CDE9020122A1C1
:1009F00003C9CDE90001002404E02148005D21493C
:100A00000855641C082CF8DB00241BE0002201219F
:100A10001820FFF7DDFE1C490870002503E002A83E
:100A200000F0F0F86D1C142DF9DBFF2201211820D5
:100A3000FFF7CEFE14490870FFF71AFD1348FFF7C1
:100A400069FD641C032CE1DB00240DE0002503E0BC
:100A5000684600F0D7F86D1C142DF9DBFFF708FD90
:100A60000A48FFF757FD641C032CEFDB7FBD000035
:100A70000402090100000106202311242424242457
:100A800067000020470000200000002000350C0017
:100A900010B500212220FFF75BFE024908700846CE
:100AA000007810BD0000002010B5114800F0A0FA39
:100AB00000BF0F4800F0B0FA0028FAD00C48C01C64
:100AC00000F096FA00BF0A48C01C00F0A5FA002802
:100AD000F9D001210748FFF703FE03210648FFF77D
:100AE000F1FD0A23012203210348FFF72DFD10BD6C
:100AF000050800F00050024000D0034010B51E4829
:100B000000F076FA1D4800F073FA1D48FFF7B8FDB3
:100B10001C48FFF7B5FD04211B48FFF7FDFD082128
:100B20001948FFF7EBFD0122184801681848FFF744
:100B3000ADFE1748FFF798FEFF220C212220FFF799
:100B400047FE044600220D212220FFF741FE044605
:100B500000220E212220FFF73BFE04460022032143
:100B60001820FFF735FE0446FF2201211820FFF769
:100B70002FFE044610BD0000002000F0010800F028
:100B800002080100020C0100005000400400002097
:100B90000000024010B5124800F02AFA114800F097
:100BA00027FA00BF0F4800F037FA0028FAD00120DA
:100BB000FFF766FD40F20140FFF762FD03214FF0B1
:100BC0004020FFF7B7FD60234FF4E132064801688B
:100BD000064800F084FB06A000F0C4FB10BD000036
:100BE000001800F0000800F00400002000C00040E1
:100BF0000D0A48656C6C6F2C776F726C64210D0A5E
:100C0000000000007CB505464FF0FF301649086033
:100C1000286800906868019048174FF0E021C1F8FB
:100C2000000100241DE00120A040C2B206212220C4
:100C3000FFF7CEFD0D490870285D0D490A5C0521BE
:100C40002220FFF7C5FD0949087042F21070FFF736
:100C500061FC002205212220FFF7BAFD034908703C
:100C6000641C082CDFDB7CBD80E100E0000000207C
:100C700018000020002004E00849095C084A1154CB
:100C8000401C0828F8DB064949782531044A517090
:100C90001146C9782531D170704700005F000020EF
:100CA00047000020002004E00849095C084A11546C
:100CB000401C0828F8DB0649C9782531044AD17060
:100CC00011464979253151717047000057000020C5
:100CD00047000020002004E00849095C084A11543C
:100CE000401C0828F8DB064949782531044A517030
:100CF0001146C9782531D170704700004F0000209F
:100D0000470000202DE9F003AF4D02462868AF4BA5
:100D10001840A0F18053B3F5A02359D002F0380950
:100D2000DFF8AC82C2F38414B9F1100F25D0B9F109
:100D3000300F04BF47F230504FF400130DD04FF086
:100D40003800904304BF4FF40040C30105D012F0B7
:100D5000380F1CBF0020034613D09E4F12F4605F73
:100D60004FF0000618BF00222CD057F832404445FF
:100D70007DD307EBC2025268E1E000234046152410
:100D8000EBE7A4F10900122822D29348D5F87CC0E1
:100D90004FF04C7350F824002CF01C0C072CA8BF0B
:100DA0004CF0100CC5F87CC02E6D4FF4002C16F4DE
:100DB000807FD2D1BCF1010C0AD02E6D16F4807F59
:100DC000F8D0CAE712F0380F18BFB9F1100F04D0ED
:100DD000BDE8F0034FF000007047C2F30268DFF88F
:100DE000FCC14FF0000257F83290E14503D307EB06
:100DF000C202526803E0521C062AF4D33246C5F8F8
:100E0000C020D5F8B020DFF8D8C102EA0C0242F0C9
:100E10000042C5F8B020DFF8CCC1A4F109024C1E95
:100E20005CF828C0A444BCFBF1FCD5F8B010194311
:100E3000C5F8B01008EBC80101EB41046A4902EBA8
:100E4000420201EBC40101EB82046468C5F864410D
:100E5000D5F864416FF0FF0808EB0C2C44EA0C0C49
:100E6000C5F864C151F82210D5F8602100E061E0B6
:100E700002F400021143C5F86011D5F86011D5F8ED
:100E80006021C1F38921C2F30904D5F86421C2F3BA
:100E9000042202F1010CD5F8642102F01F02521C59
:100EA000B0FBF2F04A09C2F100084443424301EBAF
:100EB000481104EB5212484302EB9020B0FBFCF0C7
:100EC00041080846002257F832C0844503D307EB97
:100ED000C200466802E0521C062AF4D3C5F8C0607E
:100EE000D5F8600110F4000F1DBFD5F8B00040F038
:100EF0008040C5F8B000D5F8600104BF40F40000A0
:100F0000C5F860014FF40040D5F8682112F0010FD8
:100F100002D1401E0028F7DC002808BF002148D07D
:100F2000D5F8B000184340F0010040F01040C5F87B
:100F3000B0003EE0521C062AFFF417AF3246C5F857
:100F4000C020D5F8602122F40002C5F86021D5F850
:100F5000B020DFF898C002EA0C0242F00042C5F867
:100F6000B020002908BF4FF0000C0AD0B0FBF1FC04
:100F7000BCF1000F18BFACF1010C0CF10101B0FB8A
:100F8000F1F10846002257F83240844203D307EBC0
:100F9000C200466802E0521C062AF4D3C5F8C060BD
:100FA000D5F8B00043EA8C22104340F00040C5F869
:100FB000B000D5F8B00020F47000C5F8B000BDE86E
:100FC000F00308467047000000E00F400000FF708B
:100FD0000024F400001B0000E418000040787D01AC
:100FE00000FC0FE0DC18000050190000FF0300EFC8
:100FF000C0F307230749C0B2194401F07043C1F39D
:10100000130143EA411141EA800040F000700122DF
:101010000260704700E60F40C0F307220849C0B2E3
:10102000114401F07042C1F3130142EA411141EA57
:10103000800040F000700068002818BF0120704751
:1010400000EA0F404FF0E020016941F00501016125
:1010500070474FF0E020016941F0020101617047E3
:1010600010B56A480078032802D0042866D166E0EB
:10107000674A1288521C664B1A80664A127872BB05
:101080001A4612884FF4487392FBF3F403FB1422C0
:10109000002A53D15E4B1A80002012E05E4A12688B
:1010A0000244102A04DB5C4A12680244103A02E04F
:1010B000594A126802441146584A525C584B1A5415
:1010C000401C0828EADB544A1268521C524B1A6032
:1010D0001A461268102A31D100221A602EE0FFE76A
:1010E0004B4A12884FF4C87392FBF3F403FB1422AB
:1010F00022BB0022464B1A80002012E0464A1268AA
:101100000244102A04DB444A12680244103A02E006
:10111000414A126802441146404A525C404B1A54FC
:10112000401C0828EADB3C4A1268521C3A4B1A6001
:101130001A461268102A01D100221A6063E0344A6C
:101140001288521C324B1A80324A12786ABB1A46F5
:1011500012884FF4487392FBF3F403FB1422002A25
:1011600050D12B4B1A80002012E02B4A1268024407
:10117000102A04DB284A12680244103A02E0264A88
:10118000126802441146254A525C254B1A54401CF1
:101190000828EADB204A1268521E1F4B1A601A46C2
:1011A00012687ABB10221A602CE0194A12884FF498
:1011B000C87392FBF3F403FB14221ABB0022144BF6
:1011C0001A80002012E0144A12680244102A04DB3C
:1011D000114A12680244103A02E00F4A12680244AF
:1011E00011460E4A525C0E4B1A54401C0828EADB8A
:1011F000094A1268521E084B1A601A4612680AB948
:1012000010221A6000BF00BF10BD00007000002057
:10121000780000207A000020740000208000002068
:10122000470000204FF0E021401E48617047000059
:101230000448006840F4700002490860024803490D
:101240000860704788ED00E00024F4007C00002076
:1012500070B501210F4800F07FF805460EA000F0A0
:101260008FF829460B4800F071F80DE0094800F0AE
:101270001BF80446601C30B100BFE1B2054800F025
:1012800021F80028F9D000BF024800F023F8002818
:10129000ECD170BD00C000400D0A55415254305F82
:1012A000494E540D0A000000816911F0100F0CBF67
:1012B00000684FF0FF307047826912F0200FFBD1B9
:1012C00001607047826912F0200F06BF01600120A3
:1012D000002070478069012121EA10107047D0F882
:1012E00018C01CF0080FFAD1D0F82CC02CF0100C4C
:1012F000C0F82CC0D0F830C02CF0010C2CF4407C8D
:10130000C0F830C0D0F830C0B1EB021F34BF4CF091
:10131000200C2CF0200CC0F830C038BF5208C90097
:10132000B1FBF2F1491C49088A09426201F03F0110
:101330008162C36200218161C16A41F01001C16212
:10134000016B40F201321143016370474164704701
:10135000826B114381637047002914BF006CC06B1E
:101360007047000010B5044604E014F8011B034860
:10137000FFF7A2FF20780028F7D110BD00C0004081
:1013800010B5044604E014F8011B0348FFF79AFF68
:1013900020780028F7D110BD00C000406E496F488A
:1013A000FFF7B0FC6E490860084600684FF47A7198
:1013B000B0FBF1F42046FFF735FFFFF743FEFFF7E0
:1013C00048FEFFF771FBFFF799FBFFF7E3FBFFF721
:1013D00009FB1520FFF788FA50216248FFF7B8FF94
:1013E000FFF7B4FAFFF7E8FA5F4908600320FFF758
:1013F000D5FA03211520FFF7E1FAE0210F20FFF7CE
:10140000DDFAFFF7B9FA594908601520FFF7A6FA87
:10141000574908600F20FFF7A1FA564908609AE083
:101420005548FFF7EFFBFFF733FB5449087054486A
:10143000007820B1032835D0042832D15EE04F482F
:10144000007800F0010070B94E48007800F001000B
:1014500048B14D480078401C032190FBF1F201FB9C
:101460001200494908704648017844480078FFF75F
:1014700019F84349087041480078424908704248C9
:10148000007838B1012802D0022809D105E0FFF721
:1014900021FC05E0FFF706FC02E0FFF7EBFB00BFD5
:1014A00000BF57E03548007800F0400070B935487B
:1014B000007800F0400048B134490978481C00EB3E
:1014C000D0714910A0EB4101304A117030483149C8
:1014D0000A680260496841602F490A688260496869
:1014E000C1602748017825480078FEF7DBFF2449D2
:1014F000087022480078234908702BE01F480078C4
:1015000000F0200070B91F48007800F0200048B1BA
:101510001E490978481C00EBD0714910A0EB41012D
:101520001A4A11701A481B490A68026049684160EA
:1015300019490A6882604968C160114801780F48FA
:101540000078FEF7AFFF0E4908700C4800780D498F
:10155000087000BF00BF63E7002D3101500500F1A6
:101560000400002000C000400C0000200800002003
:10157000140000201000002047000020710000200F
:1015800070000020720000206F0000207A00002010
:1015900080000020570000204F0000204FF04070D6
:1015A000E1EE100A7047000000400040100000000B
:1015B00000800540100000000050004011000000B5
:1015C0000090054011000000006000401200000083
:1015D00000A0054012000000007000401300000051
:1015E00000B005401300000000400240140000005D
:1015F00000C0054014000000005002402E00000012
:1016000000D005402E000000006002402F000000C6
:1016100000E005402F000000007002403000000094
:1016200000F005403000000000D0034046000000FC
:101630000000064046000000001006404700000081
:101640000020064048000000003006407F000000F7
:10165000004006408000000000500640840000006A
:10166000006006408C0000000040004010000000B8
:1016700000800540100000000050004011000000F4
:1016800000900540110000000060004012000000C2
:1016900000A0054012000000007000401300000090
:1016A00000B005401300000000400240140000009C
:1016B00000C0054014000000005002402E00000051
:1016C00000D005402E000000006002402F00000006
:1016D00000E005402F0000000070024030000000D4
:1016E00000F005403000000000D00340430000003F
:1016F00000000640430000000010064044000000C7
:101700000020064045000000003006405800000060
:101710000040064059000000005006405C000000F8
:101720000060064064000000007006406C0000008D
:10173000008006406D000000009006407F00000021
:1017400000400040008005400050004000900540EF
:101750000060004000A005400070004000B005405F
:101760000040024000C005400050024000D005404B
:101770000060024000E005400070024000F00540BB
:1017800000D0034000000640001006400010064054
:101790000020064000200640003006400030064091
:1017A0000040064000400640005006400050064001
:1017B0000060064000600640007006400070064071
:1017C00000800640008006400090064000900640E1
:1017D00000070000000600000005000000040000F3
:1017E00000030000000200000001000000000000F3
:1017F0000000000018ED00E01CED00E020ED00E02E
:1018000000E400E004E400E008E400E00CE400E0B0
:1018100010E400E014E400E018E400E01CE400E060
:1018200020E400E024E400E028E400E02CE400E010
:1018300030E400E034E400E038E400E03CE400E0C0
:1018400040E400E044E400E048E400E04CE400E070
:1018500050E400E054E400E058E400E05CE400E020
:1018600060E400E064E400E068E400E06CE400E0D0
:1018700070E400E074E400E078E400E07CE400E080
:1018800080E400E084E400E088E400E000E100E0BF
:1018900004E100E008E100E00CE100E010E100E01C
:1018A00080E100E084E100E088E100E08CE100E01C
:1018B00090E100E000E200E004E200E008E200E085
:1018C0000CE200E010E200E080E200E084E200E0F0
:1018D00088E200E08CE200E090E200E00068890924
:1018E000001C4E0E40420F0000201C0080841E0091
:1018F00000802500999E36000040380000093D0018
:1019000000803E0000004B00404B4C0000204E0089
:10191000808D5B0000C05D000080700000127A00C6
:1019200000007D0080969800001BB7000080BB007F
:10193000C0E8CE00647ADA000024F4000000FA0067
:1019400080A81201002D310100366E0140787D0122
:101950004000000000000000000100003E00080000
:101960000000000000010000A000000002000000D4
:1019700000010000345401000000000000010000DC
:101980002B7006000000000000010000280000008D
:10199000000000000001000027000100000000001E
:1019A0000001000020000000000000000001000015
:1019B0005000000002000000000100001AAC00000E
:1019C0000000000000010000179409000000000062
:1019D0000001000016980500000000000001000052
:1019E0001400000000000000000100001380080047
:1019F0000000000000010000A0000000080000003E
:101A000000010000100000000000000000010000C4
:101A1000280000000200000000010000400000005B
:101A20000400000000010000600000000000000051
:101A3000000100005D000C0000000000000100003B
:101A40005000000000000000000100004E000200F5
:101A5000000000000001000041AC01000000000097
:101A6000000100003C000000000000000001000038
:101A70003A80090000000000000100003000000072
:101A8000000000000001000028000000000000002D
:101A9000000100002700010000000000000100001C
:101AA0002360060000000000000100002160080023
:101AB00000000000000100001E0000000000000007
:101AC000000100001DC00400000000000001000033
:101AD000500000000200000000010000180000009B
:101AE00000000000000100001400000000000000E1
:101AF0000001000060000000040000000001000080
:101B00000024F40030003000005A6202910091007D
:101B100000879303D200D20000B4C4041301130160
:101B200000E1F50554015401000E270795019501C8
:101B3000501B000000000020800000003C0200005C
:101B4000D01B00008000002070040000580200003C
:101B50000000000000000000000000000000000085
:101B600000000000000000003F065B4F666D7D072F
:101B70007F6F777C395E79713D760F0E75383754FB
:101B80005C73673149783E1C7E646E5900BF86DB0A
:101B9000CFE6EDFD87FFEF00000000000000000031
:101BA00008000000002424020002050005020800CD
:101BB00000000500002424242424242424242400B8
:101BC00000FFFF0000000000000000000024F400FF
:0400000500000201F4
:00000001FF
