:020000040000FA
:100000009006002011030000190300001B030000EC
:100010001D0300001F03000021030000000000007A
:1000200000000000000000000000000023030000AA
:10003000250300000000000027030000752B0000CE
:100040002B0300002D0300002F03000031030000EC
:1000500033030000053000003703000039030000BF
:100060003B0300003D0300003F030000410300008C
:10007000430300004503000047030000490300005C
:100080004B0300004D0300004F030000510300002C
:1000900053030000550300005703000059030000FC
:1000A0005B0300005D0300005F03000061030000CC
:1000B000630300006503000067030000690300009C
:1000C0006B0300006D0300006F030000710300006C
:1000D000730300007503000077030000790300003C
:1000E0007B0300007D0300007F030000810300000C
:1000F00083030000850300008703000089030000DC
:100100008B0300008D0300008F03000091030000AB
:10011000930300009503000097030000990300007B
:100120009B0300009D0300009F030000A10300004B
:10013000A3030000A5030000A7030000A90300001B
:10014000AB030000AD030000AF030000C9030000D3
:100150000000000000000000CB030000CD03000001
:10016000CF030000D103000000000000D303000013
:10017000D5030000D7030000D9030000DB03000013
:10018000DD030000DF030000E1030000E3030000E3
:10019000E5030000E7030000E9030000EB030000B3
:1001A000ED030000EF030000F1030000F303000083
:1001B000F5030000F7030000F9030000FB03000053
:1001C000FD030000FF030000010400000304000021
:1001D0000504000007040000090400000B040000EF
:1001E0000D0400000F0400001104000013040000BF
:1001F0001504000017040000190400001B0400008F
:1002000000F002F800F061F80AA090E8000C8244C7
:100210008344AAF10107DA4501D100F056F8AFF2A4
:10022000090EBAE80F0013F0010F18BFFB1A43F0D4
:1002300001031847F03D0000103E0000103A24BFB3
:1002400078C878C1FAD8520724BF30C830C144BF3B
:1002500004680C607047000000230024002500267D
:10026000103A28BF78C1FBD8520728BF30C148BF19
:100270000B607047692900F05781642900F05481B0
:10028000752900F051816F2900F0E881782900F08C
:100290000D820368DB0928BF41F08001632900F06B
:1002A0007084E32900F08384002070471FB503F0B9
:1002B000CDFB00F0D3FD04000020002103F0B0FBD3
:1002C000401C60601FBD10B510BD00F0A2FD1146BE
:1002D000FFF7ECFF02F098FF00F0C4FD03B4FFF756
:1002E000F2FF03BC00F0CCFDEFF3108072B6704754
:1002F000EFF310807047EFF3108062B6704730BFA5
:10030000704780F311887047EFF311807047000049
:100310004548804745480047FEE7FEE7FEE7FEE721
:10032000FEE7FEE7FEE7FEE7FEE7FEE7FEE7FEE7A5
:10033000FEE7FEE7FEE7FEE7FEE7FEE7FEE7FEE795
:10034000FEE7FEE7FEE7FEE7FEE7FEE7FEE7FEE785
:10035000FEE7FEE7FEE7FEE7FEE7FEE7FEE7FEE775
:10036000FEE7FEE7FEE7FEE7FEE7FEE7FEE7FEE765
:10037000FEE7FEE7FEE7FEE7FEE7FEE7FEE7FEE755
:10038000FEE7FEE7FEE7FEE7FEE7FEE7FEE7FEE745
:10039000FEE7FEE7FEE7FEE7FEE7FEE7FEE7FEE735
:1003A000FEE7FEE7FEE7FEE7FEE7FEE7FEE7FEE725
:1003B000FEE7FEE7FEE7FEE7FEE7FEE7FEE7FEE715
:1003C000FEE7FEE7FEE7FEE7FEE7FEE7FEE7FEE705
:1003D000FEE7FEE7FEE7FEE7FEE7FEE7FEE7FEE7F5
:1003E000FEE7FEE7FEE7FEE7FEE7FEE7FEE7FEE7E5
:1003F000FEE7FEE7FEE7FEE7FEE7FEE7FEE7FEE7D5
:10040000FEE7FEE7FEE7FEE7FEE7FEE7FEE7FEE7C4
:10041000FEE7FEE7FEE7FEE7FEE7FEE704480549E4
:10042000034A054B70470000E52F00000102000061
:100430009002002090060020900200200FB41CB50E
:10044000074B06AA7B4469460090059800F077FBAD
:100450000020694600F086FB1CBC5DF814FB000020
:100460001D07000070B5044685690068C10601D506
:10047000302600E02026C00707D070BDD4E9012156
:1004800030469047206A401C20626D1EF6D570BD34
:1004900070B5044685690078C00707D170BDD4E9FE
:1004A000012120209047206A401C20626D1EF6D555
:1004B00070BD09684A0501D540B27047C905FCD531
:1004C00000B2704709684A0501D5C0B27047C90536
:1004D000FCD580B2704770B50C460546012A05D0A0
:1004E0002878800600D5EA69002302E0012305E0B0
:1004F0005B1C934202D2E05C0028F9D1A869E6189F
:10050000C01AA861286A184428622846FFF7AAFF83
:1005100004E0D5E9012114F8010B9047B442F8D367
:100520002846FFF7B5FF70BD2DE9F04106460024CF
:1005300010687529314616A510D0FFF7BAFF0028BC
:1005400002DA404213A507E031688A0701D512A5F7
:1005500002E0490704D511A5012401E0FFF7B2FF2D
:1005600000210A2206F1240709E0B0FBF2FCB0FBEF
:10057000F2F302FB1C00303078541846491C002866
:10058000F3D123462A463046BDE8F04100F079BA5F
:10059000000000002D0000002B00000020000000E3
:1005A0002DE9FF5F15468A460446DFF8AC80F84423
:1005B0000027D8E900103E46CDE9001010E03AF8D7
:1005C00016106A4602A800F0FEFA411C07D02178F6
:1005D000890603D5E269391891420DD80744761C83
:1005E0002078800602D5E069B84205DDAE42E6DB40
:1005F0003AF816000028E2D1A069C01BA06120468D
:10060000FFF730FFD8E90010CDE90010002017E017
:100610003AF818106A4602A800F0D5FAB0F1FF3F88
:1006200081460BD000250DF1080B05E0D4E901212E
:100630001BF8050090476D1C4D45F7D308F10100EC
:10064000B0428046E4DB206A384420622046FFF74F
:100650001FFFBDE8FF9F00002E3A000070B5044662
:1006600021461068FFF72EFF002104F1240505E064
:1006700000F007023032C0086A54491C0028F7D144
:100680002068002307A2050707D5800600D421B102
:10069000E069012304A2401EE0612046BDE87040ED
:1006A00000F0EFB9000000003000000070B5044613
:1006B0000D4621461068FFF705FF2188090502D580
:1006C0000F4A7A4402E00E4A7A440E32002104F1C5
:1006D000240305E000F00F060009965D5E54491CF6
:1006E0000028F7D120780023000704D5702D02D010
:1006F00009B1022311322046BDE8704000F0C1B9B3
:10070000223900002DE9F05F894604464FF0000AC7
:10071000DFF874B1FB44C0F820A02046E1688847A8
:10072000002874D0252806D0D4E901219047206AFA
:10073000401C2062F1E700265F462046E1688847BA
:100740002028054607DB312D05D2781910F8200C3A
:1007500008B10643F1E7B00701D526F00406C4F856
:100760001CA00027C4F818A02A2D09D0284602F0A2
:1007700043FD38B304EB8708303DC8F8185019E042
:1007800059F8041B204604EB87029161E168884711
:10079000012F054618D1E069002820DA26F020064E
:1007A0001DE0D8F8180000EB800005EB4000303861
:1007B000C8F818002046E1688847054602F01CFD8D
:1007C0000028EED1012F0AD02E2D08D12046E16855
:1007D00088477F1C0546022F46F02006C4DBA0692F
:1007E000002803DA404246F00106A061F00701D07C
:1007F00026F010066C2D0BD0682D09D04C2D39D069
:100800006A2D35D0742D35D07A2D33D016E038E0EE
:10081000E1682F4620468847B842054609D16C2F2B
:1008200026D04FF48060E16806432046884705469D
:1008300004E06C2F1AD04FF4807006430DB3A5F17D
:100840004100192802D8203546F400664A46294658
:10085000204626604E46FFF70DFD80B101280BD0E3
:10086000F61D26F0070000F1080956E74020E4E7EE
:100870008020D8E70020D6E706F104094DE7284696
:1008800052E7206ABDE8F09FF838000040EA010313
:1008900070B59B072ED14FF00136042A2AD308C821
:1008A00010C99D1B9D43121F15EAC61517D0D8B25B
:1008B000E1B2401A50EA056110D198B2A1B2401AD3
:1008C00050EA05410AD123F07F4024F07F41401ACD
:1008D00050EA052102D1180EA0EB146070BDA342AE
:1008E000DBD018BA21BA884201D9012070BD4FF07F
:1008F000FF3070BD0AB9002070BD10F8013B11F83F
:10090000014B63B1A3420AD1521E08D010F8013B3B
:1009100011F8014B1BB1A34201D1521EEDD1181B9E
:1009200070BD431A28BF9A4240F26D81032A1044D9
:10093000114440F2268010F0030F1EBF11F8013D54
:10094000521E00F8013D10F0030F7FF4F6AF11F0D6
:10095000030300F0B081083AC0F00B8051F8043D69
:10096000083A51F804CD40F8043D40F804CDFFF7B3
:10097000F3BF121D5CBF51F8043D40F8043DAFF3D6
:100980000080D20724BF11F8013D11F801CD48BF06
:1009900011F8012C24BF00F8013D00F801CD48BF3B
:1009A00000F8012C704710B5044610F0030F08BF83
:1009B00011F0030F40F015804FF0013E121FC0F2FE
:1009C0000E8051F8043BA3EB0E0C2CEA030C1CEA3E
:1009D000CE1C08BF40F8043BF0D0A1F1040102F1A5
:1009E0000402521E08DB11F8013B002B00F8013B0A
:1009F000F7D1114600F089F9204610BD4FF0013CB7
:100A000050F8042B51F8043B9A4221D1A2EB0C037D
:100A1000934313EACC1317D150F8042B51F8043B3D
:100A20009A4215D1A2EB0C03934313EACC130BD1DA
:100A300050F8042B51F8043B9A4209D1A2EB0C0365
:100A4000934313EACC13DBD04FF00000704700BF94
:100A5000D01A01BAB1FA81F101F0180122FA01F0BD
:100A6000CB40C1F12001DBB2C0B2C01A2CFA01F3B5
:100A7000D11A914311EAC311E6D17047704770470C
:100A800070472DE9F0470D4699469246044600F11D
:100A900024080168880604D5E06921F0100121606E
:100AA00000E00120A84201DD471B00E00027A1690A
:100AB0007A1902EB0900081AA0612078C00602D456
:100AC0002046FFF7CFFC002608E0D4E901211AF800
:100AD00006009047206A401C761C20624E45F4DBDD
:100AE0002078C0060AD52046FFF7BCFC06E0D4E912
:100AF000012130209047206A401C2062381EA7F157
:100B00000107F4DC07E0D4E9012118F8050090475B
:100B1000206A401C2062281EA5F10105F3DC204656
:100B2000FFF7B6FC2078000602D50220BDE8F0876A
:100B30000120FBE701694A1C02610878704700B593
:100B40008FB0CDE901310021059105497944CDE906
:100B5000031011466846FFF7D5FD0FB000BD000039
:100B6000E5FFFFFF0A6802F8010B0A60704710B545
:100B7000436913B1AFF3008001E0FFF7ACFC012043
:100B800010BD127800F124010A7000224A7001227F
:100B9000EDE711684FF0FF32E9E710B5436913B193
:100BA000AFF3008001E0FFF7FBFC012010BD1288CD
:100BB00000F1240182840022C2840122EDE7116841
:100BC0004FF0FF32E9E770B516460C46054600F0D7
:100BD000BFF8036893F80101012806D0FF2C0FD855
:100BE000185D68B101202C7070BDD3F80701324642
:100BF000214603F2071303442846BDE87040184716
:100C00004FF0FF3070BD032A40F2308010F0030C2B
:100C100000F0158011F8013BBCF1020F624498BF4F
:100C200011F801CB00F8013B38BF11F8013BA2F1EC
:100C3000040298BF00F801CB38BF00F8013B11F067
:100C4000030300F08D80083AC0F0088051F8043B9F
:100C5000083A51F804CBA0E80810F5E7121D5CBF74
:100C600051F8043B40F8043BAFF30080D20724BFA7
:100C700011F8013B11F801CB48BF11F8012B24BF3B
:100C800000F8013B00F801CB48BF00F8012B70478A
:100C9000431A28BF9A4240F26380104410F0030FB9
:100CA00011441EBF11F8013D521E00F8013D10F025
:100CB000030F7FF4F6AF103AC0F00A8010B531E9A7
:100CC0001850103A20E91850BFF4F9AFBDE81040B1
:100CD000530724BF31E9081020E9081044BF51F838
:100CE000043D40F8043D12F0030F08BF7047D207DF
:100CF00028BF31F8023D48BF11F8012C28BF20F869
:100D0000023D48BF00F8012C70474FF00002042953
:100D1000C0F0128010F0030C00F05680CCF1040CEF
:100D2000BCF1020F18BF00F8012BA8BF20F8022B5E
:100D3000A1EB0C0100F048B85FEAC17C24BF00F8C9
:100D4000012B00F8012B48BF00F8012B7047000071
:100D500010B500F083F8001D10BD00BFC52C0000C9
:100D600010B5203AC0F00B80B1E81850203AA0E846
:100D70001850B1E81850A0E81850BFF4F5AF5FEA7A
:100D8000027C24BFB1E81850A0E8185044BF18C92D
:100D900018C0BDE810405FEA827C24BF51F8043BD4
:100DA00040F8043B08BF7047D20728BF31F8023B28
:100DB00048BF11F8012B28BF20F8023B48BF00F8BC
:100DC000012B70474FF0000200B51346944696463B
:100DD000203922BFA0E80C50A0E80C50B1F120014E
:100DE000BFF4F7AF090728BFA0E80C5048BF0CC0FC
:100DF0005DF804EB890028BF40F8042B08BF70475A
:100E000048BF20F8022B11F0804F18BF00F8012BCB
:100E10007047754600F030F8AE4605006946534607
:100E200020F00700854618B020B5FFF7F7FABDE8B7
:100E300020404FF000064FF000074FF000084FF041
:100E4000000B21F00701AC46ACE8C009ACE8C009D2
:100E5000ACE8C009ACE8C0098D467047004870474F
:100E60004C02002010B50446AFF300802046BDE8D8
:100E70001040FFF733BA0000004870472C020020F2
:100E800001491820ABBEFEE72600020070470000B3
:100E900070B501F08DFD054640F20B20B5FBF0F07A
:100EA000441E124801F02EFE114801F02BFE2021B5
:100EB000104800F0B7F9104800F05AF900224FF43A
:100EC00080710E4800F0CCFB22464FF480710B4835
:100ED00000F0DEFB620840F20711084800F0E9FB71
:100EE0004FF48071054800F0CEFB70BD004000F06B
:100EF000090800F0001006400614090000800240B6
:100F000010B5002410E00120A040C2B2062122202A
:100F100000F0E4F90649087000220521222000F0C3
:100F2000DDF903490870641C082CECDB10BD0000DF
:100F30000000002010B500228021034800F0B1FB22
:100F400000200249087010BD008002408E00002081
:100F500010B501228021024800F0A3FB10BD000063
:100F60000080024070B504460D4604F0010040B90F
:100F70002348007800F0010018B1FFF7DBFF0020E4
:100F800070BD04F0020040B91D48007800F0020076
:100F900018B1FFF7CFFF0120F2E704F0800040B95D
:100FA0001748007800F0800018B1FFF7C3FF022057
:100FB000E6E704F0400040B91148007800F0400036
:100FC00018B1FFF7B7FF0320DAE704F0200040B9BB
:100FD0000B48007800F0200018B1FFF7ABFF0420A9
:100FE000CEE704F0100040B90548007800F010008A
:100FF00018B1FFF79FFF2846C2E72846C0E7000068
:101000004A000020002100E0491C8142FCD37047C7
:10101000D0F8003412F0010F14BF0B438B43C0F81B
:10102000003412F0020FD0F8202414BF114322EA3A
:101030000101C0F8201470472DE9F00301264FF09C
:10104000000C0325C2F3411706FA0CF40C4211D030
:10105000D0F8C48F4FEA4C0405FA04F928EA0908CD
:10106000C0F8C48FD0F8C48F07FA04F448EA040427
:10107000C0F8C44F0CF1010C0CF0FF0CBCF1080FD0
:10108000E2D3D0F800C512F0010F14BF4CEA010CF6
:101090002CEA010CC0F800C5D0F804C512F0020F0C
:1010A00014BF4CEA010C2CEA010CC0F804C5D0F8BE
:1010B00008C512F0040F14BF4CEA010C2CEA010C15
:1010C000C0F808C5D0F818C512F0080F14BF4CEAD4
:1010D000010C2CEA010CC0F818C512F0100FD0F862
:1010E0003C2514BF0A438A43C0F83C25D0F80C25A0
:1010F00013F0010F14BF0A438A43C0F80C25D0F83F
:10110000102513F0020F14BF0A438A43C0F81025BC
:10111000D0F8142513F0040F14BF0A438A43C0F813
:101120001425D0F81C2513F0080F14BF0A438A4376
:10113000C0F81C25D0F8442513F4007F14BF0A43DF
:101140008A43C0F84425D0F8402513F4407F14BFEB
:101150000A438A43C0F84025D0F82825002B0CBF4D
:10116000114322EA0101C0F82815BDE8F0037047D9
:101170000E4AC0F30741D26E01238B401A420C4A3B
:101180001ABF02EBC101496852F83110020AD1F8C6
:101190002C354FF00F0C0CFA02FC00F00F0023EA84
:1011A0000C0390401843C1F82C05704700E00F4035
:1011B000F03B000030B50C4605460022FFF728FF43
:1011C00021462846BDE8304008230122FFF734BFFE
:1011D00030B50C46054608230122FFF72DFF2146B6
:1011E0002846BDE830400122FFF712BF30B50C465B
:1011F00005460222FFF70CFF21462846BDE8304095
:1012000009230122FFF718BF30B50C46054602221C
:10121000FFF7FEFE21462846BDE8304008230122A4
:10122000FFF70ABF30B50C4605460222FFF7F0FE75
:1012300021462846BDE8304008230122FFF7FCBEC6
:1012400030B50C4605460222FFF7E2FE214628464D
:10125000BDE8304008230122FFF7EEBE2DE9F04142
:1012600004460E4600BF1C4800F078F80028FAD16A
:1012700000222146184800F0B9F83146164800F01F
:1012800077F80721144800F06FF800BF124800F00B
:101290005FF80028FAD1104800F071F8C7B2642056
:1012A000FFF7B0FE012221460B4800F09FF807210E
:1012B000094800F059F800BF074800F049F8002835
:1012C000FAD1054800F052F8C5B26420FFF79AFE43
:1012D0002846BDE8F0810000000002402DE9F04101
:1012E00004460F46154600BF184800F037F800289E
:1012F000FAD100222146154800F078F83946134803
:1013000000F036F80321114800F02EF800BF0F4816
:1013100000F024F80028FAD10C4800F030F8C6B2EA
:1013200029460A4800F024F80521084800F01CF876
:1013300000BF064800F012F80028FAD1034800F078
:101340001EF8C6B23046BDE8F08100000000024041
:10135000406810F0400018BF01207047406810F04E
:10136000010018BF012070474160704780687047D6
:1013700081607047016A41F0100101627047406866
:1013800010F0010F05D110F0120F1CBF00F01C006F
:101390007047002070470000036A43F010030362A7
:1013A000002A14BF0E4A0F4A02EB820301EB8303AB
:1013B00002EB820292005B1EB3FBF2F2521EC2608D
:1013C000D0F8C02F12F0010F08BF7047064A114431
:1013D000521CB1FBF2F1491E41F08001C16070471F
:1013E000801A0600A08601007F47370142EA4101CA
:1013F000016070471649042804BF086840F4803033
:1014000018D0052804BF086840F4003012D0062820
:1014100012D00F2815D0102838BF7047103800F0B0
:101420001F01012202FA01F142090A4850F8220084
:101430000160704708607047086840F480200860C9
:1014400070474FF0E020016941F0020101617047EF
:1014500024ED00E03C3D000010B5FEF745FF0028FC
:1014600018BF012010BD10B5FEF745FF002818BFBA
:10147000012010BD054A20F003015158096880077A
:10148000C00E21FA00F0C0B270470000A03C00007E
:1014900006480068064A00F4E061002052F8203057
:1014A0008B421CBF401C0828F8D370470CED00E0AD
:1014B000803C0000044951F82000044940F0FD70D0
:1014C00040F0806008607047803C00000CED00E058
:1014D000FEF71ABF084A20F00303D25813688007AA
:1014E000C00E4FF0FF0C0CFA00FC23EA0C0301FACB
:1014F00000F0184310607047A03C000033B5BDF801
:1015000004202A4B1B7843BB03210AE00A2392FBE9
:10151000F3F403FB142343540A2392FBF3F39AB22C
:10152000491E0029F2DA9DF806300A2493FBF4F3F1
:1015300003719DF8063093FBF4F504FB15334371FA
:101540009DF8073093FBF4F383719DF8073093FB0C
:10155000F4F504FB1533C37127E004210AE00A23E4
:1015600092FBF3F403FB142343540A2392FBF3F39B
:101570009AB2491C0729F2DD9DF806300A2493FB34
:10158000F4F383709DF8063093FBF4F504FB1533F8
:10159000C3709DF8073093FBF4F303709DF8073098
:1015A00093FBF4F504FB153343703CBD8F00002022
:1015B00003B52A49097841BB9DF804100A2291FB22
:1015C000F2F101709DF8041091FBF2F302FB13118C
:1015D00041709DF8051091FBF2F181709DF80510A6
:1015E00091FBF2F302FB1311C1709DF8061091FB01
:1015F000F2F101719DF8061091FBF2F302FB131159
:1016000041712421C171817127E09DF804100A22E3
:1016100091FBF2F1C1719DF8041091FBF2F302FB12
:10162000131181719DF8051091FBF2F141719DF844
:10163000051091FBF2F302FB131101719DF80610E6
:1016400091FBF2F1C1709DF8061091FBF2F302FBE1
:10165000131181702421417001700CBD8F00002096
:10166000084401686FF352011143016012F0020F48
:1016700014BFB0218C21016214BF4FF4306140F6D9
:101680000C0141627047425842F0010242507047DB
:101690000844016811F0020F14BF5108511E016186
:1016A0007047002A826814BF114322EA0101816059
:1016B000704721F03F031844036813F0020F18BF6E
:1016C000520803699A1A11F0010F14BFC2618261B6
:1016D000704700007FB522A103C9CDE9020122A114
:1016E00003C9CDE90001002404E02148005D21493F
:1016F0000855641C082CF8DB00241BE000220121A3
:101700001820FFF7EBFD1C490870002503E002A834
:1017100000F002FF6D1C142DF9DBFF2201211820BF
:10172000FFF7DCFD14490870FFF7EAFB1348FFF7E9
:1017300069FC641C032CE1DB00240DE0002503E0C0
:10174000684600F0E9FE6D1C142DF9DBFFF7D8FBAD
:101750000A48FFF757FC641C032CEFDB7FBD000039
:10176000040209010000010620231124242424245A
:101770006E0000204B0000200000002000350C000F
:1017800070B50446204601F011FDF8A001F00EFDF1
:101790000522F7A12046FFF779F8002878D1042226
:1017A000F5A1601DFFF772F8002872D1F4A104F1D1
:1017B0000900FFF723F940B9F3490888F3A101F0C4
:1017C00003FD054601F0F2FC81E2F2A104F10900FB
:1017D000FFF714F940B9EC498878ECA101F000FD5D
:1017E000054601F0E3FCEFE7E3A104F10900FFF790
:1017F00005F940B9E449C878E4A101F0F1FC0546D7
:1018000001F0D4FCE0E7E5A104F10900FFF7F6F8E8
:1018100080B9DD490888E4A101F0D6FC054601F055
:10182000C5FCD9498878D9A101F0DAFC054601F058
:10183000BDFCC9E7DDA104F10900FFF7DFF880B9BD
:10184000D1498878D8A101F0CBFC054601F0AEFC67
:10185000CD49C878CDA101F0C3FC054601F0A6FC36
:10186000B2E7D5A104F10900FFF7C8F890B9C6495D
:101870000888CDA101F0A8FC054601F097FCC249FB
:10188000C878C2A101F0ACFC054601F08FFC9BE7D3
:101890002DE11FE0CBA104F10900FFF7AFF800280C
:1018A00092D1B9490888C0A101F08EFC054601F02B
:1018B0007DFCB5498878BCA101F092FC054601F099
:1018C00075FCB149C878B1A101F08AFC054601F068
:1018D0006DFC79E70422BFA1601DFEF7D7FF002849
:1018E0007ED10A22BDA104F10900FEF7CFFF30B17D
:1018F0001022BDA104F10900FEF7C8FFC0B9BF491D
:101900000878A9A101F06CFC054601F04FFCBB4929
:101910004878A5A101F064FC054601F047FCB749F1
:1019200088789AA101F05CFC054601F03FFC4BE78A
:101930000722B3A104F10900FEF7A8FF30B10A2283
:10194000B1A104F10900FEF7A1FF80B9AB49087805
:1019500095A101F045FC054601F028FCA74948780F
:101960008AA101F03DFC054601F020FC2CE706228F
:101970009BA104F10900FEF789FF30B10922A5A15E
:1019800004F10900FEF782FF80B99C49487886A1DE
:1019900001F026FC054601F009FC984988787BA1F6
:1019A00001F01EFC054601F001FC0DE707229CA199
:1019B00004F10900FEF76AFF30B10A229AA104F18E
:1019C0000900FEF763FF90B98C49087876A101F011
:1019D00007FC054601F0EAFB884988786BA100E026
:1019E00043E001F0FDFB054601F0E0FBECE691A1D0
:1019F00004F10900FFF702F840B98049087863A1B3
:101A000001F0EEFB054601F0D1FBDDE603227DA1EE
:101A100004F10900FEF73AFF30B106227BA104F180
:101A20000900FEF733FF40B97449487857A101F027
:101A3000D7FB054601F0BAFBC6E6032279A104F103
:101A40000900FEF723FF38B1062278A104F109004E
:101A5000FEF71CFF002889D1684988784BA101F066
:101A6000BFFB054601F0A2FBAEE6052273A1601D97
:101A7000FEF70CFFC0B9734908784BA101F0B0FB29
:101A8000054601F093FB6F49487847A101F0A8FB98
:101A9000054601F08BFB6B4988783CA101F0A0FB67
:101AA000054601F083FB8FE6072267A1601DFEF764
:101AB000EDFE50B96648007818B166A001F076FBDB
:101AC00082E666A001F072FB7EE6062265A1601D3B
:101AD000FEF7DCFE002889D16448007818B164A0C4
:101AE00001F064FBF3E068A001F060FBEFE0052289
:101AF0006BA12046FEF7CAFE002836D1072252A16C
:101B0000601DFEF7C3FEA0B967A104F10C00FEF74B
:101B100075FF18B900204E490870EBE363A104F18A
:101B20000C00FEF76BFF002886D1012048490870A1
:101B3000E0E306224BA1601DFEF7A8FEA0B95CA160
:101B400004F10B00FEF75AFF18B90020474908704E
:101B5000D0E359A104F10B00FEF750FF0028A2D1F9
:101B6000012042490870C5E3AAE0A0E30D0A000085
:101B70002A4745543A000000444154450000000003
:101B800059454152000000005A00002025750D0AF9
:101B9000000000004D4F4E5448000000594541528E
:101BA0004D4F4E5448000000257520004D4F4E54B7
:101BB0004844415445000000594541524441544570
:101BC00000000000594541524D4F4E544844415485
:101BD0004500000054494D4500000000484F555253
:101BE0004D494E5345430000484F55524D494E55BF
:101BF00054455345434F4E4400000000530000201D
:101C0000484F55524D494E00484F55524D494E553B
:101C1000544500004D494E5345434F4E440000008B
:101C2000484F555253454300484F55525345434F33
:101C30004E440000484F555200000000414C4152B4
:101C40004D00000068000020444953504C415900A9
:101C5000900000204F46460D0A0000004F4E0D0A2E
:101C600000000000464F524D415400008F000020FC
:101C700046524F4D20524947485420544F204C451E
:101C800046540D0A0000000046524F4D204C454678
:101C90005420544F2052494748540D0A0000000078
:101CA0002A5345543A0000004F4E00004F4646006C
:101CB0004C4546540000000052494748540000007B
:101CC000F3480078012803D0F2A001F06FFA11E385
:101CD0000422AFF25C11601DFEF7D8FD00287DD113
:101CE000F948007818B1F9A001F060FA02E3042283
:101CF000AFF2741104F10900FEF7C8FDC8B9607BAA
:101D000030384FF47A7110FB01F1A07B303800EBD2
:101D1000C00202EB001001EB8001E07B303800EBE9
:101D2000800001EB4001207C30380844F4490880F1
:101D300024E00522AFF2A41104F10900FEF7A6FD8C
:101D400050B9E07B3038A17B303901EB810100EBE9
:101D50004100EB49887011E00422AFF2E41104F174
:101D60000900FEF793FD48B9A07B3038617B30391C
:101D700001EB810100EB4100E149C8700922AFF29B
:101D8000E41104F10900FEF781FD40BBA07C30386E
:101D90004FF47A7110FB01F1E07C303800EBC002A7
:101DA00002EB001001EB8001207D303800EB800059
:101DB00001EB4001607D30380844D1490880088833
:101DC000AFF2382101F000FA054601F0EFF9E07DAD
:101DD0003038A17D303901EB810101E084E004E07D
:101DE00000EB4100C649887047E00922AFF2442168
:101DF00004F10900FEF74AFDA0B9E07C3038A17C6F
:101E0000303901EB810100EB4100BD498870607DF4
:101E10003038217D303901EB810100EB4100B849B8
:101E2000C8702AE00822AFF2702104F10900FEF721
:101E30002DFD10BB607C30384FF47A7110FB01F13E
:101E4000A07C303800EBC00202EB001001EB8001F7
:101E5000E07C303800EB800001EB4001207D303821
:101E60000844A7490880A07D3038617D303901EBF6
:101E7000810100EB4100A249C8700D22AFF2BC21E4
:101E800004F10900FEF702FD00282CD1A07D3038B6
:101E90004FF47A7110FB01F1E07D303800EBC002A5
:101EA00002EB001001EB8001207E303800EB800057
:101EB00001EB4001607E3038084491490880E07EA3
:101EC0003038A17E303901EB810100EB41008C49B3
:101ED0008870607F3038217F303901EB810100EB61
:101EE00041008749C87005E20422AFF21831601D35
:101EF000FEF7CCFC002879D173480078012803D084
:101F000080A001F053F9F5E10422AFF2D82104F1E9
:101F10000900FEF7BBFC50B9A07B3038617B30393B
:101F200001EB810100EB41008349087024E00322AA
:101F3000AFF2303104F10900FEF7A8FC50B9607B24
:101F40003038217B303901EB810100EB41007A49C7
:101F5000487011E00322AFF2343104F10900FEF7BA
:101F600095FC48B9607B3038217B303901EB810129
:101F700000EB4100704988700722AFF27C3104F118
:101F80000900FEF783FCA0B9607C3038217C303931
:101F900001EB810100EB410067490870E07C3038BB
:101FA000A17C303901EB810100EB410062494870AE
:101FB00039E00622AFF2D83104F10900FEF766FCE1
:101FC000A8B9207C3038E17B303901EB810100EB8E
:101FD000410059494870A07C3038617C303901EBB0
:101FE000810100EB4100544988701CE043E0072266
:101FF000AFF2D43104F10900FEF748FC98B9607CD7
:102000003038217C303901EB810100EB41004A4935
:102010000870E07C3038A17C303901EB810100EBA5
:102020004100454988700A22AFF2504104F109008D
:10203000FEF72CFC00281DD1207D3038E17C3039A2
:1020400001EB810100EB41003B490870A07D303875
:10205000617D303901EB810100EB41003649487068
:10206000207E3038E17D303901EB810100EB410009
:10207000314988703EE10522AFF24041601DFEF714
:1020800005FC0028F6D11048007803285AD055E006
:10209000480000200D0A5072657373205357322098
:1020A000746F2073776974636820746F205345548C
:1020B0005F56414C554520737461746520666972A2
:1020C00073742121210D0A00470000200D0A50726F
:1020D0006573732053573120746F2073776974636D
:1020E0006820746F204D4F44455F44415445206D36
:1020F0006F64652066697273742121210D0A0000E6
:102100005A0000200D0A5072657373205357312016
:10211000746F2073776974636820746F204D4F4427
:10212000455F54494D45206D6F6465206669727343
:10213000742121210D0A0000530000206EA001F03F
:1021400035F8D7E00422AFF2145104F10A00FEF78B
:102150009DFB50B9E07B3038A17B303901EB810128
:1021600000EB41007249087024E00322AFF26C5189
:1021700004F10A00FEF78AFB50B9A07B3038617B7E
:10218000303901EB810100EB41006949487011E0F1
:102190000322AFF2705104F10A00FEF777FB48B951
:1021A000207B3038617B303901EB810100EB41004D
:1021B0005F4988700722AFF2B85104F10A00FEF7B8
:1021C00065FBA0B9A07C3038617C303901EB81011E
:1021D00000EB410056490870207D3038E17C3039F1
:1021E00001EB810100EB41005149487038E00622C3
:1021F000AFF2146104F10A00FEF748FBA0B9607C5D
:102200003038217C303901EB810100EB4100484935
:102210004870E07C3038A17C303901EB810100EB63
:102220004100434988701BE00722AFF20C6104F1C2
:102230000A00FEF72BFB98B9A07C3038617C30395E
:1022400001EB810100EB410039490870207D3038F5
:10225000E17C303901EB810100EB410034498870A9
:102260000A22AFF2886104F10A00FEF70FFBE8BB17
:10227000607D3038217D303901EB810100EB410078
:102280002B490870E07D3038A17D303901EB8101A8
:1022900000EB410026494870607E3038217E30399D
:1022A00001EB810100EB41002149887022E004220A
:1022B00020A12046FEF7EAFAC0B9204820490A8842
:1022C0000280897881701F481F49096801601F4892
:1022D0001F490A8802808978817015481D490A883B
:1022E00002808978817000201B4900E002E00870BC
:1022F0001A49087070BD00000D0A50726573732092
:1023000053573120746F2073776974636820746F3A
:10231000204D4F44455F414C41524D32206D6F641A
:10232000652066697273742121210D0A0000000086
:10233000680000202A52535400000000530000207F
:10234000560000205A0000205E000020620000209D
:10235000650000206B0000208F000020900000200E
:1023600010B500212220FEF779FF024908700846C7
:10237000007810BD0000002002461046114602B948
:10238000704714E00378202B10D00378612B08DD10
:1023900003787A2B05DA0378203B0B70491C401C2C
:1023A00005E003780B70491C401C00E0401C0378DA
:1023B000002BE7D10B7000BFE2E7000010B5114819
:1023C00000F0A0FB00BF0F4800F0B0FB0028FAD0DF
:1023D0000C48C01C00F096FB00BF0A48C01C00F06F
:1023E000A5FB0028F9D001210748FEF7F1FE0321E3
:1023F0000648FEF7DFFE0A23012203210348FEF709
:102400001BFE10BD050800F00050024000D0034044
:1024100010B51E4800F076FB1D4800F073FB1D4808
:10242000FEF7A6FE1C48FEF7A3FE04211B48FEF79C
:10243000EBFE08211948FEF7D9FE01221848016871
:102440001848FEF7A9FF1748FEF794FFFF220C215A
:102450002220FEF743FF044600220D212220FEF732
:102460003DFF044600220E212220FEF737FF0446DE
:10247000002203211820FEF731FF0446FF2201212C
:102480001820FEF72BFF044610BD0000002000F0CE
:10249000010800F002080100020C01000050004099
:1024A000040000200000024010B5124800F02AFB92
:1024B000114800F027FB00BF0F4800F037FB002851
:1024C000FAD00120FEF754FE40F20140FEF750FE24
:1024D00003214FF04020FEF7B3FE60234FF4E132BA
:1024E00006480168064800F01EFE06A000F05EFEE9
:1024F00010BD0000001800F0000800F004000020EB
:1025000000C000400D0A48656C6C6F2C776F726CD0
:1025100064210D0A0000000070B5054600241DE08E
:102520000120A040C2B206212220FEF7D7FE0D49AD
:102530000870285D0C490A5C05212220FEF7CEFEBA
:102540000849087042F21070FEF75CFD0022052178
:102550002220FEF7C3FE03490870641C082CDFDB51
:1025600070BD0000000000201800002008B51048D1
:102570000078E0B90F480068014600900E48FFF768
:1025800017F80E48007848B90B48407825300A49BA
:1025900048700846C0782530C87008E00648C07802
:1025A00025300549C870084640792530487108BD76
:1025B00090000020620000204B0000208F000020CF
:1025C00008B510480078E0B90F480068014600904F
:1025D0000E48FEF7EDFF0E48007848B90B484078EA
:1025E00025300A4948700846C0782530C87008E090
:1025F0000648C07825300549C8700846407925301E
:10260000487108BD90000020680000204B000020A9
:102610008F00002008B510480078E0B90F48006826
:10262000014600900E48FEF769FF0E48007848B951
:102630000B48C07825300A49C870084640792530D3
:10264000487108E00648407825300549487008463A
:10265000C0782530C87008BD900000205A000020C6
:102660004B0000208F00002008B51248007800BB06
:1026700011480188ADF8001080788DF802000F48ED
:102680000099FEF795FF0E48007848B90B4840784E
:1026900025300A4948700846C0782530C87008E0DF
:1026A0000648C07825300549C8700846407925306D
:1026B000487108BD90000020530000204B0000200E
:1026C0008F0000202DE9F003AF4D02462868AF4B84
:1026D0001840A0F18053B3F5A02359D002F0380977
:1026E000DFF8AC82C2F38414B9F1100F25D0B9F130
:1026F000300F04BF47F230504FF400130DD04FF0AD
:102700003800904304BF4FF40040C30105D012F0DD
:10271000380F1CBF0020034613D09E4F12F4605F99
:102720004FF0000618BF00222CD057F83240444525
:102730007DD307EBC2025268E1E000234046152436
:10274000EBE7A4F10900122822D29348D5F87CC007
:102750004FF04C7350F824002CF01C0C072CA8BF31
:102760004CF0100CC5F87CC02E6D4FF4002C16F404
:10277000807FD2D1BCF1010C0AD02E6D16F4807F7F
:10278000F8D0CAE712F0380F18BFB9F1100F04D013
:10279000BDE8F0034FF000007047C2F30268DFF8B5
:1027A000FCC14FF0000257F83290E14503D307EB2C
:1027B000C202526803E0521C062AF4D33246C5F81E
:1027C000C020D5F8B020DFF8D8C102EA0C0242F0F0
:1027D0000042C5F8B020DFF8CCC1A4F109024C1EBC
:1027E0005CF828C0A444BCFBF1FCD5F8B010194338
:1027F000C5F8B01008EBC80101EB41046A4902EBCF
:10280000420201EBC40101EB82046468C5F8644133
:10281000D5F864416FF0FF0808EB0C2C44EA0C0C6F
:10282000C5F864C151F82210D5F8602100E061E0DC
:1028300002F400021143C5F86011D5F86011D5F813
:102840006021C1F38921C2F30904D5F86421C2F3E0
:10285000042202F1010CD5F8642102F01F02521C7F
:10286000B0FBF2F04A09C2F100084443424301EBD5
:10287000481104EB5212484302EB9020B0FBFCF0ED
:1028800041080846002257F832C0844503D307EBBD
:10289000C200466802E0521C062AF4D3C5F8C060A4
:1028A000D5F8600110F4000F1DBFD5F8B00040F05E
:1028B0008040C5F8B000D5F8600104BF40F40000C6
:1028C000C5F860014FF40040D5F8682112F0010FFF
:1028D00002D1401E0028F7DC002808BF002148D0A4
:1028E000D5F8B000184340F0010040F01040C5F8A2
:1028F000B0003EE0521C062AFFF417AF3246C5F87E
:10290000C020D5F8602122F40002C5F86021D5F876
:10291000B020DFF898C002EA0C0242F00042C5F88D
:10292000B020002908BF4FF0000C0AD0B0FBF1FC2A
:10293000BCF1000F18BFACF1010C0CF10101B0FBB0
:10294000F1F10846002257F83240844203D307EBE6
:10295000C200466802E0521C062AF4D3C5F8C060E3
:10296000D5F8B00043EA8C22104340F00040C5F88F
:10297000B000D5F8B00020F47000C5F8B000BDE894
:10298000F00308467047000000E00F400000FF70B1
:102990000024F400B03F0000943D000040787D0129
:1029A00000FC0FE08C3D0000003E0000FF0300EF44
:1029B00070B44B4D2A6E296F11F0004F14BF01F017
:1029C000700002F03000202808BF464818D005DC0F
:1029D00088B1102808BF444812D009E0302808BF49
:1029E00047F230500CD0702808BF4FF4004007D099
:1029F00070BC002070477C203C4B00EA1210185835
:102A00004FF0FF3311F0004F02D011F4006F06D0E9
:102A100001F0004C02F400645CEA040C36D1D5F8F5
:102A200060C1D5F8644104F01F06C4F30424641C9B
:102A3000761C16FB04F46400B0FBF4F0CCF309043C
:102A40004443CCF3892C00FB0CF0D5F810C004EB08
:102A5000902042F480020CF4704CBCF5804F08BF0B
:102A6000234B13D009DCBCF5005F08BF214B0DD010
:102A7000BCF5405F08BF204B08E0BCF5E04F08BF45
:102A80001E4B03D0BCF5104F08BF1D4B12F4800F36
:102A900021D011F0004F19D011F0804F09D011F45E
:102AA000006F0CD001F0004C02F400625CEA0202FC
:102AB00005D0C1F3C551491CB0FBF1F00BE040005B
:102AC000C1F38651491CB0FBF1F004E0C2F3C351DD
:102AD000491CB0FBF1F0834238BF184670BC704708
:102AE00000E00F4000093D000024F400943D000088
:102AF000005A620200B4C40480F0FA0240787D01FA
:102B0000002D3101C0F307230749C0B2194401F079
:102B10007043C1F3130143EA411141EA800040F0E0
:102B2000007001220260704700E60F40C0F30722E8
:102B30000849C0B2114401F07042C1F3130142EAE6
:102B4000411141EA800040F000700068002818BF81
:102B50000120704700EA0F404FF0E020016941F08A
:102B60000501016170474FF0E020016941F0020169
:102B70000161704710B5FC48007801287ED002281A
:102B80007DD0032802D0042866D166E0F74A128877
:102B9000521CF64B1A80F64A127872BB1A461288FB
:102BA0004FF4487392FBF3F403FB1422002A53D131
:102BB000EE4B1A80002012E0EE4A12680244102AFE
:102BC00004DBEC4A12680244103A02E0E94A126857
:102BD00002441146E84A525CE84B1A54401C08284B
:102BE000EADBE44A1268521CE24B1A601A46126889
:102BF000102A31D100221A602EE0FFE7DB4A12884A
:102C00004FF4C87392FBF3F403FB142222BB00229F
:102C1000D64B1A80002012E0D64A12680244102ACD
:102C200004DBD44A12680244103A02E0D14A126826
:102C300002441146D04A525CD04B1A54401C08281A
:102C4000EADBCC4A1268521CCA4B1A601A46126858
:102C5000102A01D100221A60BAE1C44A1288521C1B
:102C6000C24B1A80C64A12788ABB1A4612884FF4A1
:102C7000167392FBF3F403FB142201E057E0C0E06B
:102C8000002A53D1B94B1A80002012E0B94A1268C9
:102C90000244102A04DBB74A12680244103A02E0E8
:102CA000B44A126802441146B34A525CB34B1A54F8
:102CB000401C0828EADBAF4A1268521EAD4B1A606E
:102CC0001A461268002A31DC10221A602EE0FFE753
:102CD000A64A12884FF4967392FBF3F403FB142276
:102CE00022BB0022A14B1A80002012E0A14A1268E8
:102CF0000244102A04DB9F4A12680244103A02E0A0
:102D00009C4A1268024411469B4A525C9B4B1A54DF
:102D1000401C0828EADB974A1268521E954B1A603D
:102D20001A461268002A01DC10221A6050E1954808
:102D30000088401C9349088008460088C82190FB01
:102D4000F1F201FB120000285AD18E4908808E480A
:102D5000007880F001008C4908708C48007830B110
:102D6000012816D0022826D0032848D135E086480D
:102D7000007858B98648047803E024207F49085534
:102D8000641C844800788442F7DD01E0FFF742FCD0
:102D900035E07D48007858B97F48047803E0242066
:102DA00076490855641C7D4800788442F7DD01E0CF
:102DB000FFF75AFC23E07448007858B97648047845
:102DC00003E024206D490855641C7448007884424F
:102DD000F7DD01E0FFF7CAFB11E06B48007858B956
:102DE0006D48047803E0242064490855641C6B484E
:102DF00000788442F7DD01E0FFF7E2FB00BF00BF8F
:102E0000E6E067480088401C65490880654800780E
:102E1000012801D1FEF79CF8614800884FF47A71CF
:102E200090FBF1F201FB1200002873D157480078A3
:102E3000012804D0022855D0032852D1C2E05A48B4
:102E400000785A49097888420ED157484078574946
:102E50004978884208D15448807854498978884212
:102E600002D101204F4908704F488078401C3C2116
:102E700090FBF1F201FB12004B4988700846807804
:102E800010B901204A49087049480078B8B10020BB
:102E90004749087044484078401C434948700846F8
:102EA00040783C2802D10120424908703E484078D1
:102EB0003C2190FBF1F201FB12003B4948703D4878
:102EC000007860B100203B49087037480078401C0A
:102ED000642190FBF1F201FB120033490870FFF707
:102EE000C3FB73E034488078401E3349887008463D
:102EF0008078FF2815D10846407860B908460078E8
:102F000048B90120274908702B488078401C2A497D
:102F100088705BE05BE03B202749887001202749EF
:102F200008702648007888B10020244908701E489F
:102F30004078401E1C49487008464078FF2802D15E
:102F400001201F4908703B20174948701C48007831
:102F500038B100201A49087013480078401E124901
:102F60000870FFF703FB31E0480000207C000020E0
:102F70007E00002078000020980000204B000020F8
:102F80007F000020860000209100002047000020E4
:102F900080000020810000208200002083000020AB
:102FA000880000208E0000205300002068000020D0
:102FB0008A0000208B000020620000208C0000208E
:102FC0008D00002001200349087000BF00BF00BF32
:102FD00000BF10BD470000204FF0E021401E4861B7
:102FE000704700000448006840F47000024908601F
:102FF000024803490860704788ED00E00024F400AF
:103000009400002070B50121264800F0C9F805465B
:103010002946244800F0BEF805F0500000283FD0B3
:1030200038E0204800F06CF80446601C00B936E037
:103030000A2C13D11C48B0F80001002809DD00203B
:103040001949B1F80011184A50540120114681F86D
:10305000020100201449A1F800011BE01248B0F859
:1030600000017F2809DA1049B1F80001411C0E4B1C
:10307000A3F8001119460C540BE07E220A49491CA2
:10308000481EFDF74EFC084981F87E407F20A1F8DC
:10309000000100BF034800F041F80028C1D100BF83
:1030A00070BD000000C00040A800002010B512480C
:1030B00090F80201F8B1FEF7CFF9044680220E49DC
:1030C00001F18000FDF76FFC00200B4981F802013F
:1030D0000CB9FEF7C8F90848803000F067F807A07F
:1030E00000F064F804488030FFF746F90248803069
:1030F000FEF746FB00BF10BDA80000200D0A00002F
:10310000816911F0100F0CBF00684FF0FF3070475D
:10311000826912F0200FFBD10160704780690121A4
:1031200021EA10107047D0F818C01CF0080FFAD12F
:10313000D0F82CC02CF0100CC0F82CC0D0F830C047
:103140002CF0010C2CF4407CC0F830C0D0F830C01A
:10315000B1EB021F34BF4CF0200C2CF0200CC0F857
:1031600030C038BF5208C900B1FBF2F1491C490810
:103170008A09426201F03F018162C36200218161DC
:10318000C16A41F01001C162016B40F2013211438A
:103190000163704741647047826B114381637047DC
:1031A000002914BF006CC06B7047000010B50446C6
:1031B00004E014F8011B0348FFF7AAFF2078002859
:1031C000F7D110BD00C0004070B504460D46224640
:1031D00029460248FDF732F9004870BDAC010020D5
:1031E00070B504460D46224629460248FDF726F9E9
:1031F000004870BDAC01002030380A2801D20120FF
:10320000704700207047000008B5FE49FE48FFF7F0
:1032100059FAFE490860084600684FF47A71B0FB1D
:10322000F1F42046FFF7D8FEFFF796FCFFF79BFC72
:10323000FFF7C4F8FFF7ECF8FFF736F9FDF728FEC3
:10324000FEF748FA1520FEF7D5F85021F048FFF7B1
:10325000A3FFFEF708F9FEF73BF9EE4908600320EB
:10326000FEF728F903211520FEF734F9E0210F209D
:10327000FEF730F9FEF70CF9E74908601520FEF774
:10328000F9F8E64908600F20FEF7F4F8E449086011
:10329000B2E3E448007848B1002004E0E249095C68
:1032A000E24A1154401C0828F8DB00BFDF48FFF752
:1032B00033F9FFF755F8DE490870FFF7F7FEDD48F0
:1032C000007805284AD2DFE800F003B2EF4A7E001A
:1032D000D748007800F00100E8B9D748007800F03E
:1032E0000100C0B10020D5490870D54908700120FF
:1032F000D44908700020D44908700320D3490870CD
:10330000D3490978481CC11700EB91718910A0EBD3
:103310008101CF4A1170C7480178C5480078FDF790
:1033200021FEC4490870C2480078C3490870C848E3
:10333000007848B1012804D0022808D003280CD115
:1033400008E0FFF791F908E0FFF764F905E0FFF7FF
:103350000DF902E0FFF734F900BF00BF4BE3B448BA
:10336000007800F0400070B9B348007800F04000E9
:1033700048B1B8490978481C00EBD0714910A0EB5E
:103380004101B44A1170B448006801460090B34846
:10339000FEF7B4F8B2480188ADF8001080788DF8D7
:1033A0000200AE4808300099FEF702F9A148017802
:1033B0009F480078FDF7D6FD9E4908709C4800782C
:1033C0009D49087017E39A48007800F0200070B912
:1033D0009948007800F0200048B1A2490978481CBB
:1033E00000EBD0714910A0EB41019E4A11709A4840
:1033F0000068014600909948FEF780F898480188D7
:10340000ADF8001080788DF80200944808300099DB
:10341000FEF7CEF88748017885480078FDF7A2FDD1
:10342000844908708248007883490870E3E288483C
:10343000007830B1012871D0022870D003286FD1F4
:103440001EE27B48007800F0020070BB7A480078EA
:1034500000F0020048B37948007820B1012809D073
:10346000022815D10DE0042077490870052077491E
:1034700008700DE006207449087007207349087031
:1034800006E000207049087003207049087000BFF2
:1034900000BF6A480078401C032190FBF1F201FB59
:1034A00012006649087077E098E2FFE7604800780C
:1034B00000F0080088BB6048007800F0080060B3A6
:1034C0005E48007820B101280ED0022824D117E0F0
:1034D00061480088401C42F2107190FBF1F201FB40
:1034E00012005D49088017E05B488078401C5A490B
:1034F0008870084680780D2801D1012088700BE083
:103500005548C078401C5449C8700846C0782028E7
:1035100001D10120C87000BF3EE002E03DE00FE1B4
:103520004EE24348007800F00400A8BB424800780F
:1035300000F0040080B34148007820B1012812D087
:10354000022828D11BE044480088401E42490880D8
:10355000084600884FF6FF71884203D142F20F708F
:103560003D49088017E03C488078401E3A49887001
:1035700008468078FF2801D10C2088700BE036487F
:10358000C078401E3449C8700846C078FF2801D171
:103590001F20C87000BF00BF12E22548007800F06D
:1035A000020068BB2448007800F0020040B32348C2
:1035B000007820B1012809D0022815D10DE00220A1
:1035C0001F49087003201F4908700DE004201C49A2
:1035D000087005201B49087006E000201849087093
:1035E00001201849087000BF00BF14480078401C33
:1035F000032190FBF1F201FB1200104908709EE0DC
:1036000032E00000002D3101500500F104000020DF
:1036100000C000400C000020080000201400002022
:1036200010000020900000206E0000204B000020C1
:1036300049000020480000204A00002084000020AB
:1036400082000020830000208000002081000020F4
:10365000470000207E0000205A0000209800002033
:10366000530000207F000020E448007800F00800AC
:1036700070BBE348007800F0080048B3E1480078E8
:1036800020B101280DD0022821D115E0DE480078B4
:10369000401C182190FBF1F201FB1200DA4908707E
:1036A00015E0D9484078401C3C2190FBF1F201FB29
:1036B0001200D54948700AE0D3488078401C3C216C
:1036C00090FBF1F201FB1200CF49887000BF36E099
:1036D000CA48007800F0040088BBC948007800F0B0
:1036E000040060B3C748007820B101280ED002283A
:1036F00024D117E0C4480078401EC349087008462A
:103700000078FF2801D11720087017E0BE484078E4
:10371000401EBD49487008464078FF2801D13B2033
:1037200048700BE0B8488078401EB749887008465A
:103730008078FF2801D13B20887000BF00BF3FE1A7
:10374000AE48007800F0020068BBAD48007800F099
:10375000020040B3AB48007820B1012809D002280C
:1037600015D10DE00220A94908700320A84908706E
:103770000DE00420A54908700520A549087006E061
:103780000020A24908700120A149087000BF00BFB5
:103790009C480078401C032190FBF1F201FB1200D1
:1037A000984908706BE09548007800F0080070BBFD
:1037B0009348007800F0080048B39248007820B1A0
:1037C00001280DD0022821D115E092480078401C34
:1037D000642190FBF1F201FB12008E49087015E0A4
:1037E0008C484078401C3C2190FBF1F201FB120018
:1037F000884948700AE087488078401C3C2190FB4B
:10380000F1F201FB12008349887000BF37E0FFE747
:103810007A48007800F0040088BB7948007800F00E
:10382000040060B37748007820B101280ED0022848
:1038300024D117E077480078401E76490870084682
:103840000078FF2801D16320087017E071484078A4
:10385000401E7049487008464078FF2801D13B203F
:1038600048700BE06B488078401E6A4988700846B3
:103870008078FF2801D13B20887000BF00BF9FE007
:103880005E48007800F0020068BB5D48007800F0F8
:10389000020040B35B48007820B1012809D002281B
:1038A00015D10DE0022059490870032058490870CD
:1038B0000DE004205549087005205549087006E0C0
:1038C00000205249087001205149087000BF00BF14
:1038D0004C480078401C032190FBF1F201FB1200E0
:1038E000484908706BE04548007800F0080070BB5C
:1038F0004348007800F0080048B34248007820B1FF
:1039000001280DD0022821D115E043480078401C41
:10391000182190FBF1F201FB12003F49087015E0FD
:103920003D484078401C3C2190FBF1F201FB120025
:10393000394948700AE038488078401C3C2190FBA7
:10394000F1F201FB12003449887000BF37E0FFE755
:103950002A48007800F0040088BB2948007800F06D
:10396000040060B32748007820B101280ED0022857
:1039700024D117E028480078401E274908700846DF
:103980000078FF2801D11720087017E022484078FE
:10399000401E2149487008464078FF2801D13B204D
:1039A00048700BE01C488078401E1B498870084610
:1039B0008078FF2801D13B20887000BF00BF00BF86
:1039C00000BF164801780D480078FDF7CBFA13497F
:1039D00008700A4800780A4908700CE00F4801781E
:1039E00006480078FDF7BEFA0C49087003480078D5
:1039F0000349087000BF00BF4BE4000049000020ED
:103A00004A00002084000020530000208200002093
:103A10008300002062000020680000204800002091
:103A200010B500290AD00878002807D00548784446
:103A3000FCF7E4FF002801D0002010BD02487844C4
:103A400010BD0000160600000E0600004FF040708A
:103A5000E1EE100A70470000004000401000000036
:103A600000800540100000000050004011000000E0
:103A700000900540110000000060004012000000AE
:103A800000A005401200000000700040130000007C
:103A900000B0054013000000004002401400000088
:103AA00000C0054014000000005002402E0000003D
:103AB00000D005402E000000006002402F000000F2
:103AC00000E005402F0000000070024030000000C0
:103AD00000F005403000000000D003404600000028
:103AE00000000640460000000010064047000000AD
:103AF0000020064048000000003006407F00000023
:103B00000040064080000000005006408400000095
:103B1000006006408C0000000040004010000000E3
:103B2000008005401000000000500040110000001F
:103B300000900540110000000060004012000000ED
:103B400000A00540120000000070004013000000BB
:103B500000B00540130000000040024014000000C7
:103B600000C0054014000000005002402E0000007C
:103B700000D005402E000000006002402F00000031
:103B800000E005402F0000000070024030000000FF
:103B900000F005403000000000D00340430000006A
:103BA00000000640430000000010064044000000F2
:103BB000002006404500000000300640580000008C
:103BC0000040064059000000005006405C00000024
:103BD0000060064064000000007006406C000000B9
:103BE000008006406D000000009006407F0000004D
:103BF000004000400080054000500040009005401B
:103C00000060004000A005400070004000B005408A
:103C10000040024000C005400050024000D0054076
:103C20000060024000E005400070024000F00540E6
:103C300000D003400000064000100640001006407F
:103C400000200640002006400030064000300640BC
:103C5000004006400040064000500640005006402C
:103C6000006006400060064000700640007006409C
:103C7000008006400080064000900640009006400C
:103C8000000700000006000000050000000400001E
:103C9000000300000002000000010000000000001E
:103CA0000000000018ED00E01CED00E020ED00E059
:103CB00000E400E004E400E008E400E00CE400E0DC
:103CC00010E400E014E400E018E400E01CE400E08C
:103CD00020E400E024E400E028E400E02CE400E03C
:103CE00030E400E034E400E038E400E03CE400E0EC
:103CF00040E400E044E400E048E400E04CE400E09C
:103D000050E400E054E400E058E400E05CE400E04B
:103D100060E400E064E400E068E400E06CE400E0FB
:103D200070E400E074E400E078E400E07CE400E0AB
:103D300080E400E084E400E088E400E000E100E0EA
:103D400004E100E008E100E00CE100E010E100E047
:103D500080E100E084E100E088E100E08CE100E047
:103D600090E100E000E200E004E200E008E200E0B0
:103D70000CE200E010E200E080E200E084E200E01B
:103D800088E200E08CE200E090E200E0006889094F
:103D9000001C4E0E40420F0000201C0080841E00BC
:103DA00000802500999E36000040380000093D0043
:103DB00000803E0000004B00404B4C0000204E00B5
:103DC000808D5B0000C05D000080700000127A00F2
:103DD00000007D0080969800001BB7000080BB00AB
:103DE000C0E8CE00647ADA000024F4000000FA0093
:103DF00080A81201002D310100366E0140787D014E
:103E00004000000000000000000100003E0008002B
:103E10000000000000010000A000000002000000FF
:103E20000001000034540100000000000001000007
:103E30002B700600000000000001000028000000B8
:103E40000000000000010000270001000000000049
:103E50000001000020000000000000000001000040
:103E60005000000002000000000100001AAC000039
:103E7000000000000001000017940900000000008D
:103E8000000100001698050000000000000100007D
:103E90001400000000000000000100001380080072
:103EA0000000000000010000A00000000800000069
:103EB00000010000100000000000000000010000F0
:103EC0002800000002000000000100004000000087
:103ED000040000000001000060000000000000007D
:103EE000000100005D000C00000000000001000067
:103EF0005000000000000000000100004E00020021
:103F0000000000000001000041AC010000000000C2
:103F1000000100003C000000000000000001000063
:103F20003A8009000000000000010000300000009D
:103F30000000000000010000280000000000000058
:103F40000001000027000100000000000001000047
:103F5000236006000000000000010000216008004E
:103F600000000000000100001E0000000000000032
:103F7000000100001DC0040000000000000100005E
:103F800050000000020000000001000018000000C6
:103F9000000000000001000014000000000000000C
:103FA00000010000600000000400000000010000AB
:103FB0000024F40030003000005A620291009100A9
:103FC00000879303D200D20000B4C404130113018C
:103FD00000E1F50554015401000E270795019501F4
:103FE0000000000000000000303132333435363735
:103FF000383941424344454640305800303132332D
:10400000343536373839616263646566403078002C
:104010000400000800000000000000020001000091
:104020001000000054410000000000209800000033
:104030003C020000EC41000098000020F805000060
:10404000580200001001000043000000F8FFFFFFCD
:10405000004040404040404040404141414141409B
:104060004040404040404040404040404040404050
:1040700040050202020202020202020202020202DF
:1040800002202020202020202020200202020202E4
:10409000020290909090909010101010101010103C
:1040A0001010101010101010101010100202020248
:1040B000020288888888888808080808080808088C
:1040C0000808080808080808080808080202020288
:1040D00040000000000000000000000000000000A0
:1040E00000000000000000000000000000000000D0
:1040F00000000000000000000000000000000000C0
:1041000000000000000000000000000000000000AF
:10411000000000000000000000000000000000009F
:10412000000000000000000000000000000000008F
:10413000000000000000000000000000000000007F
:10414000000000000000000000000000000000006F
:10415000000000000000000000000000000000005F
:104160000000000000000000000000003F065B4F60
:10417000666D7D077F6F777C395E79713D760F0EB6
:10418000753837545C73673149783E1C7E646E59CC
:1041900000BF86DBCFE6EDFD87FFEF0000FFFF00ED
:1041A00000000000000000173B34173B3400D60726
:1041B000071AD607071A00000F00000F173B3B171E
:1041C0003B3B242424242424242400000000000059
:1041D00000000000000300010000000000000000DB
:0C41E00000000000000100000024F400BA
:0400000500000201F4
:00000001FF
